{
  "contractName": "AssetConsumingRegistryDB",
  "abi": [
    {
      "constant": true,
      "inputs": [],
      "name": "owner",
      "outputs": [
        {
          "name": "",
          "type": "address"
        }
      ],
      "payable": false,
      "stateMutability": "view",
      "type": "function"
    },
    {
      "constant": false,
      "inputs": [
        {
          "name": "_newOwner",
          "type": "address"
        }
      ],
      "name": "changeOwner",
      "outputs": [],
      "payable": false,
      "stateMutability": "nonpayable",
      "type": "function"
    },
    {
      "inputs": [
        {
          "name": "_owner",
          "type": "address"
        }
      ],
      "payable": false,
      "stateMutability": "nonpayable",
      "type": "constructor"
    },
    {
      "anonymous": false,
      "inputs": [
        {
          "indexed": false,
          "name": "_newOwner",
          "type": "address"
        }
      ],
      "name": "LogChangeOwner",
      "type": "event"
    },
    {
      "constant": false,
      "inputs": [],
      "name": "createAsset",
      "outputs": [
        {
          "name": "_assetId",
          "type": "uint256"
        }
      ],
      "payable": false,
      "stateMutability": "nonpayable",
      "type": "function"
    },
    {
      "constant": false,
      "inputs": [
        {
          "name": "_assetId",
          "type": "uint256"
        },
        {
          "name": "_smartMeter",
          "type": "address"
        },
        {
          "name": "_owner",
          "type": "address"
        },
        {
          "name": "_operationalSince",
          "type": "uint256"
        },
        {
          "name": "_capacityWh",
          "type": "uint256"
        },
        {
          "name": "_maxCapacitySet",
          "type": "bool"
        },
        {
          "name": "_lastSmartMeterReadWh",
          "type": "uint256"
        },
        {
          "name": "_certificatesUsedForWh",
          "type": "uint256"
        },
        {
          "name": "_active",
          "type": "bool"
        },
        {
          "name": "_lastSmartMeterReadFileHash",
          "type": "bytes32"
        }
      ],
      "name": "initGeneral",
      "outputs": [],
      "payable": false,
      "stateMutability": "nonpayable",
      "type": "function"
    },
    {
      "constant": false,
      "inputs": [
        {
          "name": "_assetId",
          "type": "uint256"
        },
        {
          "name": "_country",
          "type": "bytes32"
        },
        {
          "name": "_region",
          "type": "bytes32"
        },
        {
          "name": "_zip",
          "type": "bytes32"
        },
        {
          "name": "_city",
          "type": "bytes32"
        },
        {
          "name": "_street",
          "type": "bytes32"
        },
        {
          "name": "_houseNumber",
          "type": "bytes32"
        },
        {
          "name": "_gpsLatitude",
          "type": "bytes32"
        },
        {
          "name": "_gpsLongitude",
          "type": "bytes32"
        }
      ],
      "name": "initLocation",
      "outputs": [],
      "payable": false,
      "stateMutability": "nonpayable",
      "type": "function"
    },
    {
      "constant": false,
      "inputs": [
        {
          "name": "_assetId",
          "type": "uint256"
        },
        {
          "name": "_active",
          "type": "bool"
        }
      ],
      "name": "setActive",
      "outputs": [],
      "payable": false,
      "stateMutability": "nonpayable",
      "type": "function"
    },
    {
      "constant": false,
      "inputs": [
        {
          "name": "_assetId",
          "type": "uint256"
        },
        {
          "name": "_exist",
          "type": "bool"
        }
      ],
      "name": "setAssetExistStatus",
      "outputs": [],
      "payable": false,
      "stateMutability": "nonpayable",
      "type": "function"
    },
    {
      "constant": false,
      "inputs": [
        {
          "name": "_assetId",
          "type": "uint256"
        },
        {
          "name": "_capacityWh",
          "type": "uint256"
        }
      ],
      "name": "setCapacityWh",
      "outputs": [],
      "payable": false,
      "stateMutability": "nonpayable",
      "type": "function"
    },
    {
      "constant": false,
      "inputs": [
        {
          "name": "_assetId",
          "type": "uint256"
        },
        {
          "name": "_certificatesUsedForWh",
          "type": "uint256"
        }
      ],
      "name": "setCertificatesUsedForWh",
      "outputs": [],
      "payable": false,
      "stateMutability": "nonpayable",
      "type": "function"
    },
    {
      "constant": false,
      "inputs": [
        {
          "name": "_assetId",
          "type": "uint256"
        },
        {
          "name": "_timestamp",
          "type": "uint256"
        }
      ],
      "name": "setLastSmartMeterReadDate",
      "outputs": [],
      "payable": false,
      "stateMutability": "nonpayable",
      "type": "function"
    },
    {
      "constant": false,
      "inputs": [
        {
          "name": "_assetId",
          "type": "uint256"
        },
        {
          "name": "_lastSmartMeterReadFileHash",
          "type": "bytes32"
        }
      ],
      "name": "setLastSmartMeterReadFileHash",
      "outputs": [],
      "payable": false,
      "stateMutability": "nonpayable",
      "type": "function"
    },
    {
      "constant": false,
      "inputs": [
        {
          "name": "_assetId",
          "type": "uint256"
        },
        {
          "name": "_lastSmartMeterReadWh",
          "type": "uint256"
        }
      ],
      "name": "setLastSmartMeterReadWh",
      "outputs": [],
      "payable": false,
      "stateMutability": "nonpayable",
      "type": "function"
    },
    {
      "constant": false,
      "inputs": [
        {
          "name": "_assetId",
          "type": "uint256"
        },
        {
          "name": "_country",
          "type": "bytes32"
        }
      ],
      "name": "setLocationCountry",
      "outputs": [],
      "payable": false,
      "stateMutability": "nonpayable",
      "type": "function"
    },
    {
      "constant": false,
      "inputs": [
        {
          "name": "_assetId",
          "type": "uint256"
        },
        {
          "name": "_region",
          "type": "bytes32"
        }
      ],
      "name": "setLocationRegion",
      "outputs": [],
      "payable": false,
      "stateMutability": "nonpayable",
      "type": "function"
    },
    {
      "constant": false,
      "inputs": [
        {
          "name": "_assetId",
          "type": "uint256"
        },
        {
          "name": "_operationalSince",
          "type": "uint256"
        }
      ],
      "name": "setOperationalSince",
      "outputs": [],
      "payable": false,
      "stateMutability": "nonpayable",
      "type": "function"
    },
    {
      "constant": false,
      "inputs": [
        {
          "name": "_assetId",
          "type": "uint256"
        },
        {
          "name": "_owner",
          "type": "address"
        }
      ],
      "name": "setOwner",
      "outputs": [],
      "payable": false,
      "stateMutability": "nonpayable",
      "type": "function"
    },
    {
      "constant": false,
      "inputs": [
        {
          "name": "_assetId",
          "type": "uint256"
        },
        {
          "name": "_smartMeter",
          "type": "address"
        }
      ],
      "name": "setSmartMeter",
      "outputs": [],
      "payable": false,
      "stateMutability": "nonpayable",
      "type": "function"
    },
    {
      "constant": true,
      "inputs": [
        {
          "name": "_assetId",
          "type": "uint256"
        }
      ],
      "name": "getActive",
      "outputs": [
        {
          "name": "",
          "type": "bool"
        }
      ],
      "payable": false,
      "stateMutability": "view",
      "type": "function"
    },
    {
      "constant": true,
      "inputs": [
        {
          "name": "_assetId",
          "type": "uint256"
        }
      ],
      "name": "getAssetGeneral",
      "outputs": [
        {
          "name": "_smartMeter",
          "type": "address"
        },
        {
          "name": "_owner",
          "type": "address"
        },
        {
          "name": "_operationalSince",
          "type": "uint256"
        },
        {
          "name": "_capacityWh",
          "type": "uint256"
        },
        {
          "name": "_maxCapacitySet",
          "type": "bool"
        },
        {
          "name": "_lastSmartMeterReadWh",
          "type": "uint256"
        },
        {
          "name": "_certificatesUsedForWh",
          "type": "uint256"
        },
        {
          "name": "_active",
          "type": "bool"
        },
        {
          "name": "_lastSmartMeterReadFileHash",
          "type": "bytes32"
        }
      ],
      "payable": false,
      "stateMutability": "view",
      "type": "function"
    },
    {
      "constant": true,
      "inputs": [],
      "name": "getAssetListLength",
      "outputs": [
        {
          "name": "",
          "type": "uint256"
        }
      ],
      "payable": false,
      "stateMutability": "view",
      "type": "function"
    },
    {
      "constant": true,
      "inputs": [
        {
          "name": "_assetId",
          "type": "uint256"
        }
      ],
      "name": "getAssetLocation",
      "outputs": [
        {
          "name": "country",
          "type": "bytes32"
        },
        {
          "name": "region",
          "type": "bytes32"
        },
        {
          "name": "zip",
          "type": "bytes32"
        },
        {
          "name": "city",
          "type": "bytes32"
        },
        {
          "name": "street",
          "type": "bytes32"
        },
        {
          "name": "houseNumber",
          "type": "bytes32"
        },
        {
          "name": "gpsLatitude",
          "type": "bytes32"
        },
        {
          "name": "gpsLongitude",
          "type": "bytes32"
        }
      ],
      "payable": false,
      "stateMutability": "view",
      "type": "function"
    },
    {
      "constant": true,
      "inputs": [
        {
          "name": "_assetId",
          "type": "uint256"
        }
      ],
      "name": "getCapacityWh",
      "outputs": [
        {
          "name": "",
          "type": "uint256"
        }
      ],
      "payable": false,
      "stateMutability": "view",
      "type": "function"
    },
    {
      "constant": true,
      "inputs": [
        {
          "name": "_assetId",
          "type": "uint256"
        }
      ],
      "name": "getCertificatesUsedForWh",
      "outputs": [
        {
          "name": "",
          "type": "uint256"
        }
      ],
      "payable": false,
      "stateMutability": "view",
      "type": "function"
    },
    {
      "constant": true,
      "inputs": [
        {
          "name": "_assetId",
          "type": "uint256"
        }
      ],
      "name": "getConsumingProperies",
      "outputs": [
        {
          "name": "_capacityWh",
          "type": "uint256"
        },
        {
          "name": "_maxCapacitySet",
          "type": "bool"
        },
        {
          "name": "_certificatesUsedForWh",
          "type": "uint256"
        }
      ],
      "payable": false,
      "stateMutability": "view",
      "type": "function"
    },
    {
      "constant": true,
      "inputs": [
        {
          "name": "_assetId",
          "type": "uint256"
        }
      ],
      "name": "getExistStatus",
      "outputs": [
        {
          "name": "general",
          "type": "bool"
        },
        {
          "name": "location",
          "type": "bool"
        },
        {
          "name": "asset",
          "type": "bool"
        }
      ],
      "payable": false,
      "stateMutability": "view",
      "type": "function"
    },
    {
      "constant": false,
      "inputs": [
        {
          "name": "_assetId",
          "type": "uint256"
        }
      ],
      "name": "getLastSmartMeterRead",
      "outputs": [
        {
          "name": "",
          "type": "uint256"
        }
      ],
      "payable": false,
      "stateMutability": "nonpayable",
      "type": "function"
    },
    {
      "constant": false,
      "inputs": [
        {
          "name": "_assetId",
          "type": "uint256"
        }
      ],
      "name": "getLastSmartMeterReadDate",
      "outputs": [
        {
          "name": "",
          "type": "uint256"
        }
      ],
      "payable": false,
      "stateMutability": "nonpayable",
      "type": "function"
    },
    {
      "constant": true,
      "inputs": [
        {
          "name": "_assetId",
          "type": "uint256"
        }
      ],
      "name": "getLastSmartMeterReadFileHash",
      "outputs": [
        {
          "name": "",
          "type": "bytes32"
        }
      ],
      "payable": false,
      "stateMutability": "view",
      "type": "function"
    },
    {
      "constant": true,
      "inputs": [
        {
          "name": "_assetId",
          "type": "uint256"
        }
      ],
      "name": "getLastSmartMeterReadWh",
      "outputs": [
        {
          "name": "",
          "type": "uint256"
        }
      ],
      "payable": false,
      "stateMutability": "view",
      "type": "function"
    },
    {
      "constant": true,
      "inputs": [
        {
          "name": "_assetId",
          "type": "uint256"
        }
      ],
      "name": "getLocationCountry",
      "outputs": [
        {
          "name": "",
          "type": "bytes32"
        }
      ],
      "payable": false,
      "stateMutability": "view",
      "type": "function"
    },
    {
      "constant": true,
      "inputs": [
        {
          "name": "_assetId",
          "type": "uint256"
        }
      ],
      "name": "getLocationRegion",
      "outputs": [
        {
          "name": "",
          "type": "bytes32"
        }
      ],
      "payable": false,
      "stateMutability": "view",
      "type": "function"
    },
    {
      "constant": true,
      "inputs": [
        {
          "name": "_assetId",
          "type": "uint256"
        }
      ],
      "name": "getOperationalSince",
      "outputs": [
        {
          "name": "",
          "type": "uint256"
        }
      ],
      "payable": false,
      "stateMutability": "view",
      "type": "function"
    },
    {
      "constant": true,
      "inputs": [
        {
          "name": "_assetId",
          "type": "uint256"
        }
      ],
      "name": "getOwner",
      "outputs": [
        {
          "name": "",
          "type": "address"
        }
      ],
      "payable": false,
      "stateMutability": "view",
      "type": "function"
    },
    {
      "constant": true,
      "inputs": [
        {
          "name": "_assetId",
          "type": "uint256"
        }
      ],
      "name": "getSmartMeter",
      "outputs": [
        {
          "name": "",
          "type": "address"
        }
      ],
      "payable": false,
      "stateMutability": "view",
      "type": "function"
    }
  ],
  "bytecode": "0x6060604052341561000f57600080fd5b6040516020806115e88339810160405280805160008054600160a060020a03909216600160a060020a03199092169190911790555050611594806100546000396000f3006060604052600436106101ab5763ffffffff7c0100000000000000000000000000000000000000000000000000000000600035041663042157c281146101b0578063054dddde146101d85780630ff85b94146101f55780631314394d14610217578063312f9a8c1461027457806331a5daf3146102ae57806336016d71146102c1578063437992c8146101b05780634694cc43146102da57806351f19298146102f057806357c3bc60146103095780637fd3924714610322578063830be6e9146103445780638c26afa61461035d5780638da5cb5b146103735780639346e7c5146103a25780639963aece146103b8578063a12df750146103e7578063a60b6fdc14610400578063a6f9dae114610419578063ade1e99214610438578063adfe021b146104a6578063ae51439c146104bc578063af55ac28146104cf578063b91dccde146104e8578063c2791306146104fe578063c41a360a14610517578063c53fb1a51461052d578063c6bc1a7614610557578063de280a6314610595578063e60a955d146105d8578063ed9c058b146105f3578063f1d03e9314610609578063f7105c051461061f575b600080fd5b34156101bb57600080fd5b6101c6600435610635565b60405190815260200160405180910390f35b34156101e357600080fd5b6101f3600435602435151561067b565b005b341561020057600080fd5b6101f3600435600160a060020a03602435166106cc565b341561022257600080fd5b61022d600435610729565b60405197885260208801969096526040808801959095526060870193909352608086019190915260a085015260c084015260e0830191909152610100909101905180910390f35b341561027f57600080fd5b61028a60043561079b565b60405192835290151560208301526040808301919091526060909101905180910390f35b34156102b957600080fd5b6101c66107fc565b34156102cc57600080fd5b6101f3600435602435610af1565b34156102e557600080fd5b6101c6600435610b34565b34156102fb57600080fd5b6101f3600435602435610b7a565b341561031457600080fd5b6101f3600435602435610bbd565b341561032d57600080fd5b6101f3600435600160a060020a0360243516610c00565b341561034f57600080fd5b6101f3600435602435610c60565b341561036857600080fd5b6101c6600435610ca3565b341561037e57600080fd5b610386610ce9565b604051600160a060020a03909116815260200160405180910390f35b34156103ad57600080fd5b6101c6600435610cf8565b34156103c357600080fd5b6101f360043560243560443560643560843560a43560c43560e43561010435610d3e565b34156103f257600080fd5b6101f3600435602435610d98565b341561040b57600080fd5b6101f3600435602435610ddb565b341561042457600080fd5b6101f3600160a060020a0360043516610e1e565b341561044357600080fd5b61044e600435610ea9565b604051600160a060020a03998a1681529790981660208801526040808801969096526060870194909452911515608086015260a085015260c0840152151560e083015261010082019290925261012001905180910390f35b34156104b157600080fd5b6101c6600435610fa8565b34156104c757600080fd5b6101c6610fee565b34156104da57600080fd5b6101f3600435602435611012565b34156104f357600080fd5b6101c6600435611055565b341561050957600080fd5b6101f360043560243561109b565b341561052257600080fd5b6103866004356110de565b341561053857600080fd5b61054360043561112b565b604051901515815260200160405180910390f35b341561056257600080fd5b61056d600435611172565b6040519215158352901515602083015215156040808301919091526060909101905180910390f35b34156105a057600080fd5b6101f3600435600160a060020a036024358116906044351660643560843560a435151560c43560e435610104351515610124356111d6565b34156105e357600080fd5b6101f36004356024351515611258565b34156105fe57600080fd5b6103866004356112a9565b341561061457600080fd5b6101c66004356112f3565b341561062a57600080fd5b6101c6600435611339565b6000805433600160a060020a0390811691161461065157600080fd5b600180548390811061065f57fe5b9060005260206000209060150201600001600301549050919050565b6000805433600160a060020a0390811691161461069757600080fd5b60018054849081106106a557fe5b60009182526020909120601590910201601401805460ff1916921515929092179091555050565b60005433600160a060020a039081169116146106e757600080fd5b806001838154811015156106f757fe5b600091825260209091206015909102018054600160a060020a031916600160a060020a03929092169190911790555050565b600080548190819081908190819081908190819033600160a060020a0390811691161461075557600080fd5b600180548b90811061076357fe5b9060005260206000209060150201600b01905061077f8161137f565b9850985098509850985098509850985050919395975091939597565b6000805481908190819033600160a060020a039081169116146107bd57600080fd5b60018054869081106107cb57fe5b6000918252602090912060159091020160088101546009820154600a90920154909760ff9092169650945092505050565b6000805433600160a060020a0390811691161461081857600080fd5b600180548082016108298382611465565b91600052602060002090601502016000608060405190810160405280600261010060405190810160409081528254600160a060020a0390811683526001840154166020808401919091526002840154828401526003840154606080850191909152600485015460ff90811615156080860152600586015460a0860152600686015460c0860152600790950154909416151560e08401529184529201916013919051908101604090815282548252600183015460ff16151560208084019190915260029093015481830152908352910190600a90610120905190810160409081528254825260018301546020808401919091526002840154918301919091526003830154606083015260048301546080830152600583015460a0830152600683015460c0830152600783015460e083015260089092015460ff1615156101008201528252600091015291905081518181518154600160a060020a031916600160a060020a03919091161781556020820151600182018054600160a060020a031916600160a060020a03929092169190911790556040820151816002015560608201518160030155608082015160048201805460ff191691151591909117905560a0820151600582015560c0820151816006015560e0820151600791909101805460ff19169115159190911790555060208201516008820181518155602082015160018201805460ff19169115159190911790556040820151816002015550506040820151600b8201815181556020820151600182015560408201516002820155606082015160038201556080820151600482015560a0820151600582015560c0820151600682015560e08201516007820155610100820151600891909101805460ff1916911515919091179055506060820151601491909101805460ff1916911515919091179055505060015460009011610ae4576000610aec565b600154600019015b905090565b60005433600160a060020a03908116911614610b0c57600080fd5b80600183815481101515610b1c57fe5b60009182526020909120600660159092020101555050565b6000805433600160a060020a03908116911614610b5057600080fd5b6001805483908110610b5e57fe5b9060005260206000209060150201600001600201549050919050565b60005433600160a060020a03908116911614610b9557600080fd5b80600183815481101515610ba557fe5b60009182526020909120600260159092020101555050565b60005433600160a060020a03908116911614610bd857600080fd5b80600183815481101515610be857fe5b60009182526020909120600360159092020101555050565b60005433600160a060020a03908116911614610c1b57600080fd5b80600183815481101515610c2b57fe5b600091825260209091206015909102016001018054600160a060020a031916600160a060020a03929092169190911790555050565b60005433600160a060020a03908116911614610c7b57600080fd5b80600183815481101515610c8b57fe5b60009182526020909120600860159092020101555050565b6000805433600160a060020a03908116911614610cbf57600080fd5b6001805483908110610ccd57fe5b9060005260206000209060150201600001600601549050919050565b600054600160a060020a031681565b6000805433600160a060020a03908116911614610d1457600080fd5b6001805483908110610d2257fe5b9060005260206000209060150201600b01600101549050919050565b6000805433600160a060020a03908116911614610d5a57600080fd5b600180548b908110610d6857fe5b9060005260206000209060150201600b019050610d8c818a8a8a8a8a8a8a8a6113af565b50505050505050505050565b60005433600160a060020a03908116911614610db357600080fd5b80600183815481101515610dc357fe5b60009182526020909120600c60159092020101555050565b60005433600160a060020a03908116911614610df657600080fd5b80600183815481101515610e0657fe5b60009182526020909120600560159092020101555050565b60005433600160a060020a03908116911614610e3957600080fd5b600160a060020a0381161515610e4e57600080fd5b60008054600160a060020a031916600160a060020a0383161790557f95fd54179c11867fb083dd94347ea50f144dd4cfd7612b7bca169f162824af1681604051600160a060020a03909116815260200160405180910390a150565b6000806000806000806000806000806000806000809054906101000a9004600160a060020a0316600160a060020a031633600160a060020a0316141515610eef57600080fd5b600180548e908110610efd57fe5b906000526020600020906015020192508260000191508260080190508160000160009054906101000a9004600160a060020a03169b508160010160009054906101000a9004600160a060020a03169a5081600201549950806000015498508060010160009054906101000a900460ff16975081600301549650806002015495508160040160009054906101000a900460ff169450816005015493505050509193959799909294969850565b6000805433600160a060020a03908116911614610fc457600080fd5b6001805483908110610fd257fe5b9060005260206000209060150201600801600001549050919050565b6000805433600160a060020a0390811691161461100a57600080fd5b506001545b90565b60005433600160a060020a0390811691161461102d57600080fd5b8060018381548110151561103d57fe5b60009182526020909120600b60159092020101555050565b6000805433600160a060020a0390811691161461107157600080fd5b600180548390811061107f57fe5b9060005260206000209060150201600801600201549050919050565b60005433600160a060020a039081169116146110b657600080fd5b806001838154811015156110c657fe5b60009182526020909120600a60159092020101555050565b6000805433600160a060020a039081169116146110fa57600080fd5b600180548390811061110857fe5b6000918252602090912060159091020160010154600160a060020a031692915050565b6000805433600160a060020a0390811691161461114757600080fd5b600180548390811061115557fe5b600091825260209091206015909102016004015460ff1692915050565b6000805481908190819033600160a060020a0390811691161461119457600080fd5b60018054869081106111a257fe5b600091825260209091206015909102016007810154601382015460149092015460ff91821698928216975016945092505050565b600080548190819033600160a060020a039081169116146111f657600080fd5b600180548e90811061120457fe5b9060005260206000209060150201925082600001915082600801905061122f828d8d8d8b8a8a6113f4565b6002810195909555505050938155600101805460ff191692151592909217909155505050505050565b60005433600160a060020a0390811691161461127357600080fd5b8060018381548110151561128357fe5b60009182526020909120601590910201600401805460ff19169115159190911790555050565b6000805433600160a060020a039081169116146112c557600080fd5b60018054839081106112d357fe5b6000918252602090912060159091020154600160a060020a031692915050565b6000805433600160a060020a0390811691161461130f57600080fd5b600180548390811061131d57fe5b9060005260206000209060150201600b01600001549050919050565b6000805433600160a060020a0390811691161461135557600080fd5b600180548390811061136357fe5b9060005260206000209060150201600001600501549050919050565b80546001820154600483015460028401546003850154600586015460068701546007880154919395975091939597565b9688556001808901969096556004880194909455600287019290925560038601556005850155600684015560078301919091556008909101805460ff19169091179055565b8654600160a060020a03968716600160a060020a0319918216178855600180890180549790981696909116959095179095556002860192909255600385015560048401805491151560ff19928316179055600584019290925560006006840155600790920180549091169091179055565b815481835581811511611491576015028160150283600052602060002091820191016114919190611496565b505050565b61100f91905b80821115611564578054600160a060020a0319908116825560018201805490911690556000600282018190556003820181905560048201805460ff199081169091556005830182905560068301829055600783018054821690556008830182905560098301805482169055600a8301829055600b8301829055600c8301829055600d8301829055600e8301829055600f83018290556010830182905560118301829055601283019190915560138201805482169055601482018054909116905560150161149c565b50905600a165627a7a72305820674beb3343cbfc5e6966f4cb6ebbb41652e00aea9a2951849c651595c77edda30029",
  "source": "// Copyright 2018 Energy Web Foundation\n//\n// This file is part of the Origin Application brought to you by the Energy Web Foundation,\n// a global non-profit organization focused on accelerating blockchain technology across the energy sector, \n// incorporated in Zug, Switzerland.\n//\n// The Origin Application is free software: you can redistribute it and/or modify\n// it under the terms of the GNU General Public License as published by\n// the Free Software Foundation, either version 3 of the License, or\n// (at your option) any later version.\n// This is distributed in the hope that it will be useful,\n// but WITHOUT ANY WARRANTY and without an implied warranty of\n// MERCHANTABILITY or FITNESS FOR A PARTICULAR PURPOSE.  See the\n// GNU General Public License for more details, at <http://www.gnu.org/licenses/>.\n//\n// @authors: slock.it GmbH, Martin Kuechler, martin.kuechler@slock.it\n\npragma solidity ^0.4.18;\n\nimport \"./Owned.sol\";\nimport \"./LocationDefinition.sol\";\nimport \"./AssetGeneralDefinition.sol\";\nimport \"./AssetDbInterface.sol\";\n\n/// @title The Database contract for the Asset Registration\n/// @notice This contract only provides getter and setter methods\ncontract AssetConsumingRegistryDB is Owned, AssetGeneralDefinition, AssetDbInterface {\n\n    struct ConsumingProperties {\n        uint capacityWh;\n        bool maxCapacitySet;\n        uint certificatesUsedForWh;\n    }\n\n    struct Asset {\n        GeneralInformation general;\n        ConsumingProperties consumingProps;\n        LocationDefinition.Location location;\n        bool exists;\n    }\n\n\n    /// @notice An array containing all registerd assets\n    Asset[] private assets;\n\n    /// @dev empty structs for initializing, used to avoid compile warnings\n    GeneralInformation generalEmpty;\n    LocationDefinition.Location locationEmpty;\n    ConsumingProperties consumingEmpty;\n\n    /// @notice Constructor\n    /// @param _owner The owner of the contract\n    function AssetConsumingRegistryDB(address _owner) \n        public\n        Owned(_owner) \n    {\n\n    } \n\n    /// @notice functin to create a new empty asset\n    /// @return returns the array-position and thus the index / identifier of this new asset\n    function createAsset() \n        external\n        onlyOwner\n        returns (uint _assetId)\n    {\n        assets.push(AssetConsumingRegistryDB.Asset({\n            general: generalEmpty,\n            consumingProps: consumingEmpty,\n            location: locationEmpty,\n            exists: false\n        }));\n        _assetId = assets.length>0?assets.length-1:0;        \n\n    }\n\n    /// @notice Sets the general information for an asset\n    /// @param _assetId The index / identifier for that asset\n    /// @param _smartMeter The address of the smart meter\n    /// @param _owner The address of the asset owner\n    /// @param _operationalSince The timestamp since the asset is operational\n    /// @param _capacityWh The capacity in Wh of the asset\n    /// @param _lastSmartMeterReadWh The smart meter read in Wh\n    /// @param _certificatesUsedForWh The amount of Wh used to issue certificates\n    /// @param _active true if active\n    /// @param _lastSmartMeterReadFileHash The last meter read file hash\n    function initGeneral (       \n            uint _assetId, \n            address _smartMeter,\n            address _owner,\n            uint _operationalSince,\n            uint _capacityWh,\n            bool _maxCapacitySet,\n            uint _lastSmartMeterReadWh,\n            uint _certificatesUsedForWh,\n            bool _active,\n            bytes32 _lastSmartMeterReadFileHash\n        ) \n        onlyOwner\n        external\n    {\n        Asset storage a = assets[_assetId];\n\n        GeneralInformation storage gi = a.general; \n        ConsumingProperties storage cp = a.consumingProps;\n        setGeneralInformationInternal(gi, _smartMeter, _owner, _operationalSince,_lastSmartMeterReadWh, _active, _lastSmartMeterReadFileHash);\n   \n        cp.certificatesUsedForWh = _certificatesUsedForWh;\n        cp.capacityWh = _capacityWh;\n        cp.maxCapacitySet = _maxCapacitySet;\n\n    }\n \n    /// @notice function to set all the location Informations for an asset\n    /// @param _assetId The identifier / index of an asset\n    /// @param _country The country where the asset is located\n    /// @param _region The region / state where the asset is located\n    /// @param _zip The zip-code of the region where the asset is located\n    /// @param _city The city where the asset is located\n    /// @param _street The streetname where the asset is located\n    /// @param _houseNumber the housenumber where the asset is located\n    /// @param _gpsLatitude The gps-latitude\n    /// @param _gpsLongitude The gps-longitude\n    function initLocation(\n        uint _assetId,\n        bytes32 _country,\n        bytes32 _region,\n        bytes32 _zip,\n        bytes32 _city,\n        bytes32 _street,\n        bytes32 _houseNumber,\n        bytes32 _gpsLatitude,\n        bytes32 _gpsLongitude\n    )\n        onlyOwner\n        external\n    {\n        LocationDefinition.Location storage loc = assets[_assetId].location;\n        initLocationInternal(loc,_country,_region,_zip,_city,_street,_houseNumber,_gpsLatitude,_gpsLongitude);\n    } \n \n    /// @notice Sets if an entry in the asset registry is active\n    /// @param _assetId The id belonging to an entry in the asset registry\n    /// @param _active true if active\n    function setActive(uint _assetId, bool _active) \n        onlyOwner\n        external\n    {\n        assets[_assetId].general.active = _active;\n    }\n\n    /// @notice function to set the existing status of an asset\n    /// @param _assetId The index position / identifier of an asset\n    /// @param _exist flag if the asset should exist\n    function setAssetExistStatus(uint _assetId, bool _exist)\n        external\n        onlyOwner\n    {\n        Asset storage a = assets[_assetId];\n        a.exists = _exist;\n    }\n\n\n    /// @notice Sets the capacity in Wh of an entry in the asset registry\n    /// @param _assetId The id belonging to an entry in the asset registry\n    /// @param _capacityWh The capacity in Wh\n    function setCapacityWh(uint _assetId, uint _capacityWh) \n        onlyOwner\n        external\n    {        \n        assets[_assetId].consumingProps.capacityWh = _capacityWh;\n    }\n\n    /// @notice Sets amount of Wh used to issue certificates belonging to an entry in the asset registry\n    /// @param _assetId The id belonging to an entry in the asset registry\n    /// @param _certificatesUsedForWh The amount of Wh used to issue certificates\n    function setCertificatesUsedForWh(uint _assetId, uint _certificatesUsedForWh) \n        onlyOwner\n        external\n    {\n        assets[_assetId].consumingProps.certificatesUsedForWh = _certificatesUsedForWh;\n    }\n\n    function setLastSmartMeterReadDate(uint _assetId, uint _timestamp)\n        onlyOwner\n        external\n    {\n        assets[_assetId].general.lastMeterReadReceived = _timestamp;\n    }\n\n    /// @notice Sets last meter read file hash\n    /// @param _assetId The id belonging to an entry in the asset registry\n    /// @param _lastSmartMeterReadFileHash Last meter read file hash\n    function setLastSmartMeterReadFileHash(uint _assetId, bytes32 _lastSmartMeterReadFileHash)\n        onlyOwner\n        external\n    {\n        assets[_assetId].general.lastSmartMeterReadFileHash = _lastSmartMeterReadFileHash;\n    }\n\n    /// @notice Sets the last smart meter read in Wh of an entry in the asset registry\n    /// @param _assetId The id belonging to an entry in the asset registry\n    /// @param _lastSmartMeterReadWh The smart meter read in Wh\n    function setLastSmartMeterReadWh(uint _assetId, uint _lastSmartMeterReadWh) \n        onlyOwner\n        external\n    {\n        assets[_assetId].general.lastSmartMeterReadWh = _lastSmartMeterReadWh;\n    }\n\n    /// @notice Sets the location-country of an asset\n    /// @param _assetId the id belonging to an entry in the asset registry\n    /// @param _country the new country\n    function setLocationCountry(uint _assetId, bytes32 _country)\n        onlyOwner\n        external\n    {\n        assets[_assetId].location.country = _country;\n    }\n\n    /// @notice Sets the location-region of an asset\n    /// @param _assetId the id belonging to an entry in the asset registry\n    /// @param _region the new region\n    function setLocationRegion(uint _assetId, bytes32 _region)\n        onlyOwner\n        external\n    {\n        assets[_assetId].location.region = _region;\n    }\n    \n    /// @notice Sets the operational since field of an entry in the asset registry\n    /// @param _assetId The id belonging to an entry in the asset registry\n    /// @param _operationalSince The timestamp since the asset is operational\n    function setOperationalSince(uint _assetId, uint _operationalSince) \n        onlyOwner\n        external\n    {\n        assets[_assetId].general.operationalSince = _operationalSince;\n    }\n\n    /// @notice Sets the owner of an entry in the asset registry\n    /// @param _assetId The id belonging to an entry in the asset registry\n    /// @param _owner The new owner\n    function setOwner(uint _assetId, address _owner) \n        onlyOwner\n        external\n    {\n        assets[_assetId].general.owner = _owner;\n    }\n\n    /// @notice Sets the smart meter address belonging to an entry in the asset registry\n    /// @param _assetId The id belonging to an entry in the asset registry\n    /// @param _smartMeter The new smart meter address\n    function setSmartMeter(uint _assetId, address _smartMeter) \n        onlyOwner\n        external\n    {\n        assets[_assetId].general.smartMeter = _smartMeter;\n    }\n    \n    /// @notice Gets if an entry in the asset registry is active\n    /// @param _assetId The id belonging to an entry in the asset registry\n    /// @return true if asset is active\n    function getActive(uint _assetId) \n        onlyOwner\n        external\n        view\n        returns(bool)\n    {\n        return assets[_assetId].general.active;\n    }\n\n    /// @notice Gets the general information of an asset\n    /// @param _assetId The id belonging to an entry in the asset registry\n    /// @return general information of an asset\n    function getAssetGeneral(uint _assetId) \n        onlyOwner\n        external\n        view\n        returns(\n            address _smartMeter,\n            address _owner,\n            uint _operationalSince,\n            uint _capacityWh,\n            bool _maxCapacitySet,\n            uint _lastSmartMeterReadWh,\n            uint _certificatesUsedForWh,\n            bool _active,\n            bytes32 _lastSmartMeterReadFileHash\n            )\n    {\n        Asset storage asset = assets[_assetId];\n        GeneralInformation storage gi = asset.general;\n        ConsumingProperties storage cp = asset.consumingProps;\n\n        _smartMeter = gi.smartMeter;\n        _owner = gi.owner;\n        _operationalSince = gi.operationalSince;\n        _capacityWh = cp.capacityWh;\n        _maxCapacitySet = cp.maxCapacitySet;\n        _lastSmartMeterReadWh = gi.lastSmartMeterReadWh;\n        _certificatesUsedForWh = cp.certificatesUsedForWh;\n        _active = gi.active;\n        _lastSmartMeterReadFileHash = gi.lastSmartMeterReadFileHash;\n    }\n\n    /// @notice function to get the amount of assets\n    /// @return amount of assets\n    function getAssetListLength()\n        external\n        view\n        onlyOwner \n        returns (uint)\n    {\n        return assets.length;\n    }\n\n     /// @notice function to get the informations about the location of a struct\n    /// @param _assetId The id belonging to an entry in the asset registry\n    /// @return country, region, zip, city, street, houseNumber, gpsLatitude, gpsLongitude\n    function getAssetLocation(uint _assetId)\n        onlyOwner\n        external\n        view\n        returns(\n            bytes32 country,\n            bytes32 region,\n            bytes32 zip,\n            bytes32 city,\n            bytes32 street,\n            bytes32 houseNumber,\n            bytes32 gpsLatitude,\n            bytes32 gpsLongitude\n        )\n    {\n        LocationDefinition.Location storage loc = assets[_assetId].location;\n        return getAssetLocationInternal(loc);\n    } \n\n    /// @notice Gets the capacity in Wh of an entry in the asset registry\n    /// @param _assetId The id belonging to an entry in the asset registry\n    /// @return the capacity in Wh\n    function getCapacityWh(uint _assetId)\n        onlyOwner\n        external\n        view\n        returns(uint)\n    {\n        return assets[_assetId].consumingProps.capacityWh;\n    }\n\n    /// @notice Gets amount of Wh used to issue certificates belonging to an entry in the asset registry\n    /// @param _assetId The id belonging to an entry in the asset registry\n    /// @return the amount of Wh used to issue certificates\n    function getCertificatesUsedForWh(uint _assetId)\n        onlyOwner\n        external\n        view\n        returns(uint)\n    {\n        return assets[_assetId].consumingProps.certificatesUsedForWh;\n    }\n\n    /// @notice gets the consuming properties of an asset\n    /// @param _assetId the id belonging to an entry in the asset registry\n    /// @return the consuming properteis\n    function getConsumingProperies(uint _assetId) \n        onlyOwner\n        external\n        view\n        returns (\n            uint _capacityWh,\n            bool _maxCapacitySet,\n            uint _certificatesUsedForWh\n        )\n    {\n        ConsumingProperties storage c = assets[_assetId].consumingProps;\n        _capacityWh = c.capacityWh;\n        _maxCapacitySet = c.maxCapacitySet;\n        _certificatesUsedForWh = c.certificatesUsedForWh;\n    }\n\n    /// @notice function the retrieve the existing status of the general information, the location information and the asset itself\n    /// @param _assetId The index position / identifier of the asset\n    /// @return existing status of the general informaiton, existing status of the location informaiton and where the asset-structs exists\n    function getExistStatus(uint _assetId)\n        onlyOwner\n        external \n        view\n        returns (bool general, bool location, bool asset)\n    {\n        Asset storage a = assets[_assetId];\n        return(a.general.exists, a.location.exists, a.exists);\n    }\n\n    /// @notice function to retrieve the last smartmeter-reading of an asset\n    /// @param _assetId the asset-id\n    /// @return the last smartmeter-reading\n    function getLastSmartMeterRead(uint _assetId) \n        onlyOwner\n        external \n        returns (uint)\n    {\n        return assets[_assetId].general.lastSmartMeterReadWh;\n    }\n\n    /// @notice function to retrieve the timestamp of the last smartmeter-reading\n    /// @param _assetId the asset-id\n    /// @return the timestamp of the last smartmeter-reading\n    function getLastSmartMeterReadDate(uint _assetId)\n        onlyOwner\n        external\n        returns(uint)\n    {\n        return assets[_assetId].general.lastMeterReadReceived;\n    }\n    \n    /// @notice Gets last smart merter read file hash\n    /// @param _assetId The id belonging to an entry in the asset registry\n    /// @return last smart merter read file hash\n    function getLastSmartMeterReadFileHash(uint _assetId)\n        onlyOwner\n        external\n        view\n        returns(bytes32)\n    {\n        return assets[_assetId].general.lastSmartMeterReadFileHash;\n    }\n    \n    /// @notice Gets the last smart merter read in Wh of an entry in the asset registry\n    /// @param _assetId The id belonging to an entry in the asset registry\n    /// @return the last loged smart meter read in Wh\n    function getLastSmartMeterReadWh(uint _assetId)\n        onlyOwner\n        external\n        view\n        returns(uint)\n    {\n        return assets[_assetId].general.lastSmartMeterReadWh;\n    }\n\n    /// @notice Gets the location country of an asset\n    /// @param _assetId the id belonging to an entry in the asset registry\n    /// @return country where the asset is based\n    function getLocationCountry(uint _assetId)\n        onlyOwner\n        external\n        view \n        returns(bytes32)\n    {\n        return assets[_assetId].location.country;\n    }\n\n    /// @notice Gets the location region of an asset\n    /// @param _assetId the id belonging to an entry in the asset registry\n    /// @return region of the country where the asset is based\n    function getLocationRegion(uint _assetId)\n        onlyOwner\n        external\n        constant\n        returns(bytes32)\n    {\n        return assets[_assetId].location.region;\n    }\n\n    /// @notice Gets the operational since field of an entry in the asset registry\n    /// @param _assetId The id belonging to an entry in the asset registry\n    function getOperationalSince(uint _assetId)\n        onlyOwner\n        external\n        constant\n        returns(uint)\n    {\n        return assets[_assetId].general.operationalSince;\n    }\n\n    /// @notice Gets the owner of an entry in the asset registry\n    /// @param _assetId The id belonging to an entry in the asset registry\n    /// @return the owner address\n    function getOwner(uint _assetId) \n        onlyOwner\n        external\n        constant\n        returns(address)\n    {\n        return assets[_assetId].general.owner;\n    }\n\n    /// @notice Gets the smart meter address belonging to an entry in the asset registry\n    /// @param _assetId The id belonging to an entry in the asset registry\n    /// @return the smart meter address\n    function getSmartMeter(uint _assetId)\n        onlyOwner\n        external\n        constant\n        returns(address)\n    {\n        return assets[_assetId].general.smartMeter;\n    }\n    \n}",
  "sourcePath": "/Users/mkuechler/ewf/ewf-pushrepo/certificate_of_origin/contracts/AssetConsumingRegistryDB.sol",
  "compiler": {
    "name": "solc",
    "version": "0.4.19+commit.c4cbbb05.Emscripten.clang"
  },
  "schemaVersion": "2.0.0",
  "updatedAt": "2018-04-05T14:15:26.892Z"
}