{
  "contractName": "AssetProducingRegistryDB",
  "abi": [
    {
      "constant": true,
      "inputs": [],
      "name": "owner",
      "outputs": [
        {
          "name": "",
          "type": "address"
        }
      ],
      "payable": false,
      "stateMutability": "view",
      "type": "function"
    },
    {
      "constant": false,
      "inputs": [
        {
          "name": "_newOwner",
          "type": "address"
        }
      ],
      "name": "changeOwner",
      "outputs": [],
      "payable": false,
      "stateMutability": "nonpayable",
      "type": "function"
    },
    {
      "inputs": [
        {
          "name": "_owner",
          "type": "address"
        }
      ],
      "payable": false,
      "stateMutability": "nonpayable",
      "type": "constructor"
    },
    {
      "anonymous": false,
      "inputs": [
        {
          "indexed": false,
          "name": "_newOwner",
          "type": "address"
        }
      ],
      "name": "LogChangeOwner",
      "type": "event"
    },
    {
      "constant": false,
      "inputs": [],
      "name": "createAsset",
      "outputs": [
        {
          "name": "_assetId",
          "type": "uint256"
        }
      ],
      "payable": false,
      "stateMutability": "nonpayable",
      "type": "function"
    },
    {
      "constant": false,
      "inputs": [
        {
          "name": "_assetId",
          "type": "uint256"
        },
        {
          "name": "_smartMeter",
          "type": "address"
        },
        {
          "name": "_owner",
          "type": "address"
        },
        {
          "name": "_operationalSince",
          "type": "uint256"
        },
        {
          "name": "_lastSmartMeterReadWh",
          "type": "uint256"
        },
        {
          "name": "_active",
          "type": "bool"
        },
        {
          "name": "_lastSmartMeterReadFileHash",
          "type": "bytes32"
        }
      ],
      "name": "initGeneral",
      "outputs": [],
      "payable": false,
      "stateMutability": "nonpayable",
      "type": "function"
    },
    {
      "constant": false,
      "inputs": [
        {
          "name": "_assetId",
          "type": "uint256"
        },
        {
          "name": "_assetType",
          "type": "uint256"
        },
        {
          "name": "_lastSmartMeterCO2OffsetRead",
          "type": "uint256"
        },
        {
          "name": "_cO2UsedForCertificate",
          "type": "uint256"
        },
        {
          "name": "_capacityWh",
          "type": "uint256"
        },
        {
          "name": "_certificatesCreatedForWh",
          "type": "uint256"
        },
        {
          "name": "_registryCompliance",
          "type": "uint256"
        },
        {
          "name": "_otherGreenAttributes",
          "type": "bytes32"
        },
        {
          "name": "_typeOfPublicSupport",
          "type": "bytes32"
        }
      ],
      "name": "initProducing",
      "outputs": [],
      "payable": false,
      "stateMutability": "nonpayable",
      "type": "function"
    },
    {
      "constant": false,
      "inputs": [
        {
          "name": "_assetId",
          "type": "uint256"
        },
        {
          "name": "_country",
          "type": "bytes32"
        },
        {
          "name": "_region",
          "type": "bytes32"
        },
        {
          "name": "_zip",
          "type": "bytes32"
        },
        {
          "name": "_city",
          "type": "bytes32"
        },
        {
          "name": "_street",
          "type": "bytes32"
        },
        {
          "name": "_houseNumber",
          "type": "bytes32"
        },
        {
          "name": "_gpsLatitude",
          "type": "bytes32"
        },
        {
          "name": "_gpsLongitude",
          "type": "bytes32"
        }
      ],
      "name": "initLocation",
      "outputs": [],
      "payable": false,
      "stateMutability": "nonpayable",
      "type": "function"
    },
    {
      "constant": false,
      "inputs": [
        {
          "name": "_assetId",
          "type": "uint256"
        },
        {
          "name": "_active",
          "type": "bool"
        }
      ],
      "name": "setActive",
      "outputs": [],
      "payable": false,
      "stateMutability": "nonpayable",
      "type": "function"
    },
    {
      "constant": false,
      "inputs": [
        {
          "name": "_assetId",
          "type": "uint256"
        },
        {
          "name": "_exist",
          "type": "bool"
        }
      ],
      "name": "setAssetExistStatus",
      "outputs": [],
      "payable": false,
      "stateMutability": "nonpayable",
      "type": "function"
    },
    {
      "constant": false,
      "inputs": [
        {
          "name": "_assetId",
          "type": "uint256"
        },
        {
          "name": "_assetType",
          "type": "uint256"
        }
      ],
      "name": "setAssetType",
      "outputs": [],
      "payable": false,
      "stateMutability": "nonpayable",
      "type": "function"
    },
    {
      "constant": false,
      "inputs": [
        {
          "name": "_assetId",
          "type": "uint256"
        },
        {
          "name": "_capacityWh",
          "type": "uint256"
        }
      ],
      "name": "setCapacityWh",
      "outputs": [],
      "payable": false,
      "stateMutability": "nonpayable",
      "type": "function"
    },
    {
      "constant": false,
      "inputs": [
        {
          "name": "_assetId",
          "type": "uint256"
        },
        {
          "name": "_certificatesCreatedForWh",
          "type": "uint256"
        }
      ],
      "name": "setCertificatesCreatedForWh",
      "outputs": [],
      "payable": false,
      "stateMutability": "nonpayable",
      "type": "function"
    },
    {
      "constant": false,
      "inputs": [
        {
          "name": "_assetId",
          "type": "uint256"
        },
        {
          "name": "_used",
          "type": "uint256"
        }
      ],
      "name": "setCO2UsedForCertificate",
      "outputs": [],
      "payable": false,
      "stateMutability": "nonpayable",
      "type": "function"
    },
    {
      "constant": false,
      "inputs": [
        {
          "name": "_assetId",
          "type": "uint256"
        },
        {
          "name": "_lastCO2OffsetReading",
          "type": "uint256"
        }
      ],
      "name": "setLastCO2OffsetReading",
      "outputs": [],
      "payable": false,
      "stateMutability": "nonpayable",
      "type": "function"
    },
    {
      "constant": false,
      "inputs": [
        {
          "name": "_assetId",
          "type": "uint256"
        },
        {
          "name": "_timestamp",
          "type": "uint256"
        }
      ],
      "name": "setLastSmartMeterReadDate",
      "outputs": [],
      "payable": false,
      "stateMutability": "nonpayable",
      "type": "function"
    },
    {
      "constant": false,
      "inputs": [
        {
          "name": "_assetId",
          "type": "uint256"
        },
        {
          "name": "_lastSmartMeterReadFileHash",
          "type": "bytes32"
        }
      ],
      "name": "setLastSmartMeterReadFileHash",
      "outputs": [],
      "payable": false,
      "stateMutability": "nonpayable",
      "type": "function"
    },
    {
      "constant": false,
      "inputs": [
        {
          "name": "_assetId",
          "type": "uint256"
        },
        {
          "name": "_lastSmartMeterReadWh",
          "type": "uint256"
        }
      ],
      "name": "setLastSmartMeterReadWh",
      "outputs": [],
      "payable": false,
      "stateMutability": "nonpayable",
      "type": "function"
    },
    {
      "constant": false,
      "inputs": [
        {
          "name": "_assetId",
          "type": "uint256"
        },
        {
          "name": "_country",
          "type": "bytes32"
        }
      ],
      "name": "setLocationCountry",
      "outputs": [],
      "payable": false,
      "stateMutability": "nonpayable",
      "type": "function"
    },
    {
      "constant": false,
      "inputs": [
        {
          "name": "_assetId",
          "type": "uint256"
        },
        {
          "name": "_region",
          "type": "bytes32"
        }
      ],
      "name": "setLocationRegion",
      "outputs": [],
      "payable": false,
      "stateMutability": "nonpayable",
      "type": "function"
    },
    {
      "constant": false,
      "inputs": [
        {
          "name": "_assetId",
          "type": "uint256"
        },
        {
          "name": "_operationalSince",
          "type": "uint256"
        }
      ],
      "name": "setOperationalSince",
      "outputs": [],
      "payable": false,
      "stateMutability": "nonpayable",
      "type": "function"
    },
    {
      "constant": false,
      "inputs": [
        {
          "name": "_assetId",
          "type": "uint256"
        },
        {
          "name": "_owner",
          "type": "address"
        }
      ],
      "name": "setOwner",
      "outputs": [],
      "payable": false,
      "stateMutability": "nonpayable",
      "type": "function"
    },
    {
      "constant": false,
      "inputs": [
        {
          "name": "_assetId",
          "type": "uint256"
        },
        {
          "name": "_smartMeter",
          "type": "address"
        }
      ],
      "name": "setSmartMeter",
      "outputs": [],
      "payable": false,
      "stateMutability": "nonpayable",
      "type": "function"
    },
    {
      "constant": true,
      "inputs": [
        {
          "name": "_assetId",
          "type": "uint256"
        }
      ],
      "name": "getActive",
      "outputs": [
        {
          "name": "",
          "type": "bool"
        }
      ],
      "payable": false,
      "stateMutability": "view",
      "type": "function"
    },
    {
      "constant": true,
      "inputs": [
        {
          "name": "_assetId",
          "type": "uint256"
        }
      ],
      "name": "getAssetGeneral",
      "outputs": [
        {
          "name": "_smartMeter",
          "type": "address"
        },
        {
          "name": "_owner",
          "type": "address"
        },
        {
          "name": "_operationalSince",
          "type": "uint256"
        },
        {
          "name": "_lastSmartMeterReadWh",
          "type": "uint256"
        },
        {
          "name": "_active",
          "type": "bool"
        },
        {
          "name": "_lastSmartMeterReadFileHash",
          "type": "bytes32"
        }
      ],
      "payable": false,
      "stateMutability": "view",
      "type": "function"
    },
    {
      "constant": true,
      "inputs": [],
      "name": "getAssetListLength",
      "outputs": [
        {
          "name": "",
          "type": "uint256"
        }
      ],
      "payable": false,
      "stateMutability": "view",
      "type": "function"
    },
    {
      "constant": true,
      "inputs": [
        {
          "name": "_assetId",
          "type": "uint256"
        }
      ],
      "name": "getAssetLocation",
      "outputs": [
        {
          "name": "country",
          "type": "bytes32"
        },
        {
          "name": "region",
          "type": "bytes32"
        },
        {
          "name": "zip",
          "type": "bytes32"
        },
        {
          "name": "city",
          "type": "bytes32"
        },
        {
          "name": "street",
          "type": "bytes32"
        },
        {
          "name": "houseNumber",
          "type": "bytes32"
        },
        {
          "name": "gpsLatitude",
          "type": "bytes32"
        },
        {
          "name": "gpsLongitude",
          "type": "bytes32"
        }
      ],
      "payable": false,
      "stateMutability": "view",
      "type": "function"
    },
    {
      "constant": true,
      "inputs": [
        {
          "name": "_assetId",
          "type": "uint256"
        }
      ],
      "name": "getAssetProducingProperties",
      "outputs": [
        {
          "name": "assetType",
          "type": "uint256"
        },
        {
          "name": "capacityWh",
          "type": "uint256"
        },
        {
          "name": "certificatesCreatedForWh",
          "type": "uint256"
        },
        {
          "name": "lastSmartMeterCO2OffsetRead",
          "type": "uint256"
        },
        {
          "name": "cO2UsedForCertificate",
          "type": "uint256"
        },
        {
          "name": "registryCompliance",
          "type": "uint256"
        },
        {
          "name": "otherGreenAttributes",
          "type": "bytes32"
        },
        {
          "name": "typeOfPublicSupport",
          "type": "bytes32"
        }
      ],
      "payable": false,
      "stateMutability": "view",
      "type": "function"
    },
    {
      "constant": true,
      "inputs": [
        {
          "name": "_assetId",
          "type": "uint256"
        }
      ],
      "name": "getAssetType",
      "outputs": [
        {
          "name": "",
          "type": "uint256"
        }
      ],
      "payable": false,
      "stateMutability": "view",
      "type": "function"
    },
    {
      "constant": true,
      "inputs": [
        {
          "name": "_assetId",
          "type": "uint256"
        }
      ],
      "name": "getCapacityWh",
      "outputs": [
        {
          "name": "",
          "type": "uint256"
        }
      ],
      "payable": false,
      "stateMutability": "view",
      "type": "function"
    },
    {
      "constant": true,
      "inputs": [
        {
          "name": "_assetId",
          "type": "uint256"
        }
      ],
      "name": "getCertificatesCreatedForWh",
      "outputs": [
        {
          "name": "",
          "type": "uint256"
        }
      ],
      "payable": false,
      "stateMutability": "view",
      "type": "function"
    },
    {
      "constant": true,
      "inputs": [
        {
          "name": "_assetId",
          "type": "uint256"
        }
      ],
      "name": "getCo2UsedForCertificate",
      "outputs": [
        {
          "name": "",
          "type": "uint256"
        }
      ],
      "payable": false,
      "stateMutability": "view",
      "type": "function"
    },
    {
      "constant": true,
      "inputs": [
        {
          "name": "_assetId",
          "type": "uint256"
        }
      ],
      "name": "getExistStatus",
      "outputs": [
        {
          "name": "general",
          "type": "bool"
        },
        {
          "name": "location",
          "type": "bool"
        },
        {
          "name": "asset",
          "type": "bool"
        }
      ],
      "payable": false,
      "stateMutability": "view",
      "type": "function"
    },
    {
      "constant": false,
      "inputs": [
        {
          "name": "_assetId",
          "type": "uint256"
        }
      ],
      "name": "getLastSmartMeterRead",
      "outputs": [
        {
          "name": "",
          "type": "uint256"
        }
      ],
      "payable": false,
      "stateMutability": "nonpayable",
      "type": "function"
    },
    {
      "constant": true,
      "inputs": [
        {
          "name": "_assetId",
          "type": "uint256"
        }
      ],
      "name": "getlastSmartMeterCO2OffsetRead",
      "outputs": [
        {
          "name": "",
          "type": "uint256"
        }
      ],
      "payable": false,
      "stateMutability": "view",
      "type": "function"
    },
    {
      "constant": false,
      "inputs": [
        {
          "name": "_assetId",
          "type": "uint256"
        }
      ],
      "name": "getLastSmartMeterReadDate",
      "outputs": [
        {
          "name": "",
          "type": "uint256"
        }
      ],
      "payable": false,
      "stateMutability": "nonpayable",
      "type": "function"
    },
    {
      "constant": true,
      "inputs": [
        {
          "name": "_assetId",
          "type": "uint256"
        }
      ],
      "name": "getLastSmartMeterReadFileHash",
      "outputs": [
        {
          "name": "",
          "type": "bytes32"
        }
      ],
      "payable": false,
      "stateMutability": "view",
      "type": "function"
    },
    {
      "constant": true,
      "inputs": [
        {
          "name": "_assetId",
          "type": "uint256"
        }
      ],
      "name": "getLastSmartMeterReadWh",
      "outputs": [
        {
          "name": "",
          "type": "uint256"
        }
      ],
      "payable": false,
      "stateMutability": "view",
      "type": "function"
    },
    {
      "constant": true,
      "inputs": [
        {
          "name": "_assetId",
          "type": "uint256"
        }
      ],
      "name": "getLocationCountry",
      "outputs": [
        {
          "name": "",
          "type": "bytes32"
        }
      ],
      "payable": false,
      "stateMutability": "view",
      "type": "function"
    },
    {
      "constant": true,
      "inputs": [
        {
          "name": "_assetId",
          "type": "uint256"
        }
      ],
      "name": "getLocationRegion",
      "outputs": [
        {
          "name": "",
          "type": "bytes32"
        }
      ],
      "payable": false,
      "stateMutability": "view",
      "type": "function"
    },
    {
      "constant": true,
      "inputs": [
        {
          "name": "_assetId",
          "type": "uint256"
        }
      ],
      "name": "getOperationalSince",
      "outputs": [
        {
          "name": "",
          "type": "uint256"
        }
      ],
      "payable": false,
      "stateMutability": "view",
      "type": "function"
    },
    {
      "constant": true,
      "inputs": [
        {
          "name": "_assetId",
          "type": "uint256"
        }
      ],
      "name": "getOwner",
      "outputs": [
        {
          "name": "",
          "type": "address"
        }
      ],
      "payable": false,
      "stateMutability": "view",
      "type": "function"
    },
    {
      "constant": true,
      "inputs": [
        {
          "name": "_assetId",
          "type": "uint256"
        }
      ],
      "name": "getSmartMeter",
      "outputs": [
        {
          "name": "",
          "type": "address"
        }
      ],
      "payable": false,
      "stateMutability": "view",
      "type": "function"
    }
  ],
  "bytecode": "0x6060604052341561000f57600080fd5b6040516020806118ea8339810160405280805160008054600160a060020a03909216600160a060020a03199092169190911790555050611896806100546000396000f3006060604052600436106101f85763ffffffff7c01000000000000000000000000000000000000000000000000000000006000350416630216a13881146101fd578063042157c214610235578063054dddde1461025d5780630ff85b94146102785780631314394d1461029a57806331a5daf3146102f7578063353fc6c31461030a57806336016d7114610320578063437992c8146102355780634694cc43146103395780634f9d76151461034f57806350ddca551461036557806351f192981461037e57806357c3bc60146103975780637b5d3d3e146103b05780637fd39247146103c6578063830be6e9146103e857806384487d8114610401578063883583ce146104305780638c26afa6146104465780638da5cb5b1461045c5780639346e7c51461048b57806398766e8a146104a15780639963aece146104ba5780639a4b8c0d146104e9578063a12df750146104ff578063a60b6fdc14610518578063a6f9dae114610531578063ade1e99214610550578063adfe021b146105aa578063ae51439c146105c0578063af55ac28146105d3578063c41a360a146105ec578063c53fb1a514610602578063c6bc1a761461062c578063d91521d51461066a578063e60a955d14610683578063ed9c058b1461069e578063f1d03e93146106b4578063f7105c05146106ca578063fc56a99c146106e0575b600080fd5b341561020857600080fd5b610233600435600160a060020a036024358116906044351660643560843560a435151560c4356106f9565b005b341561024057600080fd5b61024b60043561074f565b60405190815260200160405180910390f35b341561026857600080fd5b6102336004356024351515610795565b341561028357600080fd5b610233600435600160a060020a03602435166107e6565b34156102a557600080fd5b6102b0600435610843565b60405197885260208801969096526040808801959095526060870193909352608086019190915260a085015260c084015260e0830191909152610100909101905180910390f35b341561030257600080fd5b61024b6108b5565b341561031557600080fd5b61024b600435610bfa565b341561032b57600080fd5b610233600435602435610c40565b341561034457600080fd5b61024b600435610c83565b341561035a57600080fd5b61024b600435610cc9565b341561037057600080fd5b610233600435602435610d0f565b341561038957600080fd5b610233600435602435610d52565b34156103a257600080fd5b610233600435602435610d95565b34156103bb57600080fd5b61024b600435610dd8565b34156103d157600080fd5b610233600435600160a060020a0360243516610e1e565b34156103f357600080fd5b610233600435602435610e7e565b341561040c57600080fd5b61023360043560243560443560643560843560a43560c43560e43561010435610ec1565b341561043b57600080fd5b6102b0600435610f37565b341561045157600080fd5b61024b600435610fe3565b341561046757600080fd5b61046f611029565b604051600160a060020a03909116815260200160405180910390f35b341561049657600080fd5b61024b600435611038565b34156104ac57600080fd5b61023360043560243561107e565b34156104c557600080fd5b61023360043560243560443560643560843560a43560c43560e435610104356110c1565b34156104f457600080fd5b61024b60043561111b565b341561050a57600080fd5b610233600435602435611161565b341561052357600080fd5b6102336004356024356111a4565b341561053c57600080fd5b610233600160a060020a03600435166111e7565b341561055b57600080fd5b610566600435611272565b604051600160a060020a03968716815294909516602085015260408085019390935260608401919091521515608083015260a082019290925260c001905180910390f35b34156105b557600080fd5b61024b6004356112fa565b34156105cb57600080fd5b61024b611340565b34156105de57600080fd5b610233600435602435611364565b34156105f757600080fd5b61046f6004356113a7565b341561060d57600080fd5b6106186004356113f4565b604051901515815260200160405180910390f35b341561063757600080fd5b61064260043561143b565b6040519215158352901515602083015215156040808301919091526060909101905180910390f35b341561067557600080fd5b6102336004356024356114b4565b341561068e57600080fd5b61023360043560243515156114f7565b34156106a957600080fd5b61046f600435611548565b34156106bf57600080fd5b61024b600435611592565b34156106d557600080fd5b61024b6004356115d8565b34156106eb57600080fd5b61023360043560243561161e565b6000805433600160a060020a0390811691161461071557600080fd5b600180548990811061072357fe5b90600052602060002090601a0201905061074581600001888888888888611661565b5050505050505050565b6000805433600160a060020a0390811691161461076b57600080fd5b600180548390811061077957fe5b90600052602060002090601a0201600001600301549050919050565b6000805433600160a060020a039081169116146107b157600080fd5b60018054849081106107bf57fe5b60009182526020909120601a90910201601901805460ff1916921515929092179091555050565b60005433600160a060020a0390811691161461080157600080fd5b8060018381548110151561081157fe5b60009182526020909120601a909102018054600160a060020a031916600160a060020a03929092169190911790555050565b600080548190819081908190819081908190819033600160a060020a0390811691161461086f57600080fd5b600180548b90811061087d57fe5b90600052602060002090601a02016010019050610899816116d2565b9850985098509850985098509850985050919395975091939597565b6000805433600160a060020a039081169116146108d157600080fd5b600180548082016108e28382611747565b91600052602060002090601a02016000608060405190810160405280600261010060405190810160409081528254600160a060020a03908116835260018401541660208084019190915260028401548284015260038401546060840152600484015460ff90811615156080850152600585015460a0850152600685015460c0850152600790940154909316151560e0830152908352910190601390610100905190810160409081528254825260018301546020808401919091526002840154828401526003840154606084015260048401546080840152600584015460a0840152600684015460c084015260079093015460e0830152908352910190600a90610120905190810160409081528254825260018301546020808401919091526002840154918301919091526003830154606083015260048301546080830152600583015460a0830152600683015460c0830152600783015460e083015260089092015460ff1615156101008201528252600091015291905081518181518154600160a060020a031916600160a060020a03919091161781556020820151600182018054600160a060020a031916600160a060020a03929092169190911790556040820151816002015560608201518160030155608082015160048201805460ff191691151591909117905560a0820151600582015560c0820151816006015560e0820151600791909101805460ff191691151591909117905550602082015160088201815181556020820151816001015560408201518160020155606082015181600301556080820151816004015560a0820151816005015560c0820151600682015560e082015160079091015550604082015160108201815181556020820151600182015560408201516002820155606082015160038201556080820151600482015560a0820151600582015560c0820151600682015560e08201516007820155610100820151600891909101805460ff1916911515919091179055506060820151601991909101805460ff1916911515919091179055505060015460009011610bed576000610bf5565b600154600019015b905090565b6000805433600160a060020a03908116911614610c1657600080fd5b6001805483908110610c2457fe5b90600052602060002090601a0201600801600201549050919050565b60005433600160a060020a03908116911614610c5b57600080fd5b80600183815481101515610c6b57fe5b600091825260209091206006601a9092020101555050565b6000805433600160a060020a03908116911614610c9f57600080fd5b6001805483908110610cad57fe5b90600052602060002090601a0201600001600201549050919050565b6000805433600160a060020a03908116911614610ce557600080fd5b6001805483908110610cf357fe5b90600052602060002090601a0201600801600301549050919050565b60005433600160a060020a03908116911614610d2a57600080fd5b80600183815481101515610d3a57fe5b60009182526020909120600c601a9092020101555050565b60005433600160a060020a03908116911614610d6d57600080fd5b80600183815481101515610d7d57fe5b600091825260209091206002601a9092020101555050565b60005433600160a060020a03908116911614610db057600080fd5b80600183815481101515610dc057fe5b600091825260209091206003601a9092020101555050565b6000805433600160a060020a03908116911614610df457600080fd5b6001805483908110610e0257fe5b90600052602060002090601a0201600801600401549050919050565b60005433600160a060020a03908116911614610e3957600080fd5b80600183815481101515610e4957fe5b60009182526020909120601a909102016001018054600160a060020a031916600160a060020a03929092169190911790555050565b60005433600160a060020a03908116911614610e9957600080fd5b80600183815481101515610ea957fe5b600091825260209091206009601a9092020101555050565b6000805433600160a060020a03908116911614610edd57600080fd5b600180548b908110610eeb57fe5b60009182526020909120601a90910201600881019990995550600b880196909655600c870194909455600a8601919091556009850191909155600d840155600e830155600f9091015550565b6000806000806000806000806000806000809054906101000a9004600160a060020a0316600160a060020a031633600160a060020a0316141515610f7a57600080fd5b600180548c908110610f8857fe5b90600052602060002090601a0201915081600801905080600001549950806001015498508060020154975080600301549650806004015495508060050154945080600601549350806007015492505050919395975091939597565b6000805433600160a060020a03908116911614610fff57600080fd5b600180548390811061100d57fe5b90600052602060002090601a0201600001600601549050919050565b600054600160a060020a031681565b6000805433600160a060020a0390811691161461105457600080fd5b600180548390811061106257fe5b90600052602060002090601a0201601001600101549050919050565b60005433600160a060020a0390811691161461109957600080fd5b806001838154811015156110a957fe5b60009182526020909120600a601a9092020101555050565b6000805433600160a060020a039081169116146110dd57600080fd5b600180548b9081106110eb57fe5b90600052602060002090601a0201601001905061110f818a8a8a8a8a8a8a8a611702565b50505050505050505050565b6000805433600160a060020a0390811691161461113757600080fd5b600180548390811061114557fe5b90600052602060002090601a0201600801600001549050919050565b60005433600160a060020a0390811691161461117c57600080fd5b8060018381548110151561118c57fe5b600091825260209091206011601a9092020101555050565b60005433600160a060020a039081169116146111bf57600080fd5b806001838154811015156111cf57fe5b600091825260209091206005601a9092020101555050565b60005433600160a060020a0390811691161461120257600080fd5b600160a060020a038116151561121757600080fd5b60008054600160a060020a031916600160a060020a0383161790557f95fd54179c11867fb083dd94347ea50f144dd4cfd7612b7bca169f162824af1681604051600160a060020a03909116815260200160405180910390a150565b6000805481908190819081908190819033600160a060020a0390811691161461129a57600080fd5b60018054899081106112a857fe5b60009182526020909120601a9091020180546001820154600283015460038401546004850154600590950154600160a060020a039485169e939094169c50909a50985060ff9092169650945092505050565b6000805433600160a060020a0390811691161461131657600080fd5b600180548390811061132457fe5b90600052602060002090601a0201600801600101549050919050565b6000805433600160a060020a0390811691161461135c57600080fd5b506001545b90565b60005433600160a060020a0390811691161461137f57600080fd5b8060018381548110151561138f57fe5b600091825260209091206010601a9092020101555050565b6000805433600160a060020a039081169116146113c357600080fd5b60018054839081106113d157fe5b60009182526020909120601a9091020160010154600160a060020a031692915050565b6000805433600160a060020a0390811691161461141057600080fd5b600180548390811061141e57fe5b60009182526020909120601a909102016004015460ff1692915050565b6000805481908190819033600160a060020a0390811691161461145d57600080fd5b600180548690811061146b57fe5b60009182526020909120601a90910201600781015490915060ff16801561149757506009810154600090115b6018820154601990920154909660ff928316965091169350915050565b60005433600160a060020a039081169116146114cf57600080fd5b806001838154811015156114df57fe5b600091825260209091206008601a9092020101555050565b60005433600160a060020a0390811691161461151257600080fd5b8060018381548110151561152257fe5b60009182526020909120601a90910201600401805460ff19169115159190911790555050565b6000805433600160a060020a0390811691161461156457600080fd5b600180548390811061157257fe5b60009182526020909120601a9091020154600160a060020a031692915050565b6000805433600160a060020a039081169116146115ae57600080fd5b60018054839081106115bc57fe5b90600052602060002090601a0201601001600001549050919050565b6000805433600160a060020a039081169116146115f457600080fd5b600180548390811061160257fe5b90600052602060002090601a0201600001600501549050919050565b60005433600160a060020a0390811691161461163957600080fd5b8060018381548110151561164957fe5b60009182526020909120600b601a9092020101555050565b8654600160a060020a03968716600160a060020a0319918216178855600180890180549790981696909116959095179095556002860192909255600385015560048401805491151560ff19928316179055600584019290925560006006840155600790920180549091169091179055565b80546001820154600483015460028401546003850154600586015460068701546007880154919395975091939597565b9688556001808901969096556004880194909455600287019290925560038601556005850155600684015560078301919091556008909101805460ff19169091179055565b81548183558181151161177357601a0281601a0283600052602060002091820191016117739190611778565b505050565b61136191905b80821115611866578054600160a060020a0319908116825560018201805490911690556000600282018190556003820181905560048201805460ff199081169091556005830182905560068301829055600783018054821690556008830182905560098301829055600a8301829055600b8301829055600c8301829055600d8301829055600e8301829055600f8301829055601083018290556011830182905560128301829055601383018290556014830182905560158301829055601683018290556017830191909155601882018054821690556019820180549091169055601a0161177e565b50905600a165627a7a7230582087239b27240aed31dd249a37b527e477048e8eb50c3ca156eb3dccc3365adf2a0029",
  "source": "// Copyright 2018 Energy Web Foundation\n//\n// This file is part of the Origin Application brought to you by the Energy Web Foundation,\n// a global non-profit organization focused on accelerating blockchain technology across the energy sector, \n// incorporated in Zug, Switzerland.\n//\n// The Origin Application is free software: you can redistribute it and/or modify\n// it under the terms of the GNU General Public License as published by\n// the Free Software Foundation, either version 3 of the License, or\n// (at your option) any later version.\n// This is distributed in the hope that it will be useful,\n// but WITHOUT ANY WARRANTY and without an implied warranty of\n// MERCHANTABILITY or FITNESS FOR A PARTICULAR PURPOSE.  See the\n// GNU General Public License for more details, at <http://www.gnu.org/licenses/>.\n//\n// @authors: slock.it GmbH, Heiko Burkhardt, heiko.burkhardt@slock.it\n\npragma solidity ^0.4.18;\n\nimport \"./LocationDefinition.sol\";\nimport \"./AssetGeneralDefinition.sol\";\nimport \"./AssetDbInterface.sol\";\n\n/// @title The Database contract for the Asset Registration\n/// @notice This contract only provides getter and setter methods\ncontract AssetProducingRegistryDB is AssetGeneralDefinition, AssetDbInterface {\n\n    struct ProducingProperties {\n        uint assetType;\n        uint capacityWh;\n        uint certificatesCreatedForWh;\n        uint lastSmartMeterCO2OffsetRead;\n        uint cO2UsedForCertificate;\n        uint registryCompliance;\n        bytes32 otherGreenAttributes;\n        bytes32 typeOfPublicSupport;\n    }\n\n    struct Asset {\n        AssetGeneralDefinition.GeneralInformation general;\n        ProducingProperties producingProps;\n        LocationDefinition.Location location;\n        bool exists;\n    }\n\n\n    /// @notice An array containing all registerd assets\n    Asset[] private assets;\n\n    /// @dev empty structs for initializing, used to avoid compile warnings\n    AssetGeneralDefinition.GeneralInformation generalEmpty;\n    LocationDefinition.Location locationEmpty;\n    ProducingProperties producingEmpty;\n\n    /// @notice Constructor\n    /// @param _owner The owner of the contract\n    function AssetProducingRegistryDB(address _owner) \n        public\n        Owned(_owner) \n    {\n\n    } \n\n    /// @notice function to create a new empty asset\n    /// @return returns the array-position and thus the index / identifier of this new asset\n    function createAsset() \n        external\n        onlyOwner\n        returns (uint _assetId)\n    {\n        assets.push(AssetProducingRegistryDB.Asset({\n            general: generalEmpty,\n            producingProps: producingEmpty,\n            location: locationEmpty,\n            exists: false\n        }));\n       _assetId = assets.length>0?assets.length-1:0;        \n    }\n\n    /// @notice function to set the general information for an asset\n    /// @param _assetId the ID belonging to the asset\n    /// @param _smartMeter the smart-meter address\n    /// @param _owner the owner of the asset\n    /// @param _operationalSince timestamp of when the asset started producing energy\n    /// @param _lastSmartMeterReadWh the last reading of the smartmeter\n    /// @param _active active-flag\n    /// @param _lastSmartMeterReadFileHash the last filehash of the smartmeter-readings\n    function initGeneral(       \n            uint _assetId, \n            address _smartMeter,\n            address _owner,\n            uint _operationalSince,\n            uint _lastSmartMeterReadWh,\n            bool _active,\n            bytes32 _lastSmartMeterReadFileHash\n        ) \n        onlyOwner\n        external\n    {\n        Asset storage a = assets[_assetId];\n\n        setGeneralInformationInternal(a.general, _smartMeter, _owner, _operationalSince,_lastSmartMeterReadWh, _active, _lastSmartMeterReadFileHash);\n\n    }\n\n    /// @notice function to set the producing-properties of an asset\n    /// @param _assetId the ID belonging to the asset\n    /// @param _assetType the assetType of the asset \n    /// @param _lastSmartMeterCO2OffsetRead the last CO2-Offsetreading of the smartmeter\n    /// @param _capacityWh the capacity of the asset in Wh\n    /// @param _certificatesCreatedForWh the amount of Wh already certificated\n    /// @param _registryCompliance the registry-compliance\n    /// @param _otherGreenAttributes other green attributes\n    /// @param _typeOfPublicSupport type of public support\n    function initProducing(\n        uint _assetId,\n        uint _assetType, \n        uint _lastSmartMeterCO2OffsetRead,\n        uint _cO2UsedForCertificate,\n        uint _capacityWh,\n        uint _certificatesCreatedForWh,\n        uint _registryCompliance,\n        bytes32 _otherGreenAttributes,\n        bytes32 _typeOfPublicSupport\n        )\n    onlyOwner\n    external\n    {\n        Asset storage a = assets[_assetId];\n        a.producingProps.assetType = _assetType;\n        a.producingProps.lastSmartMeterCO2OffsetRead = _lastSmartMeterCO2OffsetRead;\n        a.producingProps.cO2UsedForCertificate = _cO2UsedForCertificate;\n        a.producingProps.certificatesCreatedForWh = _certificatesCreatedForWh;\n        a.producingProps.capacityWh = _capacityWh;\n        a.producingProps.registryCompliance = _registryCompliance;       \n        a.producingProps.otherGreenAttributes = _otherGreenAttributes;\n        a.producingProps.typeOfPublicSupport = _typeOfPublicSupport; \n    }\n\n    /// @notice function to set all the location Informations for an asset\n    /// @param _assetId The identifier / index of an asset\n    /// @param _country The country where the asset is located\n    /// @param _region The region / state where the asset is located\n    /// @param _zip The zip-code of the region where the asset is located\n    /// @param _city The city where the asset is located\n    /// @param _street The streetname where the asset is located\n    /// @param _houseNumber the housenumber where the asset is located\n    /// @param _gpsLatitude The gps-latitude\n    /// @param _gpsLongitude The gps-longitude\n    function initLocation(\n        uint _assetId,\n        bytes32 _country,\n        bytes32 _region,\n        bytes32 _zip,\n        bytes32 _city,\n        bytes32 _street,\n        bytes32 _houseNumber,\n        bytes32 _gpsLatitude,\n        bytes32 _gpsLongitude\n    )\n        onlyOwner\n        external\n    {\n        LocationDefinition.Location storage loc = assets[_assetId].location;\n        initLocationInternal(loc,_country,_region,_zip,_city,_street,_houseNumber,_gpsLatitude,_gpsLongitude);\n    }\n\n    /// @notice Sets if an entry in the asset registry is active\n    /// @param _assetId The id belonging to an entry in the asset registry\n    /// @param _active true if active\n    function setActive(uint _assetId, bool _active) \n        onlyOwner\n        external\n    {\n        assets[_assetId].general.active = _active;\n    }\n\n    /// @notice function to set the existing status of an asset\n    /// @param _assetId The index position / identifier of an asset\n    /// @param _exist flag if the asset should exist\n    function setAssetExistStatus(uint _assetId, bool _exist)\n        external\n        onlyOwner\n    {\n        Asset storage a = assets[_assetId];\n        a.exists = _exist;\n    }\n\n    /// @notice Sets the fuel type belonging to an entry in the asset registry\n    /// @param _assetId The id belonging to an entry in the asset registry\n    /// @param _assetType The new fuel type\n    function setAssetType(uint _assetId, uint _assetType) \n        onlyOwner\n        external\n    {\n        assets[_assetId].producingProps.assetType = _assetType;\n    }\n\n    /// @notice Sets the capacity in Wh of an entry in the asset registry\n    /// @param _assetId The id belonging to an entry in the asset registry\n    /// @param _capacityWh The capacity in Wh\n    function setCapacityWh(uint _assetId, uint _capacityWh) \n        onlyOwner\n        external\n    {\n        assets[_assetId].producingProps.capacityWh = _capacityWh;\n    }\n\n    /// @notice Sets amount of Wh used to issue certificates belonging to an entry in the asset registry\n    /// @param _assetId The id belonging to an entry in the asset registry\n    /// @param _certificatesCreatedForWh The amount of Wh used to issue certificates\n    function setCertificatesCreatedForWh(uint _assetId, uint _certificatesCreatedForWh) \n        onlyOwner\n        external\n    {\n        assets[_assetId].producingProps.certificatesCreatedForWh = _certificatesCreatedForWh;\n    }\n\n    /// @notice Sets amount of saved CO2 used to issue certificates belonging to an entry in the asset registry\n    /// @param _assetId The id belonging to an entry in the asset registry\n    /// @param _used The amount of saved CO2 used to issue certificates\n    function setCO2UsedForCertificate(uint _assetId, uint _used) \n        onlyOwner \n        external \n    {\n        assets[_assetId].producingProps.cO2UsedForCertificate = _used;\n    }\n    \n    /// @notice Sets the last smart meter read in saved CO2 of an entry in the asset registry\n    /// @param _assetId The id belonging to an entry in the asset registry\n    /// @param _lastCO2OffsetReading The new amount of saved CO2\n    function setLastCO2OffsetReading(uint _assetId, uint _lastCO2OffsetReading)\n        onlyOwner\n        external\n    {\n        assets[_assetId].producingProps.lastSmartMeterCO2OffsetRead = _lastCO2OffsetReading;\n    }\n\n    /// @notice Sets the timestamp of the last smartmeter-reading\n    /// @param _assetId the id belonging to the asset \n    /// @param _timestamp the new timestamp of reading\n    function setLastSmartMeterReadDate(uint _assetId, uint _timestamp)\n        onlyOwner\n        external\n    {\n        assets[_assetId].general.lastMeterReadReceived = _timestamp;\n    }\n\n    /// @notice Sets last meter read file hash\n    /// @param _assetId The id belonging to an entry in the asset registry\n    /// @param _lastSmartMeterReadFileHash Last meter read file hash\n    function setLastSmartMeterReadFileHash(uint _assetId, bytes32 _lastSmartMeterReadFileHash)\n        onlyOwner\n        external\n    {\n        assets[_assetId].general.lastSmartMeterReadFileHash = _lastSmartMeterReadFileHash;\n    }\n\n    /// @notice Sets the last smart meter read in Wh of an entry in the asset registry\n    /// @param _assetId The id belonging to an entry in the asset registry\n    /// @param _lastSmartMeterReadWh The smart meter read in Wh\n    function setLastSmartMeterReadWh(uint _assetId, uint _lastSmartMeterReadWh) \n        onlyOwner\n        external\n    {\n        assets[_assetId].general.lastSmartMeterReadWh = _lastSmartMeterReadWh;\n    }\n\n    /// @notice Sets the location-country of an asset\n    /// @param _assetId the id belonging to an entry in the asset registry\n    /// @param _country the new country\n    function setLocationCountry(uint _assetId, bytes32 _country)\n        onlyOwner\n        external\n    {\n        assets[_assetId].location.country = _country;\n    }\n\n    /// @notice Sets the location-region of an asset\n    /// @param _assetId the id belonging to an entry in the asset registry\n    /// @param _region the new region\n    function setLocationRegion(uint _assetId, bytes32 _region)\n        onlyOwner\n        external\n    {\n        assets[_assetId].location.region = _region;\n    }\n    \n    /// @notice Sets the operational since field of an entry in the asset registry\n    /// @param _assetId The id belonging to an entry in the asset registry\n    /// @param _operationalSince The timestamp since the asset is operational\n    function setOperationalSince(uint _assetId, uint _operationalSince) \n        onlyOwner\n        external\n    {\n        assets[_assetId].general.operationalSince = _operationalSince;\n    }\n\n    /// @notice Sets the owner of an entry in the asset registry\n    /// @param _assetId The id belonging to an entry in the asset registry\n    /// @param _owner The new owner\n    function setOwner(uint _assetId, address _owner) \n        onlyOwner\n        external\n    {\n        assets[_assetId].general.owner = _owner;\n    }\n\n    /// @notice Sets the smart meter address belonging to an entry in the asset registry\n    /// @param _assetId The id belonging to an entry in the asset registry\n    /// @param _smartMeter The new smart meter address\n    function setSmartMeter(uint _assetId, address _smartMeter) \n        onlyOwner\n        external\n    {\n        assets[_assetId].general.smartMeter = _smartMeter;\n    }\n    \n    /// @notice Gets if an entry in the asset registry is active\n    /// @param _assetId The id belonging to an entry in the asset registry\n    /// @return true if asset is active\n    function getActive(uint _assetId) \n        onlyOwner\n        external\n        view\n        returns(bool)\n    {\n        return assets[_assetId].general.active;\n    }\n\n    /// @notice Returns the general information of an asset\n    /// @param _assetId the id belonging to an entry in the asset registry\n    /// @return smartmeter-address, owner-address, operationalSince, lastSmartMeterReading in Wh, active flag and the filehash of the last reading\n    function getAssetGeneral(uint _assetId)\n        onlyOwner\n        external\n        view \n        returns\n        (\n            address _smartMeter,\n            address _owner,\n            uint _operationalSince,\n            uint _lastSmartMeterReadWh,\n            bool _active,\n            bytes32 _lastSmartMeterReadFileHash\n        )\n    {\n       Asset storage asset = assets[_assetId];\n         _smartMeter = asset.general.smartMeter;\n        _owner = asset.general.owner;\n        _operationalSince = asset.general.operationalSince;\n        _lastSmartMeterReadWh = asset.general.lastSmartMeterReadWh;\n        _active = asset.general.active;\n        _lastSmartMeterReadFileHash = asset.general.lastSmartMeterReadFileHash;\n    }\n\n    /// @notice function to get the amount of assets\n    /// @return amount of assets\n    function getAssetListLength()\n        external\n        view\n        onlyOwner \n        returns (uint)\n    {\n        return assets.length;\n    }\n\n    /// @notice function to get the informations about the location of a struct\n    /// @param _assetId The id belonging to an entry in the asset registry\n    /// @return country, region, zip, city, street, houseNumber, gpsLatitude, gpsLongitude\n    function getAssetLocation(uint _assetId)\n        onlyOwner\n        external\n        view\n        returns(\n            bytes32 country,\n            bytes32 region,\n            bytes32 zip,\n            bytes32 city,\n            bytes32 street,\n            bytes32 houseNumber,\n            bytes32 gpsLatitude,\n            bytes32 gpsLongitude\n        )\n    {\n        LocationDefinition.Location storage loc = assets[_assetId].location;\n        return getAssetLocationInternal(loc);\n\n    }\n\n    /// @notice function to get the producing-properties of an asset\n    /// @param _assetId the id belonging to the asset\n    /// @return returns the producing-properties of an asset\n    function getAssetProducingProperties(uint _assetId)\n        onlyOwner\n        external\n        view\n        returns (\n            uint assetType,\n            uint capacityWh,\n            uint certificatesCreatedForWh,\n            uint lastSmartMeterCO2OffsetRead,\n            uint cO2UsedForCertificate,\n            uint registryCompliance,\n            bytes32 otherGreenAttributes,\n            bytes32 typeOfPublicSupport\n        )\n    {\n        Asset storage a = assets[_assetId];\n        ProducingProperties storage pp = a.producingProps;\n\n        assetType = pp.assetType;\n        capacityWh = pp.capacityWh;\n        certificatesCreatedForWh = pp.certificatesCreatedForWh;\n        lastSmartMeterCO2OffsetRead = pp.lastSmartMeterCO2OffsetRead;\n        cO2UsedForCertificate = pp.cO2UsedForCertificate;\n        registryCompliance = pp.registryCompliance;\n        otherGreenAttributes = pp.otherGreenAttributes;\n        typeOfPublicSupport = pp.typeOfPublicSupport;\n    }\n\n\n    /// @notice Gets the asset type belonging to an entry in the asset registry\n    /// @param _assetId The id belonging to an entry in the asset registry\n    /// @return the type of asset\n    function getAssetType(uint _assetId)\n        onlyOwner\n        external\n        view\n        returns(uint)\n    {\n        return assets[_assetId].producingProps.assetType;\n    }\n\n    /// @notice Gets the capacity in Wh of an entry in the asset registry\n    /// @param _assetId The id belonging to an entry in the asset registry\n    /// @return the capacity in Wh\n    function getCapacityWh(uint _assetId)\n        onlyOwner\n        external\n        view\n        returns(uint)\n    {\n        return assets[_assetId].producingProps.capacityWh;\n    }\n\n    /// @notice Gets amount of Wh used to issue certificates belonging to an entry in the asset registry\n    /// @param _assetId The id belonging to an entry in the asset registry\n    /// @return the amount of Wh used to issue certificates\n    function getCertificatesCreatedForWh(uint _assetId)\n        onlyOwner\n        external\n        view\n        returns(uint)\n    {\n        return assets[_assetId].producingProps.certificatesCreatedForWh;\n    }\n\n\n    /// @notice Gets the amount of already used CO2-offset for creating certificates\n    /// @param _assetId The id belonging to an entry in the asset registry\n    /// @return the aount of already used CO2-offset\n    function getCo2UsedForCertificate(uint _assetId) \n        onlyOwner \n        external \n        view \n        returns (uint) \n    {\n        return assets[_assetId].producingProps.cO2UsedForCertificate;\n    }\n\n    /// @notice function the retrieve the existing status of the general information, the location information and the asset itself\n    /// @param _assetId The index position / identifier of the asset\n    /// @return existing status of the general informaiton, existing status of the location informaiton and where the asset-structs exists\n    function getExistStatus(uint _assetId)\n        onlyOwner\n        external \n        view\n        returns (bool general, bool location, bool asset)\n    {\n        Asset storage a = assets[_assetId];\n        return(a.general.exists && a.producingProps.capacityWh > 0, a.location.exists, a.exists);\n    }\n\n    /// @notice function to get the last smartmeter-reading of an asset\n    /// @param _assetId the id belonging to the asset\n    /// @return the last smartmeter-reading\n    function getLastSmartMeterRead(uint _assetId) \n        onlyOwner\n        external \n        returns (uint)\n    {\n        return assets[_assetId].general.lastSmartMeterReadWh;\n    }\n\n    /// @notice Gets the last CO2-offset read of an entry in the asset registry\n    /// @param _assetId The id belonging to an entry in the asset registry\n    /// @return the last logged CO2-offset read tru\n    function getlastSmartMeterCO2OffsetRead(uint _assetId)\n        onlyOwner\n        external \n        view \n        returns (uint)\n    {\n        return assets[_assetId].producingProps.lastSmartMeterCO2OffsetRead;\n    }\n    \n    /// @notice gets the timestamp of the last reading\n    /// @param _assetId the Id belonging to an entry in the asset registry\n    /// @return the timestamp of the last reading\n    function getLastSmartMeterReadDate(uint _assetId)\n        onlyOwner\n        external\n        returns(uint)\n    {\n        return assets[_assetId].general.lastMeterReadReceived;\n    }\n\n    /// @notice Gets last smart merter read file hash\n    /// @param _assetId The id belonging to an entry in the asset registry\n    /// @return last smart merter read file hash\n    function getLastSmartMeterReadFileHash(uint _assetId)\n        onlyOwner\n        external\n        view\n        returns(bytes32)\n    {\n        return assets[_assetId].general.lastSmartMeterReadFileHash;\n    }\n    \n    /// @notice Gets the last smart merter read in Wh of an entry in the asset registry\n    /// @param _assetId The id belonging to an entry in the asset registry\n    /// @return the last loged smart meter read in Wh\n    function getLastSmartMeterReadWh(uint _assetId)\n        onlyOwner\n        external\n        view\n        returns(uint)\n    {\n        return assets[_assetId].general.lastSmartMeterReadWh;\n    }\n\n    /// @notice Gets the location country of an asset\n    /// @param _assetId the id belonging to an entry in the asset registry\n    /// @return country where the asset is based\n    function getLocationCountry(uint _assetId)\n        onlyOwner\n        external\n        view \n        returns(bytes32)\n    {\n        return assets[_assetId].location.country;\n    }\n\n    /// @notice Gets the location region of an asset\n    /// @param _assetId the id belonging to an entry in the asset registry\n    /// @return region of the country where the asset is based\n    function getLocationRegion(uint _assetId)\n        onlyOwner\n        external\n        constant\n        returns(bytes32)\n    {\n        return assets[_assetId].location.region;\n    }\n\n    /// @notice Gets the operational since field of an entry in the asset registry\n    /// @param _assetId The id belonging to an entry in the asset registry\n    function getOperationalSince(uint _assetId)\n        onlyOwner\n        external\n        constant\n        returns(uint)\n    {\n        return assets[_assetId].general.operationalSince;\n    }\n\n    /// @notice Gets the owner of an entry in the asset registry\n    /// @param _assetId The id belonging to an entry in the asset registry\n    /// @return the owner address\n    function getOwner(uint _assetId) \n        onlyOwner\n        external\n        constant\n        returns(address)\n    {\n        return assets[_assetId].general.owner;\n    }\n\n    /// @notice Gets the smart meter address belonging to an entry in the asset registry\n    /// @param _assetId The id belonging to an entry in the asset registry\n    /// @return the smart meter address\n    function getSmartMeter(uint _assetId)\n        onlyOwner\n        external\n        constant\n        returns(address)\n    {\n        return assets[_assetId].general.smartMeter;\n    }\n    \n}",
  "sourcePath": "/Users/mkuechler/ewf/CoO/contracts/AssetProducingRegistryDB.sol",
  "compiler": {
    "name": "solc",
    "version": "0.4.19+commit.c4cbbb05.Emscripten.clang"
  },
  "schemaVersion": "2.0.0",
  "updatedAt": "2018-04-09T15:13:13.237Z"
}