{
  "contractName": "CertificateDB",
  "abi": [
    {
      "constant": true,
      "inputs": [],
      "name": "owner",
      "outputs": [
        {
          "name": "",
          "type": "address"
        }
      ],
      "payable": false,
      "stateMutability": "view",
      "type": "function"
    },
    {
      "constant": false,
      "inputs": [
        {
          "name": "_newOwner",
          "type": "address"
        }
      ],
      "name": "changeOwner",
      "outputs": [],
      "payable": false,
      "stateMutability": "nonpayable",
      "type": "function"
    },
    {
      "inputs": [
        {
          "name": "_certificateLogic",
          "type": "address"
        }
      ],
      "payable": false,
      "stateMutability": "nonpayable",
      "type": "constructor"
    },
    {
      "anonymous": false,
      "inputs": [
        {
          "indexed": false,
          "name": "_newOwner",
          "type": "address"
        }
      ],
      "name": "LogChangeOwner",
      "type": "event"
    },
    {
      "constant": false,
      "inputs": [
        {
          "name": "_assetId",
          "type": "uint256"
        },
        {
          "name": "_owner",
          "type": "address"
        },
        {
          "name": "_powerInW",
          "type": "uint256"
        },
        {
          "name": "_dataLog",
          "type": "bytes32"
        },
        {
          "name": "_coSaved",
          "type": "uint256"
        },
        {
          "name": "_escrow",
          "type": "address"
        }
      ],
      "name": "createCertificate",
      "outputs": [
        {
          "name": "",
          "type": "uint256"
        }
      ],
      "payable": false,
      "stateMutability": "nonpayable",
      "type": "function"
    },
    {
      "constant": false,
      "inputs": [
        {
          "name": "_certificateId",
          "type": "uint256"
        },
        {
          "name": "_escrow",
          "type": "address"
        }
      ],
      "name": "setCertificateEscrow",
      "outputs": [],
      "payable": false,
      "stateMutability": "nonpayable",
      "type": "function"
    },
    {
      "constant": false,
      "inputs": [
        {
          "name": "_certificateId",
          "type": "uint256"
        },
        {
          "name": "_owner",
          "type": "address"
        }
      ],
      "name": "setCertificateOwner",
      "outputs": [],
      "payable": false,
      "stateMutability": "nonpayable",
      "type": "function"
    },
    {
      "constant": false,
      "inputs": [
        {
          "name": "_certificateId",
          "type": "uint256"
        }
      ],
      "name": "retireCertificate",
      "outputs": [],
      "payable": false,
      "stateMutability": "nonpayable",
      "type": "function"
    },
    {
      "constant": true,
      "inputs": [
        {
          "name": "_certificateId",
          "type": "uint256"
        }
      ],
      "name": "getCertificate",
      "outputs": [
        {
          "name": "_assetId",
          "type": "uint256"
        },
        {
          "name": "_owner",
          "type": "address"
        },
        {
          "name": "_powerInW",
          "type": "uint256"
        },
        {
          "name": "_retired",
          "type": "bool"
        },
        {
          "name": "_dataLog",
          "type": "bytes32"
        },
        {
          "name": "_coSaved",
          "type": "uint256"
        },
        {
          "name": "_escrow",
          "type": "address"
        },
        {
          "name": "_creationTime",
          "type": "uint256"
        }
      ],
      "payable": false,
      "stateMutability": "view",
      "type": "function"
    },
    {
      "constant": true,
      "inputs": [
        {
          "name": "_certificateId",
          "type": "uint256"
        }
      ],
      "name": "getCertificateOwner",
      "outputs": [
        {
          "name": "",
          "type": "address"
        }
      ],
      "payable": false,
      "stateMutability": "view",
      "type": "function"
    },
    {
      "constant": true,
      "inputs": [
        {
          "name": "_certificateId",
          "type": "uint256"
        }
      ],
      "name": "isRetired",
      "outputs": [
        {
          "name": "",
          "type": "bool"
        }
      ],
      "payable": false,
      "stateMutability": "view",
      "type": "function"
    },
    {
      "constant": true,
      "inputs": [],
      "name": "getCertificateListLength",
      "outputs": [
        {
          "name": "",
          "type": "uint256"
        }
      ],
      "payable": false,
      "stateMutability": "view",
      "type": "function"
    },
    {
      "constant": true,
      "inputs": [
        {
          "name": "_certificateId",
          "type": "uint256"
        }
      ],
      "name": "getCertificateEscrow",
      "outputs": [
        {
          "name": "",
          "type": "address"
        }
      ],
      "payable": false,
      "stateMutability": "view",
      "type": "function"
    }
  ],
  "bytecode": "0x6060604052341561000f57600080fd5b6040516020806108448339810160405280805160008054600160a060020a03909216600160a060020a031990921691909117905550506107f0806100546000396000f3006060604052600436106100ae5763ffffffff7c010000000000000000000000000000000000000000000000000000000060003504166306ec898281146100b357806342c366a5146100d757806351640fee1461011d57806384e814ef146101855780638da5cb5b146101b7578063a6f9dae1146101ca578063af277395146101e9578063bdd75048146101fc578063cf6ebee71461021e578063d50bba1a14610248578063d90561ba1461025e575b600080fd5b34156100be57600080fd5b6100d5600435600160a060020a0360243516610274565b005b34156100e257600080fd5b61010b600435600160a060020a0360243581169060443590606435906084359060a435166102d8565b60405190815260200160405180910390f35b341561012857600080fd5b61013360043561041d565b604051978852600160a060020a0396871660208901526040808901969096529315156060880152608087019290925260a086015290921660c084015260e0830191909152610100909101905180910390f35b341561019057600080fd5b61019b6004356104c1565b604051600160a060020a03909116815260200160405180910390f35b34156101c257600080fd5b61019b61050e565b34156101d557600080fd5b6100d5600160a060020a036004351661051d565b34156101f457600080fd5b61010b6105b5565b341561020757600080fd5b6100d5600435600160a060020a03602435166105d9565b341561022957600080fd5b61023460043561063d565b604051901515815260200160405180910390f35b341561025357600080fd5b6100d5600435610684565b341561026957600080fd5b61019b6004356106d4565b60005433600160a060020a0390811691161461028f57600080fd5b8060018381548110151561029f57fe5b906000526020600020906008020160060160006101000a815481600160a060020a030219169083600160a060020a031602179055505050565b6000805433600160a060020a039081169116146102f457600080fd5b6001805481908082016103078382610721565b9160005260206000209060080201600061010060405190810160409081528c8252600160a060020a03808d1660208401529082018b905260006060830152608082018a905260a08201899052871660c08201524260e082015291905081518155602082015160018201805473ffffffffffffffffffffffffffffffffffffffff1916600160a060020a039290921691909117905560408201518160020155606082015160038201805460ff19169115159190911790556080820151600482015560a0820151816005015560c082015160068201805473ffffffffffffffffffffffffffffffffffffffff1916600160a060020a039290921691909117905560e08201516007909101555003979650505050505050565b600080600080600080600080600060018a81548110151561043a57fe5b90600052602060002090600802019050806000015498508060010160009054906101000a9004600160a060020a03169750806002015496508060030160009054906101000a900460ff16955080600401549450806005015493508060060160009054906101000a9004600160a060020a031692508060070154915050919395975091939597565b6000805433600160a060020a039081169116146104dd57600080fd5b60018054839081106104eb57fe5b6000918252602090912060089091020160010154600160a060020a031692915050565b600054600160a060020a031681565b60005433600160a060020a0390811691161461053857600080fd5b600160a060020a038116151561054d57600080fd5b6000805473ffffffffffffffffffffffffffffffffffffffff1916600160a060020a0383161790557f95fd54179c11867fb083dd94347ea50f144dd4cfd7612b7bca169f162824af1681604051600160a060020a03909116815260200160405180910390a150565b6000805433600160a060020a039081169116146105d157600080fd5b506001545b90565b60005433600160a060020a039081169116146105f457600080fd5b8060018381548110151561060457fe5b906000526020600020906008020160010160006101000a815481600160a060020a030219169083600160a060020a031602179055505050565b6000805433600160a060020a0390811691161461065957600080fd5b600180548390811061066757fe5b600091825260209091206008909102016003015460ff1692915050565b60005433600160a060020a0390811691161461069f57600080fd5b600180828154811015156106af57fe5b60009182526020909120600890910201600301805460ff191691151591909117905550565b6000805433600160a060020a039081169116146106f057600080fd5b60018054839081106106fe57fe5b6000918252602090912060089091020160060154600160a060020a031692915050565b81548183558181151161074d5760080281600802836000526020600020918201910161074d9190610752565b505050565b6105d691905b808211156107c057600080825560018201805473ffffffffffffffffffffffffffffffffffffffff199081169091556002830182905560038301805460ff19169055600483018290556005830182905560068301805490911690556007820155600801610758565b50905600a165627a7a723058200214cf3f365c1f4173a3dd57b53afc716e5c3aa0f7ea7d11194e7581a27605460029",
  "source": "// Copyright 2018 Energy Web Foundation\n// This file is part of the Origin Application brought to you by the Energy Web Foundation,\n// a global non-profit organization focused on accelerating blockchain technology across the energy sector, \n// incorporated in Zug, Switzerland.\n//\n// The Origin Application is free software: you can redistribute it and/or modify\n// it under the terms of the GNU General Public License as published by\n// the Free Software Foundation, either version 3 of the License, or\n// (at your option) any later version.\n// This is distributed in the hope that it will be useful,\n// but WITHOUT ANY WARRANTY and without an implied warranty of\n// MERCHANTABILITY or FITNESS FOR A PARTICULAR PURPOSE.  See the\n// GNU General Public License for more details, at <http://www.gnu.org/licenses/>.\n//\n// @authors: slock.it GmbH, Jonas Bentke, jonas.bentke@slock.it\n\npragma solidity ^0.4.17;\n\n/// @title The Database contract for the Certificate of Origin list\n/// @notice This contract only provides getter and setter methods\n\nimport \"./Owned.sol\";\n\ncontract CertificateDB is Owned {\n\n    /// @notice The structure of a certificate\n    /// @param assetId The id of the certificate\n    /// @param owner The owner of a certificate\n    /// @oaram powerInW The amount of Watts the Certificate holds. Should never be changed after creation\n    /// @param retired Shows if the certificate is retired\n    struct Certificate {\n        uint assetId;\n        address owner;\n        uint powerInW;\n        bool retired;\n        bytes32 dataLog;\n        uint coSaved;\n        address escrow;\n        uint creationTime;\n    }\n\n    /// @notice An array containing all created certificates\n    Certificate[] private certificateList;\n    \n    /// @notice Constructor\n    /// @param _certificateLogic The address of the corresbonding logic contract\n    function CertificateDB(address _certificateLogic) Owned(_certificateLogic) public {\n    }\n\n    /// @notice Creates a new certificate\n    /// @param _assetId The id of the Certificate\n    /// @param _owner The owner of the Certificate\n    /// @param _powerInW The amount of Watts the Certificate holds\n    /// @return The id of the certificate\n    function createCertificate(uint _assetId, address _owner, uint _powerInW, bytes32 _dataLog, uint _coSaved, address _escrow) public onlyOwner returns (uint) {\n        return certificateList.push(Certificate(_assetId, _owner, _powerInW, false, _dataLog, _coSaved, _escrow, now)) - 1;\n        \n    }\n\n    /// @notice sets the escrow-address of a certificate\n    /// @param _certificateId certificateId\n    /// @param _escrow new escrow-address\n    function setCertificateEscrow(uint _certificateId, address _escrow)\n        public\n        onlyOwner\n    {\n        certificateList[_certificateId].escrow = _escrow;\n    }\n\n    /// @notice Sets the owner of a certificate\n    /// @param _certificateId The array position in which the certificate is stored\n    /// @param _owner The address of the new owner\n    function setCertificateOwner(uint _certificateId, address _owner) public onlyOwner {\n        certificateList[_certificateId].owner = _owner;\n    }\n\n    /// @notice Sets a certificate to retired\n    /// @param _certificateId The array position in which the certificate is stored\n    function retireCertificate(uint _certificateId) public onlyOwner {\n        certificateList[_certificateId].retired = true;\n    }\n\n    /// @notice Returns the certificate that corresponds to the given array id\n    /// @param _certificateId The array position in which the certificate is stored\n    /// @return all elements of the certificate\n    function getCertificate(uint _certificateId) \n        public \n        view \n        returns (\n            uint _assetId, \n            address _owner, \n            uint _powerInW, \n            bool _retired, \n            bytes32 _dataLog, \n            uint _coSaved, \n            address _escrow, \n            uint _creationTime\n        ) \n    {\n        Certificate storage c = certificateList[_certificateId];\n\n        _assetId = c.assetId;\n        _owner = c.owner;\n        _powerInW = c.powerInW; \n        _retired = c.retired;\n        _dataLog = c.dataLog; \n        _coSaved = c.coSaved;\n        _escrow = c.escrow;\n        _creationTime = c.creationTime;    \n    }\n\n    /// @notice Returns the certificate owner\n    /// @param _certificateId The array position in which the certificate is stored\n    /// @return address owner\n    function getCertificateOwner(uint _certificateId) public onlyOwner view returns (address) {\n        return certificateList[_certificateId].owner;\n    }\n\n    /// @notice Getter for state of retirement\n    /// @param _certificateId The id of the requested certificate\n    /// @return bool if it is retired\n    function isRetired(uint _certificateId) public onlyOwner view returns (bool) {\n        return certificateList[_certificateId].retired;\n    }\n\n    /// @notice function to get the amount of all certificates\n    /// @return the amount of all certificates\n    function getCertificateListLength() public onlyOwner view returns (uint) {\n        return certificateList.length;\n    }\n\n    /// @notice function to get the escrow-address of a certificate\n    /// @param _certificateId certificate-ID\n    /// @return escrow-address\n    function getCertificateEscrow(uint _certificateId) \n        public\n        onlyOwner\n        view \n        returns (address) \n    {\n        return certificateList[_certificateId].escrow;\n    } \n}",
  "sourcePath": "/Users/mkuechler/ewf/ewf-pushrepo/certificate_of_origin/contracts/CertificateDB.sol",
  "compiler": {
    "name": "solc",
    "version": "0.4.19+commit.c4cbbb05.Emscripten.clang"
  },
  "schemaVersion": "2.0.0",
  "updatedAt": "2018-04-03T09:59:55.013Z"
}