{
  "contractName": "CertificateLogic",
  "abi": [
    {
      "constant": true,
      "inputs": [],
      "name": "cooContract",
      "outputs": [
        {
          "name": "",
          "type": "address"
        }
      ],
      "payable": false,
      "stateMutability": "view",
      "type": "function"
    },
    {
      "constant": true,
      "inputs": [
        {
          "name": "_role",
          "type": "uint8"
        },
        {
          "name": "_caller",
          "type": "address"
        }
      ],
      "name": "isRole",
      "outputs": [
        {
          "name": "",
          "type": "bool"
        }
      ],
      "payable": false,
      "stateMutability": "view",
      "type": "function"
    },
    {
      "constant": true,
      "inputs": [],
      "name": "certificateDb",
      "outputs": [
        {
          "name": "",
          "type": "address"
        }
      ],
      "payable": false,
      "stateMutability": "view",
      "type": "function"
    },
    {
      "inputs": [
        {
          "name": "_coo",
          "type": "address"
        }
      ],
      "payable": false,
      "stateMutability": "nonpayable",
      "type": "constructor"
    },
    {
      "anonymous": false,
      "inputs": [
        {
          "indexed": true,
          "name": "_certificateId",
          "type": "uint256"
        },
        {
          "indexed": false,
          "name": "powerInW",
          "type": "uint256"
        },
        {
          "indexed": false,
          "name": "owner",
          "type": "address"
        },
        {
          "indexed": false,
          "name": "escrow",
          "type": "address"
        }
      ],
      "name": "LogCreatedCertificate",
      "type": "event"
    },
    {
      "anonymous": false,
      "inputs": [
        {
          "indexed": true,
          "name": "_certificateId",
          "type": "uint256"
        },
        {
          "indexed": false,
          "name": "_retire",
          "type": "bool"
        }
      ],
      "name": "LogRetireRequest",
      "type": "event"
    },
    {
      "anonymous": false,
      "inputs": [
        {
          "indexed": true,
          "name": "_certificateId",
          "type": "uint256"
        },
        {
          "indexed": false,
          "name": "_oldOwner",
          "type": "address"
        },
        {
          "indexed": false,
          "name": "_newOwner",
          "type": "address"
        },
        {
          "indexed": false,
          "name": "_oldEscrow",
          "type": "address"
        },
        {
          "indexed": false,
          "name": "_newEscrow",
          "type": "address"
        }
      ],
      "name": "LogCertificateOwnerChanged",
      "type": "event"
    },
    {
      "constant": false,
      "inputs": [
        {
          "name": "_database",
          "type": "address"
        }
      ],
      "name": "init",
      "outputs": [],
      "payable": false,
      "stateMutability": "nonpayable",
      "type": "function"
    },
    {
      "constant": false,
      "inputs": [
        {
          "name": "_assetId",
          "type": "uint256"
        },
        {
          "name": "_owner",
          "type": "address"
        },
        {
          "name": "_powerInW",
          "type": "uint256"
        }
      ],
      "name": "createCertificate",
      "outputs": [
        {
          "name": "",
          "type": "uint256"
        }
      ],
      "payable": false,
      "stateMutability": "nonpayable",
      "type": "function"
    },
    {
      "constant": false,
      "inputs": [
        {
          "name": "_assetId",
          "type": "uint256"
        },
        {
          "name": "_powerInW",
          "type": "uint256"
        }
      ],
      "name": "createCertificateForAssetOwner",
      "outputs": [
        {
          "name": "",
          "type": "uint256"
        }
      ],
      "payable": false,
      "stateMutability": "nonpayable",
      "type": "function"
    },
    {
      "constant": false,
      "inputs": [
        {
          "name": "_id",
          "type": "uint256"
        }
      ],
      "name": "retireCertificate",
      "outputs": [],
      "payable": false,
      "stateMutability": "nonpayable",
      "type": "function"
    },
    {
      "constant": false,
      "inputs": [
        {
          "name": "_id",
          "type": "uint256"
        },
        {
          "name": "_newOwner",
          "type": "address"
        }
      ],
      "name": "transferOwnershipByEscrow",
      "outputs": [],
      "payable": false,
      "stateMutability": "nonpayable",
      "type": "function"
    },
    {
      "constant": false,
      "inputs": [
        {
          "name": "_id",
          "type": "uint256"
        },
        {
          "name": "_newOwner",
          "type": "address"
        }
      ],
      "name": "changeCertificateOwner",
      "outputs": [],
      "payable": false,
      "stateMutability": "nonpayable",
      "type": "function"
    },
    {
      "constant": true,
      "inputs": [
        {
          "name": "_certificateId",
          "type": "uint256"
        }
      ],
      "name": "getCertificate",
      "outputs": [
        {
          "name": "_assetId",
          "type": "uint256"
        },
        {
          "name": "_owner",
          "type": "address"
        },
        {
          "name": "_powerInW",
          "type": "uint256"
        },
        {
          "name": "_retired",
          "type": "bool"
        },
        {
          "name": "_dataLog",
          "type": "bytes32"
        },
        {
          "name": "_coSaved",
          "type": "uint256"
        },
        {
          "name": "_escrow",
          "type": "address"
        },
        {
          "name": "_creationTime",
          "type": "uint256"
        }
      ],
      "payable": false,
      "stateMutability": "view",
      "type": "function"
    },
    {
      "constant": true,
      "inputs": [
        {
          "name": "_certificateId",
          "type": "uint256"
        }
      ],
      "name": "getCertificateOwner",
      "outputs": [
        {
          "name": "",
          "type": "address"
        }
      ],
      "payable": false,
      "stateMutability": "view",
      "type": "function"
    },
    {
      "constant": true,
      "inputs": [
        {
          "name": "_certificateId",
          "type": "uint256"
        }
      ],
      "name": "isRetired",
      "outputs": [
        {
          "name": "",
          "type": "bool"
        }
      ],
      "payable": false,
      "stateMutability": "view",
      "type": "function"
    },
    {
      "constant": true,
      "inputs": [],
      "name": "getCertificateListLength",
      "outputs": [
        {
          "name": "",
          "type": "uint256"
        }
      ],
      "payable": false,
      "stateMutability": "view",
      "type": "function"
    },
    {
      "constant": false,
      "inputs": [
        {
          "name": "_newLogic",
          "type": "address"
        }
      ],
      "name": "update",
      "outputs": [],
      "payable": false,
      "stateMutability": "nonpayable",
      "type": "function"
    }
  ],
  "bytecode": "0x6060604052341561000f57600080fd5b60405160208061161b8339810160405280805160008054600160a060020a03909216600160a060020a031990921691909117905550506115c7806100546000396000f3006060604052600436106100b65763ffffffff60e060020a60003504166319ab453c81146100bb5780631c1b8772146100dc5780632c76a1b6146100fb57806351640fee14610132578063544dd3901461019a57806384e814ef146101bc578063af277395146101ee578063b1f2cc9d14610201578063bb5a389e14610214578063c90ad7eb1461024d578063cbbf9f3814610260578063cf6ebee714610282578063d50bba1a14610298578063daba9203146102ae575b600080fd5b34156100c657600080fd5b6100da600160a060020a03600435166102c7565b005b34156100e757600080fd5b6100da600160a060020a0360043516610324565b341561010657600080fd5b610120600435600160a060020a03602435166044356103a8565b60405190815260200160405180910390f35b341561013d57600080fd5b61014860043561045c565b604051978852600160a060020a0396871660208901526040808901969096529315156060880152608087019290925260a086015290921660c084015260e0830191909152610100909101905180910390f35b34156101a557600080fd5b6100da600435600160a060020a036024351661051f565b34156101c757600080fd5b6101d26004356108ca565b604051600160a060020a03909116815260200160405180910390f35b34156101f957600080fd5b61012061093d565b341561020c57600080fd5b6101d26109a6565b341561021f57600080fd5b61023960ff60043516600160a060020a03602435166109b5565b604051901515815260200160405180910390f35b341561025857600080fd5b6101d2610b30565b341561026b57600080fd5b6100da600435600160a060020a0360243516610b3f565b341561028d57600080fd5b610239600435610dcf565b34156102a357600080fd5b6100da600435610e22565b34156102b957600080fd5b61012060043560243561100d565b60006102d381336109b5565b15156102de57600080fd5b600154600160a060020a0316156102f457600080fd5b506001805473ffffffffffffffffffffffffffffffffffffffff1916600160a060020a0392909216919091179055565b600054600160a060020a03908116903316811461034057600080fd5b600154600160a060020a031663a6f9dae18360405160e060020a63ffffffff8416028152600160a060020a039091166004820152602401600060405180830381600087803b151561039057600080fd5b6102c65a03f115156103a157600080fd5b5050505050565b600154600090600160a060020a031615156103c257600080fd5b60008054600160a060020a03169063a34b80b090604051602001526040518163ffffffff1660e060020a028152600401602060405180830381600087803b151561040b57600080fd5b6102c65a03f1151561041c57600080fd5b5050506040518051905080600160a060020a031633600160a060020a031614151561044657600080fd5b6104538585856000611138565b95945050505050565b6001546000908190819081908190819081908190600160a060020a03166351640fee8a83604051610100015260405160e060020a63ffffffff8416028152600481019190915260240161010060405180830381600087803b15156104bf57600080fd5b6102c65a03f115156104d057600080fd5b5050506040518051906020018051906020018051906020018051906020018051906020018051906020018051906020018051905097509750975097509750975097509750919395975091939597565b6001546000908190600160a060020a0316151561053b57600080fd5b600080548491600160a060020a0390911690635c7460d690604051602001526040518163ffffffff1660e060020a028152600401602060405180830381600087803b151561058857600080fd5b6102c65a03f1151561059957600080fd5b50505060405180519050600160a060020a031663ecb410548260006040516020015260405160e060020a63ffffffff8416028152600160a060020a039091166004820152602401602060405180830381600087803b15156105f957600080fd5b6102c65a03f1151561060a57600080fd5b50505060405180519050151561061f57600080fd5b600154600160a060020a03166384e814ef8660006040516020015260405160e060020a63ffffffff84160281526004810191909152602401602060405180830381600087803b151561067057600080fd5b6102c65a03f1151561068157600080fd5b50505060405180519050600160a060020a031633600160a060020a03161480156107145750600154600160a060020a031663cf6ebee78660006040516020015260405160e060020a63ffffffff84160281526004810191909152602401602060405180830381600087803b15156106f757600080fd5b6102c65a03f1151561070857600080fd5b50505060405180519050155b151561071f57600080fd5b600154600160a060020a031663bdd75048868660405160e060020a63ffffffff85160281526004810192909252600160a060020a03166024820152604401600060405180830381600087803b151561077657600080fd5b6102c65a03f1151561078757600080fd5b5050600154600160a060020a031690506384e814ef8660006040516020015260405160e060020a63ffffffff84160281526004810191909152602401602060405180830381600087803b15156107dc57600080fd5b6102c65a03f115156107ed57600080fd5b5050506040518051600154909450600160a060020a0316905063d90561ba8660006040516020015260405160e060020a63ffffffff84160281526004810191909152602401602060405180830381600087803b151561084b57600080fd5b6102c65a03f1151561085c57600080fd5b505050604051805190509150847f1d7a993900fc1aacdea8768b0618d014b58445a8255572d28b19e64bb71d959584868586604051600160a060020a039485168152928416602084015290831660408084019190915292166060820152608001905180910390a25050505050565b600154600090600160a060020a03166384e814ef83836040516020015260405160e060020a63ffffffff84160281526004810191909152602401602060405180830381600087803b151561091d57600080fd5b6102c65a03f1151561092e57600080fd5b50505060405180519392505050565b600154600090600160a060020a031663af27739582604051602001526040518163ffffffff1660e060020a028152600401602060405180830381600087803b151561098757600080fd5b6102c65a03f1151561099857600080fd5b505050604051805191505090565b600054600160a060020a031681565b6000805481908190600160a060020a038086169116638da5cb5b83604051602001526040518163ffffffff1660e060020a028152600401602060405180830381600087803b1515610a0557600080fd5b6102c65a03f11515610a1657600080fd5b50505060405180519050600160a060020a03161415610a385760019250610b28565b60008054600160a060020a031690635c7460d690604051602001526040518163ffffffff1660e060020a028152600401602060405180830381600087803b1515610a8157600080fd5b6102c65a03f11515610a9257600080fd5b50505060405180519050600160a060020a031663265209f28560006040516020015260405160e060020a63ffffffff8416028152600160a060020a039091166004820152602401602060405180830381600087803b1515610af257600080fd5b6102c65a03f11515610b0357600080fd5b505050604051805190509150846006811115610b1b57fe5b60020a8281161515935090505b505092915050565b600154600160a060020a031681565b60015460009081908190600160a060020a03161515610b5d57600080fd5b60008054600160a060020a03169063a34b80b090604051602001526040518163ffffffff1660e060020a028152600401602060405180830381600087803b1515610ba657600080fd5b6102c65a03f11515610bb757600080fd5b5050506040518051905080600160a060020a031633600160a060020a0316141515610be157600080fd5b600154600160a060020a03166351640fee876000604051610100015260405160e060020a63ffffffff8416028152600481019190915260240161010060405180830381600087803b1515610c3457600080fd5b6102c65a03f11515610c4557600080fd5b505050604051805190602001805190602001805190602001805190602001805190602001805190602001805190602001805150959a509298509196505086159350610c939250505057600080fd5b600154600160a060020a031663bdd75048878760405160e060020a63ffffffff85160281526004810192909252600160a060020a03166024820152604401600060405180830381600087803b1515610cea57600080fd5b6102c65a03f11515610cfb57600080fd5b5050600154600160a060020a031690506306ec898287600060405160e060020a63ffffffff85160281526004810192909252600160a060020a03166024820152604401600060405180830381600087803b1515610d5757600080fd5b6102c65a03f11515610d6857600080fd5b505050857f1d7a993900fc1aacdea8768b0618d014b58445a8255572d28b19e64bb71d95958587856000604051600160a060020a039485168152928416602084015290831660408084019190915292166060820152608001905180910390a2505050505050565b600154600090600160a060020a031663cf6ebee783836040516020015260405160e060020a63ffffffff84160281526004810191909152602401602060405180830381600087803b151561091d57600080fd5b6001546000908190600160a060020a03161515610e3e57600080fd5b600154600160a060020a03166351640fee846000604051610100015260405160e060020a63ffffffff8416028152600481019190915260240161010060405180830381600087803b1515610e9157600080fd5b6102c65a03f11515610ea257600080fd5b505050604051805190602001805190602001805190602001805190602001805190602001805190602001805190602001805190505050505093505092505033600160a060020a031682600160a060020a0316141515610f0057600080fd5b80151561100857600154600160a060020a03166306ec898284600060405160e060020a63ffffffff85160281526004810192909252600160a060020a03166024820152604401600060405180830381600087803b1515610f5f57600080fd5b6102c65a03f11515610f7057600080fd5b5050600154600160a060020a0316905063d50bba1a8460405160e060020a63ffffffff84160281526004810191909152602401600060405180830381600087803b1515610fbc57600080fd5b6102c65a03f11515610fcd57600080fd5b505050827f4c9e4e2878404da5e23cb4c5ef447b8e31155efa1229be3e2a8541cc5aab275d6001604051901515815260200160405180910390a25b505050565b600080600661101c81336109b5565b151561102757600080fd5b600154600160a060020a0316151561103e57600080fd5b60008054600160a060020a0316906324a793c490604051602001526040518163ffffffff1660e060020a028152600401602060405180830381600087803b151561108757600080fd5b6102c65a03f1151561109857600080fd5b50505060405180519050600160a060020a031663ade1e99286600060405160c0015260405160e060020a63ffffffff8416028152600481019190915260240160c060405180830381600087803b15156110f057600080fd5b6102c65a03f1151561110157600080fd5b5050506040518051906020018051906020018051906020018051906020018051906020018051905050505050925050610453858386335b600154600090819081908190600160a060020a0316151561115857600080fd5b60008054600160a060020a0316906324a793c490604051602001526040518163ffffffff1660e060020a028152600401602060405180830381600087803b15156111a157600080fd5b6102c65a03f115156111b257600080fd5b50505060405180519050600160a060020a03166376b240ee898860006040516020015260405160e060020a63ffffffff851602815260048101929092526024820152604401602060405180830381600087803b151561121057600080fd5b6102c65a03f1151561122157600080fd5b505050604051805160008054919550600160a060020a0390911691506324a793c490604051602001526040518163ffffffff1660e060020a028152600401602060405180830381600087803b151561127857600080fd5b6102c65a03f1151561128957600080fd5b50505060405180519050600160a060020a0316631e13970b898860006040516020015260405160e060020a63ffffffff851602815260048101929092526024820152604401602060405180830381600087803b15156112e757600080fd5b6102c65a03f115156112f857600080fd5b50505060405180519050151561130d57600080fd5b60008054600160a060020a0316906324a793c490604051602001526040518163ffffffff1660e060020a028152600401602060405180830381600087803b151561135657600080fd5b6102c65a03f1151561136757600080fd5b50505060405180519050600160a060020a031663f7105c058960006040516020015260405160e060020a63ffffffff84160281526004810191909152602401602060405180830381600087803b15156113bf57600080fd5b6102c65a03f115156113d057600080fd5b5050506040518051600154909350600160a060020a031690506342c366a589898986888b60006040516020015260405160e060020a63ffffffff89160281526004810196909652600160a060020a0394851660248701526044860193909352606485019190915260848401521660a482015260c401602060405180830381600087803b151561145e57600080fd5b6102c65a03f1151561146f57600080fd5b505050604051805190509050807f05763c5a99ca059f9fba5a40ed660f24ddd30b3a3d6f367bc071fbc22a79ffaf878988604051928352600160a060020a039182166020840152166040808301919091526060909101905180910390a260008054600160a060020a0316906324a793c490604051602001526040518163ffffffff1660e060020a028152600401602060405180830381600087803b151561151557600080fd5b6102c65a03f1151561152657600080fd5b50505060405180519050600160a060020a03166350ddca55898560405160e060020a63ffffffff851602815260048101929092526024820152604401600060405180830381600087803b151561157b57600080fd5b6102c65a03f1151561158c57600080fd5b509199985050505050505050505600a165627a7a723058201437dc464dae02b86b332e6ea7a88cfd45670917c10bb17eeb270df5035ee7e80029",
  "source": "// Copyright 2018 Energy Web Foundation\n// This file is part of the Origin Application brought to you by the Energy Web Foundation,\n// a global non-profit organization focused on accelerating blockchain technology across the energy sector, \n// incorporated in Zug, Switzerland.\n//\n// The Origin Application is free software: you can redistribute it and/or modify\n// it under the terms of the GNU General Public License as published by\n// the Free Software Foundation, either version 3 of the License, or\n// (at your option) any later version.\n// This is distributed in the hope that it will be useful,\n// but WITHOUT ANY WARRANTY and without an implied warranty of\n// MERCHANTABILITY or FITNESS FOR A PARTICULAR PURPOSE.  See the\n// GNU General Public License for more details, at <http://www.gnu.org/licenses/>.\n//\n// @authors: slock.it GmbH, Jonas Bentke, jonas.bentke@slock.it\n\npragma solidity ^0.4.17;\n\n/// @title The logic contract for the Certificate of Origin list\n/// @notice This contract provides the logic that determines how the data is stored\n/// @dev Needs a valid CertificateDB contract to function correctly\n\nimport \"./Owned.sol\";\nimport \"./RoleManagement.sol\";\nimport \"./UserDB.sol\";\nimport \"./CoO.sol\";\nimport \"./CertificateDB.sol\";\nimport \"./Updatable.sol\";\nimport \"./AssetProducingRegistryLogic.sol\";\n\ncontract CertificateLogic is RoleManagement, Updatable {\n\n    ///@notice The address of a CertificateDB contract\n    CertificateDB public certificateDb;\n\n    /// @notice Logs the creation of an event\n    event LogCreatedCertificate(uint indexed _certificateId, uint powerInW, address owner, address escrow);\n    /// @notice Logs the request of an retirement of a certificate\n    event LogRetireRequest(uint indexed _certificateId, bool _retire);\n\n    event LogCertificateOwnerChanged(uint indexed _certificateId, address _oldOwner, address _newOwner, address _oldEscrow, address _newEscrow);\n    \n    /// @notice Checks if the contract is initialized\n    modifier isInitialized() {\n        require(certificateDb != CertificateDB(0x0));\n        _;\n    }\n    \n    /// @notice Constructor\n    /// @param _coo The Master contract\n    function CertificateLogic(CoO _coo) RoleManagement(_coo) public {\n\n    }\n\n    /// @notice Initialises the contract by binding it to a logic contract\n    /// @param _database Sets the logic contract\n    function init(address _database) public onlyRole(RoleManagement.Role.TopAdmin) {\n        require(certificateDb == CertificateDB(0x0));\n        certificateDb = CertificateDB(_database);\n    }\n\n    /// @notice Creates a certificate of origin. Checks in the AssetRegistry if requested wh are available.\n    /// @param _assetId The id of the Certificate\n    /// @param _owner The owner of the Certificate\n    /// @param _powerInW The amount of Watts the Certificate holds\n    function createCertificate(uint _assetId, address _owner, uint _powerInW) \n        public \n        isInitialized\n        onlyAccount(address(cooContract.demandRegistry()) )  \n        returns (uint) \n    {\n        return createCertificateIntern(_assetId, _owner, _powerInW, 0x0);\n    }\n\n    /// @notice Creates a certificate of origin. Checks in the AssetRegistry if requested wh are available.\n    /// @param _assetId The id of the Certificate\n    /// @param _owner The owner of the Certificate\n    /// @param _powerInW The amount of Watts the Certificate holds\n    function createCertificateIntern(uint _assetId, address _owner, uint _powerInW, address _escrow) \n        internal \n        isInitialized  \n        returns (uint) \n    {\n        uint co = AssetProducingRegistryLogic(address(cooContract.assetProducingRegistry())).getCoSaved(_assetId, _powerInW);\n        require(AssetProducingRegistryLogic(address(cooContract.assetProducingRegistry())).useWhForCertificate(_assetId, _powerInW));\n        bytes32 dataLog = AssetProducingRegistryLogic(address(cooContract.assetProducingRegistry())).getLastSmartMeterReadFileHash(_assetId);\n        uint certId = certificateDb.createCertificate(_assetId, _owner, _powerInW, dataLog, co, _escrow);\n        LogCreatedCertificate(certId, _powerInW, _owner, _escrow);\n        AssetProducingRegistryLogic(address(cooContract.assetProducingRegistry())).setCO2UsedForCertificate(_assetId,co);\n        return certId;\n    }\n\n    /// @notice Creates a certificate of origin for the asset owner. Checks in the AssetRegistry if requested wh are available. \n    /// @dev the msg.sender (a matcher) will become the escrow-of that certificate and is allowed to change the change the ownership\n    /// @param _assetId The id of the Certificate\n    /// @param _powerInW The amount of Watts the Certificate holds\n    function createCertificateForAssetOwner(uint _assetId, uint _powerInW) \n        public \n        onlyRole(RoleManagement.Role.Matcher)\n        isInitialized  \n        returns (uint) \n    {\n        var ( , ownerAddress, , , , ) = AssetProducingRegistryLogic(address(cooContract.assetProducingRegistry())).getAssetGeneral(_assetId);\n        return createCertificateIntern(_assetId, ownerAddress, _powerInW, msg.sender);\n    }\n\n    /// @notice Request a certificate to retire. Only Certificate owner can retire\n    /// @param _id The id of the certificate\n    function retireCertificate(uint _id) public isInitialized() {\n       var (, owner, , retired,, ,,) = certificateDb.getCertificate(_id);\n        require(owner == msg.sender);\n        if (!retired) {\n            certificateDb.setCertificateEscrow(_id, 0x0);\n            certificateDb.retireCertificate(_id);\n            LogRetireRequest(_id, true);\n        }\n    }\n\n    /// @notice function to allow an escrow-address to change the ownership of a certificate\n    /// @dev this function can only be called by the demandLogic\n    /// @param _id the certificate-id\n    /// @param _newOwner the new owner of the certificate\n    function transferOwnershipByEscrow(uint _id, address _newOwner) \n        public \n        isInitialized \n        onlyAccount(address(cooContract.demandRegistry()) )  \n    {   \n           \n        address oldOwner;\n        bool retired;\n        address oldEscrow; \n        \n        ( ,oldOwner,,retired,,,oldEscrow,) = certificateDb.getCertificate(_id); \n\n        require(!retired);\n        certificateDb.setCertificateOwner(_id, _newOwner);\n        certificateDb.setCertificateEscrow(_id, 0x0);\n        LogCertificateOwnerChanged(_id, oldOwner, _newOwner, oldEscrow, 0x0);\n    }\n\n    /// @notice Sets a new owner for the certificate\n    /// @param _id The id of the certificate\n    /// @param _newOwner The address of the new owner of the certificate\n    function changeCertificateOwner(uint _id, address _newOwner) \n        public \n        isInitialized() \n        userExists(_newOwner) \n    {\n        require(msg.sender == certificateDb.getCertificateOwner(_id) && !(certificateDb.isRetired(_id)));\n        certificateDb.setCertificateOwner(_id, _newOwner);\n        \n        address oldOwner = certificateDb.getCertificateOwner(_id); \n        address oldEscrow = certificateDb.getCertificateEscrow(_id);\n\n        LogCertificateOwnerChanged(_id, oldOwner, _newOwner, oldEscrow, oldEscrow);\n\n    }\n\n    /// @notice Getter for a specific Certificate\n    /// @param _certificateId The id of the requested certificate\n    /// @return the certificate as single values\n    function getCertificate(uint _certificateId) public view returns (  uint _assetId, \n            address _owner, \n            uint _powerInW, \n            bool _retired, \n            bytes32 _dataLog, \n            uint _coSaved, \n            address _escrow, \n            uint _creationTime) \n    {\n        return certificateDb.getCertificate(_certificateId);\n    }\n\n    /// @notice Getter for a specific Certificate\n    /// @param _certificateId The id of the requested certificate\n    /// @return the certificate as single values\n    function getCertificateOwner(uint _certificateId) public view returns (address) {\n        return certificateDb.getCertificateOwner(_certificateId);\n    }\n\n    /// @notice Getter for a specific Certificate\n    /// @param _certificateId The id of the requested certificate\n    /// @return the certificate as single values\n    function isRetired(uint _certificateId) public view returns (bool) {\n        return certificateDb.isRetired(_certificateId);\n    }\n\n    /// @notice Getter for the length of the list of certificates\n    /// @return the length of the array\n    function getCertificateListLength() public view returns (uint) {\n        return certificateDb.getCertificateListLength();\n    }\n\n    /// @notice Updates the logic contract\n    /// @param _newLogic Address of the new logic contract\n    function update(address _newLogic) \n        external\n        onlyAccount(address(cooContract))\n    {\n        certificateDb.changeOwner(_newLogic);\n    }\n}",
  "sourcePath": "/Users/mkuechler/ewf/CoO/contracts/CertificateLogic.sol",
  "compiler": {
    "name": "solc",
    "version": "0.4.19+commit.c4cbbb05.Emscripten.clang"
  },
  "schemaVersion": "2.0.0",
  "updatedAt": "2018-04-09T15:13:13.244Z"
}