{
  "contractName": "CoO",
  "abi": [
    {
      "constant": true,
      "inputs": [],
      "name": "assetProducingRegistry",
      "outputs": [
        {
          "name": "",
          "type": "address"
        }
      ],
      "payable": false,
      "stateMutability": "view",
      "type": "function"
    },
    {
      "constant": true,
      "inputs": [],
      "name": "assetConsumingRegistry",
      "outputs": [
        {
          "name": "",
          "type": "address"
        }
      ],
      "payable": false,
      "stateMutability": "view",
      "type": "function"
    },
    {
      "constant": true,
      "inputs": [],
      "name": "userRegistry",
      "outputs": [
        {
          "name": "",
          "type": "address"
        }
      ],
      "payable": false,
      "stateMutability": "view",
      "type": "function"
    },
    {
      "constant": true,
      "inputs": [],
      "name": "owner",
      "outputs": [
        {
          "name": "",
          "type": "address"
        }
      ],
      "payable": false,
      "stateMutability": "view",
      "type": "function"
    },
    {
      "constant": true,
      "inputs": [],
      "name": "demandRegistry",
      "outputs": [
        {
          "name": "",
          "type": "address"
        }
      ],
      "payable": false,
      "stateMutability": "view",
      "type": "function"
    },
    {
      "constant": false,
      "inputs": [
        {
          "name": "_newOwner",
          "type": "address"
        }
      ],
      "name": "changeOwner",
      "outputs": [],
      "payable": false,
      "stateMutability": "nonpayable",
      "type": "function"
    },
    {
      "constant": true,
      "inputs": [],
      "name": "certificateRegistry",
      "outputs": [
        {
          "name": "",
          "type": "address"
        }
      ],
      "payable": false,
      "stateMutability": "view",
      "type": "function"
    },
    {
      "inputs": [],
      "payable": false,
      "stateMutability": "nonpayable",
      "type": "constructor"
    },
    {
      "anonymous": false,
      "inputs": [
        {
          "indexed": false,
          "name": "_newOwner",
          "type": "address"
        }
      ],
      "name": "LogChangeOwner",
      "type": "event"
    },
    {
      "constant": false,
      "inputs": [
        {
          "name": "_userRegistry",
          "type": "address"
        },
        {
          "name": "_assetProducingRegistry",
          "type": "address"
        },
        {
          "name": "_certificateRegistry",
          "type": "address"
        },
        {
          "name": "_demandRegistry",
          "type": "address"
        },
        {
          "name": "_assetConsumingRegistry",
          "type": "address"
        }
      ],
      "name": "init",
      "outputs": [],
      "payable": false,
      "stateMutability": "nonpayable",
      "type": "function"
    },
    {
      "constant": false,
      "inputs": [
        {
          "name": "_userRegistry",
          "type": "address"
        },
        {
          "name": "_assetProducingRegistry",
          "type": "address"
        },
        {
          "name": "_certificateRegistry",
          "type": "address"
        },
        {
          "name": "_demandRegistry",
          "type": "address"
        },
        {
          "name": "_assetConsumingRegistry",
          "type": "address"
        }
      ],
      "name": "update",
      "outputs": [],
      "payable": false,
      "stateMutability": "nonpayable",
      "type": "function"
    }
  ],
  "bytecode": "0x6060604052341561000f57600080fd5b60008054600160a060020a033316600160a060020a03199091161790556106e98061003b6000396000f30060606040526004361061007f5763ffffffff60e060020a60003504166324a793c48114610084578063359ef75b146100b3578063435b26be146100ec578063465f22f0146100ff5780635c7460d6146101365780638da5cb5b14610149578063a34b80b01461015c578063a6f9dae11461016f578063ced7f4491461018e575b600080fd5b341561008f57600080fd5b6100976101a1565b604051600160a060020a03909116815260200160405180910390f35b34156100be57600080fd5b6100ea600160a060020a03600435811690602435811690604435811690606435811690608435166101b0565b005b34156100f757600080fd5b6100976102fa565b341561010a57600080fd5b6100ea600160a060020a0360043581169060243581169060443581169060643581169060843516610309565b341561014157600080fd5b6100976105f6565b341561015457600080fd5b610097610605565b341561016757600080fd5b610097610614565b341561017a57600080fd5b6100ea600160a060020a0360043516610623565b341561019957600080fd5b6100976106ae565b600254600160a060020a031681565b60005433600160a060020a039081169116146101cb57600080fd5b600160a060020a038516158015906101eb5750600160a060020a03841615155b80156101ff5750600160a060020a03831615155b80156102135750600160a060020a03821615155b80156102275750600160a060020a03811615155b801561023c5750600154600160a060020a0316155b80156102515750600254600160a060020a0316155b80156102665750600354600160a060020a0316155b801561027b5750600454600160a060020a0316155b80156102905750600554600160a060020a0316155b151561029b57600080fd5b60018054600160a060020a0319908116600160a060020a03978816179091556002805482169587169590951790945560038054851693861693909317909255600480548416918516919091179055600580549092169216919091179055565b600554600160a060020a031681565b60005433600160a060020a0390811691161461032457600080fd5b600160a060020a038516156103b357600154600160a060020a0316631c1b87728660405160e060020a63ffffffff8416028152600160a060020a039091166004820152602401600060405180830381600087803b151561038357600080fd5b6102c65a03f1151561039457600080fd5b505060018054600160a060020a031916600160a060020a038816179055505b600160a060020a0384161561044257600254600160a060020a0316631c1b87728560405160e060020a63ffffffff8416028152600160a060020a039091166004820152602401600060405180830381600087803b151561041257600080fd5b6102c65a03f1151561042357600080fd5b505060028054600160a060020a031916600160a060020a038716179055505b600160a060020a038316156104d157600354600160a060020a0316631c1b87728460405160e060020a63ffffffff8416028152600160a060020a039091166004820152602401600060405180830381600087803b15156104a157600080fd5b6102c65a03f115156104b257600080fd5b505060038054600160a060020a031916600160a060020a038616179055505b600160a060020a0382161561056057600454600160a060020a0316631c1b87728360405160e060020a63ffffffff8416028152600160a060020a039091166004820152602401600060405180830381600087803b151561053057600080fd5b6102c65a03f1151561054157600080fd5b505060048054600160a060020a031916600160a060020a038516179055505b600160a060020a038116156105ef57600554600160a060020a0316631c1b87728260405160e060020a63ffffffff8416028152600160a060020a039091166004820152602401600060405180830381600087803b15156105bf57600080fd5b6102c65a03f115156105d057600080fd5b505060058054600160a060020a031916600160a060020a038416179055505b5050505050565b600154600160a060020a031681565b600054600160a060020a031681565b600454600160a060020a031681565b60005433600160a060020a0390811691161461063e57600080fd5b600160a060020a038116151561065357600080fd5b60008054600160a060020a031916600160a060020a0383161790557f95fd54179c11867fb083dd94347ea50f144dd4cfd7612b7bca169f162824af1681604051600160a060020a03909116815260200160405180910390a150565b600354600160a060020a0316815600a165627a7a72305820ef5edc627a0cda9816b3a571f72bc4801c63757cdf3bd055c97b9a8459e0da7d0029",
  "source": "// Copyright 2018 Energy Web Foundation\n// This file is part of the Origin Application brought to you by the Energy Web Foundation,\n// a global non-profit organization focused on accelerating blockchain technology across the energy sector, \n// incorporated in Zug, Switzerland.\n//\n// The Origin Application is free software: you can redistribute it and/or modify\n// it under the terms of the GNU General Public License as published by\n// the Free Software Foundation, either version 3 of the License, or\n// (at your option) any later version.\n// This is distributed in the hope that it will be useful,\n// but WITHOUT ANY WARRANTY and without an implied warranty of\n// MERCHANTABILITY or FITNESS FOR A PARTICULAR PURPOSE.  See the\n// GNU General Public License for more details, at <http://www.gnu.org/licenses/>.\n//\n// @authors: slock.it GmbH, Martin Kuechler, martin.kuchler@slock.it\n\npragma solidity ^0.4.17;\n\nimport \"./Owned.sol\";\nimport \"./Updatable.sol\";\n\n/// @title Contract for storing the current logic-contracts-addresses for the certificate of origin\ncontract CoO is Owned {\n\n    Updatable public userRegistry;\n    Updatable public assetProducingRegistry;\n    Updatable public certificateRegistry;\n    Updatable public demandRegistry;\n    Updatable public assetConsumingRegistry;\n\n    /// @notice The constructor of the UserDB\n    function CoO()\n        Owned(msg.sender) \n        public\n    {\n\n    } \n\n    /// @notice function to initialize the contracts, setting the needed contract-addresses\n    /// @param _userRegistry user-registry logic contract address\n    /// @param _assetProducingRegistry asset-registry logic contract address\n    /// @param _certificateRegistry certificate-registry logic contract address\n    function init(Updatable _userRegistry, Updatable _assetProducingRegistry, Updatable _certificateRegistry, Updatable _demandRegistry, Updatable _assetConsumingRegistry) \n        onlyOwner\n        external\n    {\n        require(    \n            _userRegistry != address(0) && _assetProducingRegistry != address(0) && _certificateRegistry != address(0) && _demandRegistry != address(0) && _assetConsumingRegistry != address(0)\n            && userRegistry == address(0) && assetProducingRegistry == address(0) && certificateRegistry == address(0) && demandRegistry == address(0) && assetConsumingRegistry == address(0)\n        );\n        userRegistry = _userRegistry;\n        assetProducingRegistry = _assetProducingRegistry;\n        certificateRegistry = _certificateRegistry;\n        demandRegistry = _demandRegistry;\n        assetConsumingRegistry = _assetConsumingRegistry;\n        \n    }\n\n    /// @notice function to update one or more logic-contracts\n    /// @param _userRegistry address of the new user-registry-logic-contract\n    /// @param _assetProducingRegistry address of the new asset-registry-logic-contract\n    /// @param _certificateRegistry address of the new certificate-registry-logic-contract\n    function update(Updatable _userRegistry, Updatable _assetProducingRegistry, Updatable _certificateRegistry, Updatable _demandRegistry, Updatable _assetConsumingRegistry)\n        onlyOwner \n        external\n    {\n        if (_userRegistry != address(0)) {\n           userRegistry.update(_userRegistry);\n            userRegistry = _userRegistry;\n        }\n\n        if (_assetProducingRegistry != address(0)) {\n            assetProducingRegistry.update(_assetProducingRegistry);\n            assetProducingRegistry = _assetProducingRegistry;\n        }\n\n        if (_certificateRegistry != address(0)) {\n            certificateRegistry.update(_certificateRegistry);\n            certificateRegistry = _certificateRegistry;\n        }\n\n        if (_demandRegistry != address(0)) {\n            demandRegistry.update(_demandRegistry);\n            demandRegistry = _demandRegistry;\n        }\n\n        if(_assetConsumingRegistry != address(0)) {\n            assetConsumingRegistry.update(_assetConsumingRegistry);\n            assetConsumingRegistry = _assetConsumingRegistry;\n        }        \n\n    }\n}",
  "sourcePath": "/Users/mkuechler/ewf/ewf-pushrepo/certificate_of_origin/contracts/CoO.sol",
  "compiler": {
    "name": "solc",
    "version": "0.4.19+commit.c4cbbb05.Emscripten.clang"
  },
  "schemaVersion": "2.0.0",
  "updatedAt": "2018-04-05T14:15:26.848Z"
}