{
  "contractName": "DemandLogic",
  "abi": [
    {
      "constant": true,
      "inputs": [],
      "name": "db",
      "outputs": [
        {
          "name": "",
          "type": "address"
        }
      ],
      "payable": false,
      "stateMutability": "view",
      "type": "function"
    },
    {
      "constant": true,
      "inputs": [],
      "name": "cooContract",
      "outputs": [
        {
          "name": "",
          "type": "address"
        }
      ],
      "payable": false,
      "stateMutability": "view",
      "type": "function"
    },
    {
      "constant": true,
      "inputs": [
        {
          "name": "_role",
          "type": "uint8"
        },
        {
          "name": "_caller",
          "type": "address"
        }
      ],
      "name": "isRole",
      "outputs": [
        {
          "name": "",
          "type": "bool"
        }
      ],
      "payable": false,
      "stateMutability": "view",
      "type": "function"
    },
    {
      "inputs": [
        {
          "name": "_cooContract",
          "type": "address"
        }
      ],
      "payable": false,
      "stateMutability": "nonpayable",
      "type": "constructor"
    },
    {
      "anonymous": false,
      "inputs": [
        {
          "indexed": false,
          "name": "sender",
          "type": "address"
        },
        {
          "indexed": true,
          "name": "_demandId",
          "type": "uint256"
        }
      ],
      "name": "createdEmptyDemand",
      "type": "event"
    },
    {
      "anonymous": false,
      "inputs": [
        {
          "indexed": true,
          "name": "_demandId",
          "type": "uint256"
        }
      ],
      "name": "LogDemandFullyCreated",
      "type": "event"
    },
    {
      "anonymous": false,
      "inputs": [
        {
          "indexed": true,
          "name": "_demandId",
          "type": "uint256"
        }
      ],
      "name": "LogDemandExpired",
      "type": "event"
    },
    {
      "anonymous": false,
      "inputs": [
        {
          "indexed": true,
          "name": "_demandId",
          "type": "uint256"
        },
        {
          "indexed": false,
          "name": "currentWhPerPeriod",
          "type": "uint256"
        },
        {
          "indexed": false,
          "name": "certInCurrentPeriod",
          "type": "uint256"
        },
        {
          "indexed": false,
          "name": "currentPeriod",
          "type": "uint256"
        },
        {
          "indexed": false,
          "name": "certID",
          "type": "uint256"
        }
      ],
      "name": "LogMatcherPropertiesUpdate",
      "type": "event"
    },
    {
      "constant": false,
      "inputs": [
        {
          "name": "_properties",
          "type": "bool[]"
        }
      ],
      "name": "createDemand",
      "outputs": [],
      "payable": false,
      "stateMutability": "nonpayable",
      "type": "function"
    },
    {
      "constant": false,
      "inputs": [
        {
          "name": "_dbAddress",
          "type": "address"
        }
      ],
      "name": "init",
      "outputs": [],
      "payable": false,
      "stateMutability": "nonpayable",
      "type": "function"
    },
    {
      "constant": false,
      "inputs": [
        {
          "name": "_demandId",
          "type": "uint256"
        },
        {
          "name": "_originator",
          "type": "address"
        },
        {
          "name": "_buyer",
          "type": "address"
        },
        {
          "name": "_startTime",
          "type": "uint256"
        },
        {
          "name": "_endTime",
          "type": "uint256"
        },
        {
          "name": "_tf",
          "type": "uint8"
        },
        {
          "name": "_pricePerCertifiedKWh",
          "type": "uint256"
        },
        {
          "name": "_currency",
          "type": "uint8"
        },
        {
          "name": "_prodAsset",
          "type": "uint256"
        },
        {
          "name": "_consAsset",
          "type": "uint256"
        }
      ],
      "name": "initGeneralAndCoupling",
      "outputs": [],
      "payable": false,
      "stateMutability": "nonpayable",
      "type": "function"
    },
    {
      "constant": false,
      "inputs": [
        {
          "name": "_demandId",
          "type": "uint256"
        },
        {
          "name": "_kWAmountPerPeriod",
          "type": "uint256"
        },
        {
          "name": "_productionLastSetInPeriod",
          "type": "uint256"
        },
        {
          "name": "_matcher",
          "type": "address"
        }
      ],
      "name": "initMatchProperties",
      "outputs": [],
      "payable": false,
      "stateMutability": "nonpayable",
      "type": "function"
    },
    {
      "constant": false,
      "inputs": [
        {
          "name": "_demandId",
          "type": "uint256"
        },
        {
          "name": "_locationCountry",
          "type": "bytes32"
        },
        {
          "name": "_locationRegion",
          "type": "bytes32"
        },
        {
          "name": "_type",
          "type": "uint8"
        },
        {
          "name": "_minCO2Offset",
          "type": "uint256"
        },
        {
          "name": "_registryCompliance",
          "type": "uint256"
        },
        {
          "name": "_otherGreenAttributes",
          "type": "bytes32"
        },
        {
          "name": "_typeOfPublicSupport",
          "type": "bytes32"
        }
      ],
      "name": "initPriceDriving",
      "outputs": [],
      "payable": false,
      "stateMutability": "nonpayable",
      "type": "function"
    },
    {
      "constant": false,
      "inputs": [
        {
          "name": "_demandId",
          "type": "uint256"
        },
        {
          "name": "_certificateId",
          "type": "uint256"
        }
      ],
      "name": "matchCertificate",
      "outputs": [],
      "payable": false,
      "stateMutability": "nonpayable",
      "type": "function"
    },
    {
      "constant": false,
      "inputs": [
        {
          "name": "_newLogic",
          "type": "address"
        }
      ],
      "name": "update",
      "outputs": [],
      "payable": false,
      "stateMutability": "nonpayable",
      "type": "function"
    },
    {
      "constant": true,
      "inputs": [
        {
          "name": "_demandId",
          "type": "uint256"
        }
      ],
      "name": "getActiveDemandIdAt",
      "outputs": [
        {
          "name": "",
          "type": "uint256"
        }
      ],
      "payable": false,
      "stateMutability": "view",
      "type": "function"
    },
    {
      "constant": true,
      "inputs": [],
      "name": "getActiveDemandListLength",
      "outputs": [
        {
          "name": "",
          "type": "uint256"
        }
      ],
      "payable": false,
      "stateMutability": "view",
      "type": "function"
    },
    {
      "constant": true,
      "inputs": [],
      "name": "getAllDemandListLength",
      "outputs": [
        {
          "name": "",
          "type": "uint256"
        }
      ],
      "payable": false,
      "stateMutability": "view",
      "type": "function"
    },
    {
      "constant": true,
      "inputs": [
        {
          "name": "_demandId",
          "type": "uint256"
        }
      ],
      "name": "getDemandCoupling",
      "outputs": [
        {
          "name": "producingAssets",
          "type": "uint256"
        },
        {
          "name": "consumingAssets",
          "type": "uint256"
        }
      ],
      "payable": false,
      "stateMutability": "view",
      "type": "function"
    },
    {
      "constant": true,
      "inputs": [
        {
          "name": "_demandId",
          "type": "uint256"
        }
      ],
      "name": "getDemandGeneral",
      "outputs": [
        {
          "name": "originator",
          "type": "address"
        },
        {
          "name": "buyer",
          "type": "address"
        },
        {
          "name": "startTime",
          "type": "uint256"
        },
        {
          "name": "endTime",
          "type": "uint256"
        },
        {
          "name": "timeframe",
          "type": "uint256"
        },
        {
          "name": "pricePerCertifiedKWh",
          "type": "uint256"
        },
        {
          "name": "currency",
          "type": "uint256"
        },
        {
          "name": "demandMask",
          "type": "uint256"
        }
      ],
      "payable": false,
      "stateMutability": "view",
      "type": "function"
    },
    {
      "constant": true,
      "inputs": [
        {
          "name": "_demandId",
          "type": "uint256"
        }
      ],
      "name": "getDemandMatcherProperties",
      "outputs": [
        {
          "name": "targetWhPerPeriod",
          "type": "uint256"
        },
        {
          "name": "currentWhPerPeriod",
          "type": "uint256"
        },
        {
          "name": "certInCurrentPeriod",
          "type": "uint256"
        },
        {
          "name": "productionLastSetInPeriod",
          "type": "uint256"
        },
        {
          "name": "matcher",
          "type": "address"
        }
      ],
      "payable": false,
      "stateMutability": "view",
      "type": "function"
    },
    {
      "constant": true,
      "inputs": [
        {
          "name": "_demandId",
          "type": "uint256"
        }
      ],
      "name": "getDemandPriceDriving",
      "outputs": [
        {
          "name": "locationCountry",
          "type": "bytes32"
        },
        {
          "name": "locationRegion",
          "type": "bytes32"
        },
        {
          "name": "assettype",
          "type": "uint256"
        },
        {
          "name": "minCO2Offset",
          "type": "uint256"
        },
        {
          "name": "registryCompliance",
          "type": "uint256"
        },
        {
          "name": "_otherGreenAttributes",
          "type": "bytes32"
        },
        {
          "name": "_typeOfPublicSupport",
          "type": "bytes32"
        },
        {
          "name": "isInit",
          "type": "bool"
        }
      ],
      "payable": false,
      "stateMutability": "view",
      "type": "function"
    },
    {
      "constant": true,
      "inputs": [
        {
          "name": "_demandId",
          "type": "uint256"
        }
      ],
      "name": "getExistStatus",
      "outputs": [
        {
          "name": "general",
          "type": "bool"
        },
        {
          "name": "priceDriving",
          "type": "bool"
        },
        {
          "name": "matchProp",
          "type": "bool"
        }
      ],
      "payable": false,
      "stateMutability": "view",
      "type": "function"
    },
    {
      "constant": false,
      "inputs": [
        {
          "name": "_demandId",
          "type": "uint256"
        }
      ],
      "name": "removeActiveDemand",
      "outputs": [],
      "payable": false,
      "stateMutability": "nonpayable",
      "type": "function"
    },
    {
      "constant": true,
      "inputs": [
        {
          "name": "_demandId",
          "type": "uint256"
        },
        {
          "name": "_prodAssetId",
          "type": "uint256"
        },
        {
          "name": "_wCreated",
          "type": "uint256"
        }
      ],
      "name": "checkDemandCoupling",
      "outputs": [
        {
          "name": "",
          "type": "bool"
        },
        {
          "name": "",
          "type": "string"
        }
      ],
      "payable": false,
      "stateMutability": "view",
      "type": "function"
    },
    {
      "constant": true,
      "inputs": [
        {
          "name": "_demandId",
          "type": "uint256"
        },
        {
          "name": "_prodAssetId",
          "type": "uint256"
        }
      ],
      "name": "checkDemandGeneral",
      "outputs": [
        {
          "name": "",
          "type": "address"
        },
        {
          "name": "",
          "type": "bool"
        },
        {
          "name": "",
          "type": "string"
        }
      ],
      "payable": false,
      "stateMutability": "view",
      "type": "function"
    },
    {
      "constant": true,
      "inputs": [
        {
          "name": "_demandId",
          "type": "uint256"
        },
        {
          "name": "_wCreated",
          "type": "uint256"
        }
      ],
      "name": "checkMatcher",
      "outputs": [
        {
          "name": "",
          "type": "uint256"
        },
        {
          "name": "",
          "type": "uint256"
        },
        {
          "name": "",
          "type": "uint256"
        },
        {
          "name": "",
          "type": "bool"
        },
        {
          "name": "",
          "type": "string"
        }
      ],
      "payable": false,
      "stateMutability": "view",
      "type": "function"
    },
    {
      "constant": true,
      "inputs": [
        {
          "name": "_demandId",
          "type": "uint256"
        },
        {
          "name": "_prodAssetId",
          "type": "uint256"
        },
        {
          "name": "_wCreated",
          "type": "uint256"
        },
        {
          "name": "_co2Saved",
          "type": "uint256"
        }
      ],
      "name": "checkPriceDriving",
      "outputs": [
        {
          "name": "",
          "type": "bool"
        },
        {
          "name": "",
          "type": "string"
        }
      ],
      "payable": false,
      "stateMutability": "view",
      "type": "function"
    },
    {
      "constant": true,
      "inputs": [
        {
          "name": "_demandId",
          "type": "uint256"
        }
      ],
      "name": "getCurrentPeriod",
      "outputs": [
        {
          "name": "",
          "type": "uint256"
        }
      ],
      "payable": false,
      "stateMutability": "view",
      "type": "function"
    },
    {
      "constant": true,
      "inputs": [
        {
          "name": "_demandId",
          "type": "uint256"
        },
        {
          "name": "_whAmountPerPeriod",
          "type": "uint256"
        }
      ],
      "name": "getMaxEnergyCoupling",
      "outputs": [
        {
          "name": "",
          "type": "uint256"
        }
      ],
      "payable": false,
      "stateMutability": "view",
      "type": "function"
    },
    {
      "constant": true,
      "inputs": [
        {
          "name": "_demandArray",
          "type": "bool[]"
        }
      ],
      "name": "createDemandBitmask",
      "outputs": [
        {
          "name": "demandMask",
          "type": "uint256"
        }
      ],
      "payable": false,
      "stateMutability": "pure",
      "type": "function"
    },
    {
      "constant": true,
      "inputs": [
        {
          "name": "_props",
          "type": "uint8"
        },
        {
          "name": "_demandMask",
          "type": "uint256"
        }
      ],
      "name": "hasDemandPropertySet",
      "outputs": [
        {
          "name": "",
          "type": "bool"
        }
      ],
      "payable": false,
      "stateMutability": "pure",
      "type": "function"
    },
    {
      "constant": false,
      "inputs": [
        {
          "name": "_demandId",
          "type": "uint256"
        },
        {
          "name": "_wCreated",
          "type": "uint256"
        },
        {
          "name": "_prodAssetId",
          "type": "uint256"
        }
      ],
      "name": "matchDemand",
      "outputs": [],
      "payable": false,
      "stateMutability": "nonpayable",
      "type": "function"
    }
  ],
  "bytecode": "0x6060604052341561000f57600080fd5b6040516020806143e88339810160405280805160008054600160a060020a03909216600160a060020a03199092169190911790555050614394806100546000396000f3006060604052600436106101505763ffffffff60e060020a6000350416630a085b25811461015557806319ab453c146101b25780631c1b8772146101d35780631f368ac4146101f2578063214425981461023857806322684db01461026357806324095c8b14610279578063245c1007146102a757806340f48027146102bd5780634419bbdc1461036657806345555fa6146103795780634d655aff146103c857806359dc5b13146103f7578063655378061461040d57806370980259146104a957806378e8f75a146104d15780637afb5df514610520578063848f27b01461053c57806392710e431461055b578063a7cebdd91461060b578063ae7f119b1461063b578063afece8ae14610669578063b1f2cc9d14610687578063b8f082851461069a578063bb5a389e14610700578063c6bc1a7614610725578063e41fa9ce14610763578063f9e170db1461077c575b600080fd5b341561016057600080fd5b61016b60043561078f565b60405197885260208801969096526040808801959095526060870193909352608086019190915260a085015260c084015290151560e0830152610100909101905180910390f35b34156101bd57600080fd5b6101d1600160a060020a036004351661086a565b005b34156101de57600080fd5b6101d1600160a060020a03600435166108c7565b34156101fd57600080fd5b6101d1600435600160a060020a036024358116906044351660643560843560ff60a43581169060c4359060e43516610104356101243561094b565b341561024357600080fd5b610251600435602435610a95565b60405190815260200160405180910390f35b341561026e57600080fd5b610251600435610cbd565b341561028457600080fd5b6101d160043560243560443560ff6064351660843560a43560c43560e435610f4f565b34156102b257600080fd5b61025160043561109e565b34156102c857600080fd5b6102d6600435602435611129565b604051600160a060020a0384168152821515602082015260606040820181815290820183818151815260200191508051906020019080838360005b83811015610329578082015183820152602001610311565b50505050905090810190601f1680156103565780820380516001836020036101000a031916815260200191505b5094505050505060405180910390f35b341561037157600080fd5b610251611429565b341561038457600080fd5b61025160046024813581810190830135806020818102016040519081016040528093929190818152602001838360200280828437509496506114aa95505050505050565b34156103d357600080fd5b6103db6114ec565b604051600160a060020a03909116815260200160405180910390f35b341561040257600080fd5b6101d16004356114fb565b341561041857600080fd5b610429600435602435604435611639565b604051821515815260406020820181815290820183818151815260200191508051906020019080838360005b8381101561046d578082015183820152602001610455565b50505050905090810190601f16801561049a5780820380516001836020036101000a031916815260200191505b50935050505060405180910390f35b34156104b457600080fd5b6101d1600435602435604435600160a060020a0360643516611a1b565b34156104dc57600080fd5b6104e7600435611b72565b60405194855260208501939093526040808501929092526060840152600160a060020a03909116608083015260a0909101905180910390f35b341561052b57600080fd5b6101d1600435602435604435611c29565b341561054757600080fd5b610429600435602435604435606435611e75565b341561056657600080fd5b610574600435602435612479565b6040518581526020810185905260408101849052821515606082015260a06080820181815290820183818151815260200191508051906020019080838360005b838110156105cc5780820151838201526020016105b4565b50505050905090810190601f1680156105f95780820380516001836020036101000a031916815260200191505b50965050505050505060405180910390f35b341561061657600080fd5b61062760ff600435166024356126e4565b604051901515815260200160405180910390f35b341561064657600080fd5b610651600435612703565b60405191825260208201526040908101905180910390f35b341561067457600080fd5b6101d16004803560248101910135612799565b341561069257600080fd5b6103db6128fb565b34156106a557600080fd5b6106b060043561290a565b604051600160a060020a0398891681529690971660208701526040808701959095526060860193909352608085019190915260a084015260c083015260e082019290925261010001905180910390f35b341561070b57600080fd5b61062760ff60043516600160a060020a0360243516612985565b341561073057600080fd5b61073b600435612b00565b6040519215158352901515602083015215156040808301919091526060909101905180910390f35b341561076e57600080fd5b6101d1600435602435612cfa565b341561078757600080fd5b61025161307c565b6001546000908190819081908190819081908190600160a060020a031615156107b757600080fd5b600154600160a060020a0316630a085b258a6000604051610100015260405160e060020a63ffffffff8416028152600481019190915260240161010060405180830381600087803b151561080a57600080fd5b6102c65a03f1151561081b57600080fd5b5050506040518051906020018051906020018051906020018051906020018051906020018051906020018051906020018051905097509750975097509750975097509750919395975091939597565b60006108768133612985565b151561088157600080fd5b600154600160a060020a03161561089757600080fd5b506001805473ffffffffffffffffffffffffffffffffffffffff1916600160a060020a0392909216919091179055565b600054600160a060020a0390811690331681146108e357600080fd5b600154600160a060020a031663a6f9dae18360405160e060020a63ffffffff8416028152600160a060020a039091166004820152602401600060405180830381600087803b151561093357600080fd5b6102c65a03f1151561094457600080fd5b5050505050565b600060036109598133612985565b151561096457600080fd5b600154600160a060020a0316151561097b57600080fd5b6001548c90600160a060020a031663092b1ea18260006040516020015260405160e060020a63ffffffff84160281526004810191909152602401602060405180830381600087803b15156109ce57600080fd5b6102c65a03f115156109df57600080fd5b50505060405180511590506109f357600080fd5b600154600160a060020a031663c3324e278e60006040516020015260405160e060020a63ffffffff84160281526004810191909152602401602060405180830381600087803b1515610a4457600080fd5b6102c65a03f11515610a5557600080fd5b505050604051805190509250610a718d8d8d8d8d8d8d8d6130de565b610a7d8d86868661319a565b610a868d6133db565b50505050505050505050505050565b6001546000908190819081908190610b1790600790600160a060020a031663c3324e278a856040516020015260405160e060020a63ffffffff84160281526004810191909152602401602060405180830381600087803b1515610af757600080fd5b6102c65a03f11515610b0857600080fd5b505050604051805190506126e4565b1515610b2557859450610cb3565b600154600160a060020a031663ae7f119b8860006040516040015260405160e060020a63ffffffff841602815260048101919091526024016040805180830381600087803b1515610b7557600080fd5b6102c65a03f11515610b8657600080fd5b505050604051805190602001805160008054919750600160a060020a03909116925063435b26be9150604051602001526040518163ffffffff1660e060020a028152600401602060405180830381600087803b1515610be457600080fd5b6102c65a03f11515610bf557600080fd5b50505060405180519050600160a060020a031663312f9a8c8560006040516060015260405160e060020a63ffffffff84160281526004810191909152602401606060405180830381600087803b1515610c4d57600080fd5b6102c65a03f11515610c5e57600080fd5b505050604051805190602001805190602001805190509250925092508115610ca65785831115610c8c578592505b828111610c9d578083039450610cb3565b60009450610cb3565b858111610c9d5780860394505b5050505092915050565b6001546000908190600160a060020a03161515610cd957600080fd5b600154600160a060020a031663a2c58f4b8460006040516020015260405160e060020a63ffffffff84160281526004810191909152602401602060405180830381600087803b1515610d2a57600080fd5b6102c65a03f11515610d3b57600080fd5b5050506040518051915060009050816003811115610d5557fe5b6003811115610d6057fe5b1415610deb576001546301e1338090600160a060020a03166371c574a68560006040516020015260405160e060020a63ffffffff84160281526004810191909152602401602060405180830381600087803b1515610dbd57600080fd5b6102c65a03f11515610dce57600080fd5b505050604051805190504203811515610de357fe5b049150610f49565b6001816003811115610df957fe5b6003811115610e0457fe5b1415610e605760015462278d0090600160a060020a03166371c574a68560006040516020015260405160e060020a63ffffffff84160281526004810191909152602401602060405180830381600087803b1515610dbd57600080fd5b6002816003811115610e6e57fe5b6003811115610e7957fe5b1415610ed5576001546201518090600160a060020a03166371c574a68560006040516020015260405160e060020a63ffffffff84160281526004810191909152602401602060405180830381600087803b1515610dbd57600080fd5b6003816003811115610ee357fe5b6003811115610eee57fe5b1415610f4957600154610e1090600160a060020a03166371c574a68560006040516020015260405160e060020a63ffffffff84160281526004810191909152602401602060405180830381600087803b1515610dbd57600080fd5b50919050565b600154600160a060020a03161515610f6657600080fd5b610f6f88613562565b600154600160a060020a031663f50c82e7898989600080808080808f6003811115610f9657fe5b8f8f8f8f6040518f63ffffffff1660e060020a028152600401808f81526020018e600019166000191681526020018d600019166000191681526020018c6001026000191681526020018b6001026000191681526020018a600102600019168152602001896001026000191681526020018860010260001916815260200187600102600019168152602001868152602001858152602001848152602001836000191660001916815260200182600019166000191681526020019e505050505050505050505050505050600060405180830381600087803b151561107757600080fd5b6102c65a03f1151561108857600080fd5b505050611094886133db565b5050505050505050565b600154600090600160a060020a031615156110b857600080fd5b600154600160a060020a031663245c10078360006040516020015260405160e060020a63ffffffff84160281526004810191909152602401602060405180830381600087803b151561110957600080fd5b6102c65a03f1151561111a57600080fd5b50505060405180519392505050565b600080611134614356565b60015460009081908190819081908190600160a060020a031663b8f082858c83604051610100015260405160e060020a63ffffffff8416028152600481019190915260240161010060405180830381600087803b151561119357600080fd5b6102c65a03f115156111a457600080fd5b50505060405180519060200180519060200180519060200180519060200180519060200180519060200180519060200180519050985050505095509550955095506000809054906101000a9004600160a060020a0316600160a060020a03166324a793c46000604051602001526040518163ffffffff1660e060020a028152600401602060405180830381600087803b151561123f57600080fd5b6102c65a03f1151561125057600080fd5b50505060405180519050600160a060020a031663ade1e9928b600060405160c0015260405160e060020a63ffffffff8416028152600481019190915260240160c060405180830381600087803b15156112a857600080fd5b6102c65a03f115156112b957600080fd5b50505060405180519060200180519060200180519060200180519060200180519060200180519050505050509150506112f36000836126e4565b1561134e57600160a060020a038681169082161461134e5760008060408051908101604052601081527f77726f6e67206f726967696e61746f72000000000000000000000000000000006020820152919a509850965061141c565b42841115801561135e5750428310155b80156113705750611370600582612985565b80156113825750611382600586612985565b80156113945750611394600482612985565b15156113dd5760008060408051908101604052601681527f737461727474696d65206f7220726f6c65636865636b000000000000000000006020820152919a509850965061141c565b84600160408051908101604052600d81527f65766572797468696e67206f6b000000000000000000000000000000000000006020820152919a50985096505b5050505050509250925092565b600154600090600160a060020a0316151561144357600080fd5b600154600160a060020a0316634419bbdc6000604051602001526040518163ffffffff1660e060020a028152600401602060405180830381600087803b151561148b57600080fd5b6102c65a03f1151561149c57600080fd5b505050604051805191505090565b6000805b600a8160ff161015610f4957828160ff16815181106114c957fe5b90602001906020020151156114e4578060ff1660020a820191505b6001016114ae565b600154600160a060020a031681565b600154600090600160a060020a031663b8f082858383604051610100015260405160e060020a63ffffffff8416028152600481019190915260240161010060405180830381600087803b151561155057600080fd5b6102c65a03f1151561156157600080fd5b5050506040518051906020018051906020018051906020018051906020018051906020018051906020018051906020018051905050505050935050505042811015156115ac57600080fd5b600154600160a060020a03166359dc5b138360405160e060020a63ffffffff84160281526004810191909152602401600060405180830381600087803b15156115f457600080fd5b6102c65a03f1151561160557600080fd5b505050817fda27ecb5ab79a3aa82cac6e2d90a41d8a6e8282fb5f183d6914902efdfe7259360405160405180910390a25050565b6000611643614356565b60015460009081908190819081908190600160a060020a031663ae7f119b8c836040516040015260405160e060020a63ffffffff841602815260048101919091526024016040805180830381600087803b151561169f57600080fd5b6102c65a03f115156116b057600080fd5b5050506040518051906020018051600154929850965061171c9160069150600160a060020a031663c3324e278e60006040516020015260405160e060020a63ffffffff84160281526004810191909152602401602060405180830381600087803b1515610af757600080fd5b156117685789861461176857600060408051908101604052601181527f77726f6e672070726f644173736574496400000000000000000000000000000060208201529098509650611a0d565b6001546117c090600790600160a060020a031663c3324e278e60006040516020015260405160e060020a63ffffffff84160281526004810191909152602401602060405180830381600087803b1515610af757600080fd5b156119f65760008054600160a060020a03169063435b26be90604051602001526040518163ffffffff1660e060020a028152600401602060405180830381600087803b151561180e57600080fd5b6102c65a03f1151561181f57600080fd5b50505060405180519050600160a060020a031663312f9a8c8660006040516060015260405160e060020a63ffffffff84160281526004810191909152602401606060405180830381600087803b151561187757600080fd5b6102c65a03f1151561188857600080fd5b5050506040518051906020018051906020018051905093509350935082156118fa578389830111156118f55760006040805190810160405280602081526020017f746f6f206d75636820656e6572677920666f72206d617820636170616369747981525097509750611a0d565b6119f6565b600154600160a060020a03166378e8f75a8c600060405160a0015260405160e060020a63ffffffff8416028152600481019190915260240160a060405180830381600087803b151561194b57600080fd5b6102c65a03f1151561195c57600080fd5b505050604051805190602001805190602001805190602001805190602001805190505050505090508089830111156119f6576000606060405190810160405280602881526020017f746f6f206d75636820656e6572677920666f7220666f7220636f6e73756d696e81526020017f672074617267657400000000000000000000000000000000000000000000000081525097509750611a0d565b600160206040519081016040526000815290985096505b505050505050935093915050565b6003611a278133612985565b1515611a3257600080fd5b600154600160a060020a03161515611a4957600080fd5b6001548590600160a060020a031663092b1ea18260006040516020015260405160e060020a63ffffffff84160281526004810191909152602401602060405180830381600087803b1515611a9c57600080fd5b6102c65a03f11515611aad57600080fd5b5050506040518051159050611ac157600080fd5b611acc600684612985565b1515611ad757600080fd5b600154600160a060020a031663572a76648787600080898960405160e060020a63ffffffff891602815260048101969096526024860194909452604485019290925260648401526084830152600160a060020a031660a482015260c401600060405180830381600087803b1515611b4d57600080fd5b6102c65a03f11515611b5e57600080fd5b505050611b6a866133db565b505050505050565b6001546000908190819081908190600160a060020a03161515611b9457600080fd5b600154600160a060020a03166378e8f75a87600060405160a0015260405160e060020a63ffffffff8416028152600481019190915260240160a060405180830381600087803b1515611be557600080fd5b6102c65a03f11515611bf657600080fd5b5050506040518051906020018051906020018051906020018051906020018051949b939a50919850965091945092505050565b6001546000908190819081908190600160a060020a03161515611c4b57600080fd5b611c5888888860006135f1565b600080549499509297509095509350600160a060020a039091169063ced7f44990604051602001526040518163ffffffff1660e060020a028152600401602060405180830381600087803b1515611cae57600080fd5b6102c65a03f11515611cbf57600080fd5b50505060405180519050600160a060020a0316632c76a1b687878a60006040516020015260405160e060020a63ffffffff86160281526004810193909352600160a060020a0390911660248301526044820152606401602060405180830381600087803b1515611d2e57600080fd5b6102c65a03f11515611d3f57600080fd5b5050506040518051600154909250600160a060020a03169050630261f91f8986868660405160e060020a63ffffffff87160281526004810194909452602484019290925260448301526064820152608401600060405180830381600087803b1515611da957600080fd5b6102c65a03f11515611dba57600080fd5b505050877f8eb83c87f750ce36eec871d7bf160a770ada774a9157dd18f24c8984c533750e858585856040518085815260200184815260200183815260200182815260200194505050505060405180910390a2600154611e6590600790600160a060020a031663c3324e278b60006040516020015260405160e060020a63ffffffff84160281526004810191909152602401602060405180830381600087803b1515610af757600080fd5b15611094576110948888846136c7565b6000611e7f614356565b6000806000611e8c614356565b6000881515611ed557600060408051908101604052601181527f6e6f20656e6572677920637265617465640000000000000000000000000000006020820152909750955061246b565b600154600160a060020a0316630a085b258c6000604051610100015260405160e060020a63ffffffff8416028152600481019190915260240161010060405180830381600087803b1515611f2857600080fd5b6102c65a03f11515611f3957600080fd5b5050506040518051906020018051906020018051906020018051906020018051906020018051906020018051906020018051905050505097509750505050611f818b8b613a62565b92509250821515611f975782829650965061246b565b611fa18b8b613cc0565b9093509150821515611fb85782829650965061246b565b60015461201090600290600160a060020a031663c3324e278e60006040516020015260405160e060020a63ffffffff84160281526004810191909152602401602060405180830381600087803b1515610af757600080fd5b1561213657600080548591600160a060020a03909116906324a793c490604051602001526040518163ffffffff1660e060020a028152600401602060405180830381600087803b151561206257600080fd5b6102c65a03f1151561207357600080fd5b50505060405180519050600160a060020a0316630bbb888a8c60006040516020015260405160e060020a63ffffffff84160281526004810191909152602401602060405180830381600087803b15156120cb57600080fd5b6102c65a03f115156120dc57600080fd5b5050506040518051905060038111156120f157fe5b1461213657600060408051908101604052601081527f77726f6e6720636f6d706c69616e6365000000000000000000000000000000006020820152909750955061246b565b60015461218e90600590600160a060020a031663c3324e278e60006040516020015260405160e060020a63ffffffff84160281526004810191909152602401602060405180830381600087803b1515610af757600080fd5b156122d55787151561226f5760008054600160a060020a0316906324a793c490604051602001526040518163ffffffff1660e060020a028152600401602060405180830381600087803b15156121e357600080fd5b6102c65a03f115156121f457600080fd5b50505060405180519050600160a060020a03166376b240ee8b8b60006040516020015260405160e060020a63ffffffff851602815260048101929092526024820152604401602060405180830381600087803b151561225257600080fd5b6102c65a03f1151561226357600080fd5b50505060405180519850505b600a89896103e80281151561228057fe5b0481151561228a57fe5b049050848110156122d557600060408051908101604052600981527f77726f6e6720434f3200000000000000000000000000000000000000000000006020820152909750955061246b565b60015461232d90600890600160a060020a031663c3324e278e60006040516020015260405160e060020a63ffffffff84160281526004810191909152602401602060405180830381600087803b1515610af757600080fd5b156123825761233c8b8b613feb565b151561238257600060408051908101604052601581527f77726f6e6720477265656e2041747472696275746500000000000000000000006020820152909750955061246b565b6001546123da90600990600160a060020a031663c3324e278e60006040516020015260405160e060020a63ffffffff84160281526004810191909152602401602060405180830381600087803b1515610af757600080fd5b1561242f576123e98b8b6141a1565b151561242f57600060408051908101604052601c81527f77726f6e672054797065206f66207075626c696320737570706f7274000000006020820152909750955061246b565b600160408051908101604052600d81527f65766572797468696e67204f4b00000000000000000000000000000000000000602082015290975095505b505050505094509492505050565b600080600080612487614356565b60015460009081908190819081908190600160a060020a03166378e8f75a8e8360405160a0015260405160e060020a63ffffffff8416028152600481019190915260240160a060405180830381600087803b15156124e457600080fd5b6102c65a03f115156124f557600080fd5b505050604051805190602001805190602001805190602001805190602001805190509550955095509550955061252b8d87610a95565b955033600160a060020a031682600160a060020a03161415156125925760008080806040805190810160405280600d81526020017f77726f6e67206d617463686572000000000000000000000000000000000000008152509a509a509a509a509a506126d4565b61259b8d610cbd565b9050828114156125fe57858c860111156125f95760008080806040805190810160405280601581526020017f746f6f206d756368207768506572506572696f646500000000000000000000008152509a509a509a509a509a506126d4565b612683565b858c1115612677576000808080606060405190810160405280603581526020017f746f6f206d756368207768506572506572696f646520616e642063757272656e81526020017f74506572696f6420213d206c617374506572696f6400000000000000000000008152509a509a509a509a509a506126d4565b80925060009450600093505b8b8501945060018401935084848260016040805190810160405280600d81526020017f65766572797468696e67204f4b000000000000000000000000000000000000008152509a509a509a509a509a505b5050505050509295509295909350565b6000808360098111156126f357fe5b60020a9290921615159392505050565b6001546000908190600160a060020a0316151561271f57600080fd5b600154600160a060020a031663ae7f119b8460006040516040015260405160e060020a63ffffffff841602815260048101919091526024016040805180830381600087803b151561276f57600080fd5b6102c65a03f1151561278057600080fd5b5050506040518051906020018051905091509150915091565b600154600090600160a060020a031615156127b357600080fd5b60036127bf8133612985565b15156127ca57600080fd5b838360008181106127d757fe5b90506020020135151580156127fe5750838360068181106127f457fe5b9050602002013515155b1561280857600080fd5b600a831461281557600080fd5b600154600160a060020a031663d6ff617161285b8686806020808202016040519081016040528093929190818152602001838360200280828437506114aa945050505050565b60006040516020015260405160e060020a63ffffffff84160281526004810191909152602401602060405180830381600087803b151561289a57600080fd5b6102c65a03f115156128ab57600080fd5b505050604051805190509150817f87a0cb5f9af3555b8420cc73923fe220f28e62c7c584c6ef1bbf08ea1874817933604051600160a060020a03909116815260200160405180910390a250505050565b600054600160a060020a031681565b6001546000908190819081908190819081908190600160a060020a0316151561293257600080fd5b600154600160a060020a031663b8f082858a6000604051610100015260405160e060020a63ffffffff8416028152600481019190915260240161010060405180830381600087803b151561080a57600080fd5b6000805481908190600160a060020a038086169116638da5cb5b83604051602001526040518163ffffffff1660e060020a028152600401602060405180830381600087803b15156129d557600080fd5b6102c65a03f115156129e657600080fd5b50505060405180519050600160a060020a03161415612a085760019250612af8565b60008054600160a060020a031690635c7460d690604051602001526040518163ffffffff1660e060020a028152600401602060405180830381600087803b1515612a5157600080fd5b6102c65a03f11515612a6257600080fd5b50505060405180519050600160a060020a031663265209f28560006040516020015260405160e060020a63ffffffff8416028152600160a060020a039091166004820152602401602060405180830381600087803b1515612ac257600080fd5b6102c65a03f11515612ad357600080fd5b505050604051805190509150846006811115612aeb57fe5b60020a8281161515935090505b505092915050565b6001546000908190819081908190600160a060020a031663b8f082858783604051610100015260405160e060020a63ffffffff8416028152600481019190915260240161010060405180830381600087803b1515612b5d57600080fd5b6102c65a03f11515612b6e57600080fd5b50505060405180519060200180519060200180519060200180519060200180519060200180519060200180519060200180515050600154600160a060020a0380881615159d5096995090951695506378e8f75a94508b93506000925060409150505160a0015260405160e060020a63ffffffff8416028152600481019190915260240160a060405180830381600087803b1515612c0a57600080fd5b6102c65a03f11515612c1b57600080fd5b5050506040518051906020018051906020018051906020018051906020018051600154600160a060020a0380831615159a50919750169450630a085b2593508a9250600091506040905051610100015260405160e060020a63ffffffff8416028152600481019190915260240161010060405180830381600087803b1515612ca257600080fd5b6102c65a03f11515612cb357600080fd5b50505060405180519060200180519060200180519060200180519060200180519060200180519060200180519060200180519c9e9c9d50999b9a5050505050505050505050565b600154600090819081908190819081908190819081908190600160a060020a03161515612d2657600080fd5b60008054600160a060020a03169063ced7f44990604051602001526040518163ffffffff1660e060020a028152600401602060405180830381600087803b1515612d6f57600080fd5b6102c65a03f11515612d8057600080fd5b50505060405180519050600160a060020a03166351640fee8c6000604051610100015260405160e060020a63ffffffff8416028152600481019190915260240161010060405180830381600087803b1515612dda57600080fd5b6102c65a03f11515612deb57600080fd5b505050604051805190602001805190602001805190602001805190602001805190602001805190602001805190602001805190509b509b509b50509a509a5050995087158015612e41575042856301e133800110155b8015612e5e575085600160a060020a031633600160a060020a0316145b1515612e6957600080fd5b600154612ec190600790600160a060020a031663c3324e278f60006040516020015260405160e060020a63ffffffff84160281526004810191909152602401602060405180830381600087803b1515610af757600080fd5b15612ecb57600080fd5b612ed78c8a8c8a6135f1565b60015493975091955093509150600160a060020a0316630261f91f8d85858560405160e060020a63ffffffff87160281526004810194909452602484019290925260448301526064820152608401600060405180830381600087803b1515612f3e57600080fd5b6102c65a03f11515612f4f57600080fd5b505060008054600160a060020a0316915063ced7f44990604051602001526040518163ffffffff1660e060020a028152600401602060405180830381600087803b1515612f9b57600080fd5b6102c65a03f11515612fac57600080fd5b50505060405180519050600160a060020a031663cbbf9f388c8660405160e060020a63ffffffff85160281526004810192909252600160a060020a03166024820152604401600060405180830381600087803b151561300a57600080fd5b6102c65a03f1151561301b57600080fd5b5050508b7f8eb83c87f750ce36eec871d7bf160a770ada774a9157dd18f24c8984c533750e8484848f6040518085815260200184815260200183815260200182815260200194505050505060405180910390a2505050505050505050505050565b600154600090600160a060020a0316151561309657600080fd5b600154600160a060020a031663f9e170db6000604051602001526040518163ffffffff1660e060020a028152600401602060405180830381600087803b151561148b57600080fd5b600154600160a060020a0316631239726d898989898989600381111561310057fe5b8989600381111561310d57fe5b60405160e060020a63ffffffff8b160281526004810198909852600160a060020a0396871660248901529490951660448701526064860192909252608485015260a484015260c483019190915260e482015261010401600060405180830381600087803b151561317c57600080fd5b6102c65a03f1151561318d57600080fd5b5050505050505050505050565b6131a56006826126e4565b156132825760008054600160a060020a0316906324a793c490604051602001526040518163ffffffff1660e060020a028152600401602060405180830381600087803b15156131f357600080fd5b6102c65a03f1151561320457600080fd5b50505060405180519050600160a060020a031663c53fb1a58460006040516020015260405160e060020a63ffffffff84160281526004810191909152602401602060405180830381600087803b151561325c57600080fd5b6102c65a03f1151561326d57600080fd5b50505060405180519050151561328257600080fd5b61328d6007826126e4565b1561336a5760008054600160a060020a03169063435b26be90604051602001526040518163ffffffff1660e060020a028152600401602060405180830381600087803b15156132db57600080fd5b6102c65a03f115156132ec57600080fd5b50505060405180519050600160a060020a031663c53fb1a58360006040516020015260405160e060020a63ffffffff84160281526004810191909152602401602060405180830381600087803b151561334457600080fd5b6102c65a03f1151561335557600080fd5b50505060405180519050151561336a57600080fd5b600154600160a060020a031663803952fe85858560405160e060020a63ffffffff8616028152600481019390935260248301919091526044820152606401600060405180830381600087803b15156133c157600080fd5b6102c65a03f115156133d257600080fd5b50505050505050565b60008060006133e984612b00565b9250925092508280156133f95750815b80156134025750805b1561355c5760018054600160a060020a03169063e5c13dd190869060405160e060020a63ffffffff8516028152600481019290925215156024820152604401600060405180830381600087803b151561345a57600080fd5b6102c65a03f1151561346b57600080fd5b5050600154600160a060020a0316905063b03d8b2e8560405160e060020a63ffffffff84160281526004810191909152602401600060405180830381600087803b15156134b757600080fd5b6102c65a03f115156134c857600080fd5b5050600154600160a060020a03169050634620ce17854260405160e060020a63ffffffff851602815260048101929092526024820152604401600060405180830381600087803b151561351a57600080fd5b6102c65a03f1151561352b57600080fd5b505050837fe615050f08cb95f94b64bd011b01c936385857cac1059d475b5b4c42a3fdd9b060405160405180910390a25b50505050565b600154600160a060020a031663092b1ea18260006040516020015260405160e060020a63ffffffff84160281526004810191909152602401602060405180830381600087803b15156135b357600080fd5b6102c65a03f115156135c457600080fd5b50505060405180511590506135d857600080fd5b6135e3600333612985565b15156135ee57600080fd5b50565b6001546000908190819081908190819081908190600160a060020a0316151561361957600080fd5b6136228c612b00565b9350935093508380156136325750825b801561363b5750815b151561364657600080fd5b6136508c8b611129565b50909850905080151561366257600080fd5b61366e8c8b8d8c611e75565b50905080151561367d57600080fd5b6136878c8c612479565b509299509097509550905080151561369e57600080fd5b6136a98c8b8d611639565b5090508015156136b857600080fd5b50505050945094509450949050565b60015460009081908190600160a060020a031615156136e557600080fd5b600154600160a060020a03166378e8f75a87600060405160a0015260405160e060020a63ffffffff8416028152600481019190915260240160a060405180830381600087803b151561373657600080fd5b6102c65a03f1151561374757600080fd5b50505060405180519060200180519060200180519060200180519060200180515050600154909650600160a060020a0316925063ae7f119b915088905060006040516040015260405160e060020a63ffffffff841602815260048101919091526024016040805180830381600087803b15156137c257600080fd5b6102c65a03f115156137d357600080fd5b505050604051805190602001805193505050838314156139975760008054600160a060020a03169063435b26be90604051602001526040518163ffffffff1660e060020a028152600401602060405180830381600087803b151561383657600080fd5b6102c65a03f1151561384757600080fd5b50505060405180519050600160a060020a031663312f9a8c8360006040516060015260405160e060020a63ffffffff84160281526004810191909152602401606060405180830381600087803b151561389f57600080fd5b6102c65a03f115156138b057600080fd5b505050604051805190602001805190602001805160008054919550600160a060020a03909116935063435b26be92509050604051602001526040518163ffffffff1660e060020a028152600401602060405180830381600087803b151561391657600080fd5b6102c65a03f1151561392757600080fd5b50505060405180519050600160a060020a031663a861c6ef8383880160405160e060020a63ffffffff851602815260048101929092526024820152604401600060405180830381600087803b151561397e57600080fd5b6102c65a03f1151561398f57600080fd5b505050611b6a565b60008054600160a060020a03169063435b26be90604051602001526040518163ffffffff1660e060020a028152600401602060405180830381600087803b15156139e057600080fd5b6102c65a03f115156139f157600080fd5b50505060405180519050600160a060020a031663a861c6ef838760405160e060020a63ffffffff851602815260048101929092526024820152604401600060405180830381600087803b1515613a4657600080fd5b6102c65a03f11515613a5757600080fd5b505050505050505050565b6000613a6c614356565b60018054600091613ac491600160a060020a031663c3324e2788856040516020015260405160e060020a63ffffffff84160281526004810191909152602401602060405180830381600087803b1515610af757600080fd5b15613ca157600154600160a060020a0316630a085b25866000604051610100015260405160e060020a63ffffffff8416028152600481019190915260240161010060405180830381600087803b1515613b1c57600080fd5b6102c65a03f11515613b2d57600080fd5b5050506040518051906020018051906020018051906020018051906020018051906020018051906020018051906020018051505060008054959850600160a060020a0390951696506324a793c495506040935050505051602001526040518163ffffffff1660e060020a028152600401602060405180830381600087803b1515613bb657600080fd5b6102c65a03f11515613bc757600080fd5b50505060405180519050600160a060020a0316639a4b8c0d8560006040516020015260405160e060020a63ffffffff84160281526004810191909152602401602060405180830381600087803b1515613c1f57600080fd5b6102c65a03f11515613c3057600080fd5b505050604051805190506003811115613c4557fe5b816003811115613c5157fe5b6003811115613c5c57fe5b14613ca157600060408051908101604052601081527f77726f6e6720617373657420747970650000000000000000000000000000000060208201529093509150613cb8565b600160206040519081016040526000815290935091505b509250929050565b6000613cca614356565b600154600090819081908190613d2a90600390600160a060020a031663c3324e278b856040516020015260405160e060020a63ffffffff84160281526004810191909152602401602060405180830381600087803b1515610af757600080fd5b15613fc95760008054600160a060020a0316906324a793c490604051602001526040518163ffffffff1660e060020a028152600401602060405180830381600087803b1515613d7857600080fd5b6102c65a03f11515613d8957600080fd5b50505060405180519050600160a060020a0316631314394d886000604051610100015260405160e060020a63ffffffff8416028152600481019190915260240161010060405180830381600087803b1515613de357600080fd5b6102c65a03f11515613df457600080fd5b50505060405180519060200180519060200180519060200180519060200180519060200180519060200180519060200180515050600154969a5094985050600160a060020a039094169350630a085b2592508b915060009050604051610100015260405160e060020a63ffffffff8416028152600481019190915260240161010060405180830381600087803b1515613e8c57600080fd5b6102c65a03f11515613e9d57600080fd5b50505060405180519060200180519060200180519060200180519060200180519060200180519060200180519060200180515096985094965050508786149350613f259250505057600060408051908101604052600d81527f77726f6e6720636f756e7472790000000000000000000000000000000000000060208201529096509450613fe0565b600154613f7d90600490600160a060020a031663c3324e278b60006040516020015260405160e060020a63ffffffff84160281526004810191909152602401602060405180830381600087803b1515610af757600080fd5b15613fc957808314613fc957600060408051908101604052600c81527f77726f6e6720726567696f6e000000000000000000000000000000000000000060208201529096509450613fe0565b600160206040519081016040526000815290965094505b505050509250929050565b60015460009081908190600160a060020a0316630a085b258683604051610100015260405160e060020a63ffffffff8416028152600481019190915260240161010060405180830381600087803b151561404457600080fd5b6102c65a03f1151561405557600080fd5b5050506040518051906020018051906020018051906020018051906020018051906020018051906020018051906020018051505060008054929950600160a060020a0390921696506324a793c4955090935060409250505051602001526040518163ffffffff1660e060020a028152600401602060405180830381600087803b15156140e057600080fd5b6102c65a03f115156140f157600080fd5b50505060405180519050600160a060020a031663883583ce856000604051610100015260405160e060020a63ffffffff8416028152600481019190915260240161010060405180830381600087803b151561414b57600080fd5b6102c65a03f1151561415c57600080fd5b505050604051805190602001805190602001805190602001805190602001805190602001805190602001805190602001805150509097149a9950505050505050505050565b60015460009081908190600160a060020a0316630a085b258683604051610100015260405160e060020a63ffffffff8416028152600481019190915260240161010060405180830381600087803b15156141fa57600080fd5b6102c65a03f1151561420b57600080fd5b5050506040518051906020018051906020018051906020018051906020018051906020018051906020018051906020018051505060008054919950600160a060020a0390911696506324a793c49550935060409250505051602001526040518163ffffffff1660e060020a028152600401602060405180830381600087803b151561429557600080fd5b6102c65a03f115156142a657600080fd5b50505060405180519050600160a060020a031663883583ce856000604051610100015260405160e060020a63ffffffff8416028152600481019190915260240161010060405180830381600087803b151561430057600080fd5b6102c65a03f1151561431157600080fd5b50505060405180519060200180519060200180519060200180519060200180519060200180519060200180519060200180519099149c9b505050505050505050505050565b602060405190810160405260008152905600a165627a7a72305820f568aa0c6215434859bdaefeb4e1c0acc65c3cb66d0b1ab834b4b5455c8d0ea00029",
  "source": "// Copyright 2018 Energy Web Foundation\n// This file is part of the Origin Application brought to you by the Energy Web Foundation,\n// a global non-profit organization focused on accelerating blockchain technology across the energy sector, \n// incorporated in Zug, Switzerland.\n//\n// The Origin Application is free software: you can redistribute it and/or modify\n// it under the terms of the GNU General Public License as published by\n// the Free Software Foundation, either version 3 of the License, or\n// (at your option) any later version.\n// This is distributed in the hope that it will be useful,\n// but WITHOUT ANY WARRANTY and without an implied warranty of\n// MERCHANTABILITY or FITNESS FOR A PARTICULAR PURPOSE.  See the\n// GNU General Public License for more details, at <http://www.gnu.org/licenses/>.\n//\n// @authors: slock.it GmbH, Martin Kuechler, martin.kuchler@slock.it\npragma solidity 0.4.19;\n\nimport \"./DemandDb.sol\";\nimport \"./RoleManagement.sol\";\nimport \"./CertificateLogic.sol\";\nimport \"./Updatable.sol\";\nimport \"./CoO.sol\";\nimport \"./AssetProducingRegistryLogic.sol\";\nimport \"./AssetConsumingRegistryLogic.sol\";\n\n\n/// @title The logic contract for the AgreementDB of Origin list\ncontract DemandLogic is RoleManagement, Updatable {\n\n    /// @notice database contract\n    DemandDB public db;\n\n    event createdEmptyDemand(address sender, uint indexed _demandId);\n    event LogDemandFullyCreated(uint indexed _demandId);\n    event LogDemandExpired(uint indexed _demandId);\n    event LogMatcherPropertiesUpdate(uint indexed _demandId, uint currentWhPerPeriod, uint certInCurrentPeriod, uint currentPeriod, uint certID);\n\n    enum TimeFrame{\n        yearly,\n        monthly,\n        daily,\n        hourly\n    }   \n\n    enum Currency{\n        Euro,\n        USD,\n        SingaporeDollar,\n        Ether\n    }\n\n    /*\n    none:                0x0...0000000000\n    originator:          0x0...---------1\n    assetTyoe:           0x0...--------1-\n    complaince:          0x0...-------1--\n    country:             0x0...------1---\n    region:              0x0...-----1----\n    minCO2:              0x0...----1-----\n    producing            0x0...---1------\n    consuming            0x0...--1-------\n    otherGreenAttributes 0x0...-1--------\n    typeOfPublicSupport  0x0...1---------\n    */\n    enum DemandProperties {\n        originator,\n        assetType, \n        compliance, \n        country, \n        region, \n        minCO2, \n        producing, \n        consuming, \n        otherGreenAttributes,\n        typeOfPublicSupport\n    }\n\n    modifier isInitialized {\n        require((db) != address(0x0));\n        _;\n    }\n\n    modifier doesNotExist(uint _demandId) {\n        require(!db.demandExists(_demandId));\n        _;\n    }\n\n    /// @notice constructor\n    /// @param _cooContract coo-contract\n    function DemandLogic(CoO _cooContract) \n        public\n        RoleManagement(_cooContract) \n    {\n  \n    }\n\n    /// @notice Function to create an empty demand, functions initGeneralandCouplong, initMatcherProperties and initPricedriving have to be called in order to fully create a demandc\n    /// @param _properties array with the to be enabled demandproperties (see DemandProperties struct)\n    /// @dev will return an event with the event-Id\n    function createDemand(bool[] _properties)\n        external\n        isInitialized\n        onlyRole(RoleManagement.Role.AgreementAdmin)\n     {\n        // if the 1st and the 6th property are set (originator and producing) we will abort because those properties are not allowed to be set at the same time\n        if(_properties[0] && _properties[6]) revert();\n        require(_properties.length == 10);\n        uint demandID = db.createEmptyDemand(createDemandBitmask(_properties));\n        createdEmptyDemand(msg.sender, demandID);\n    }\n\n    /// @notice fuction to set the database contract, can only be called once\n    /// @param _dbAddress address of the database contract\n    function init(DemandDB _dbAddress) \n        external\n        onlyRole(RoleManagement.Role.TopAdmin)\n    {\n        require(address(db) == 0x0);\n        db = _dbAddress;\n    }\n\n    /// @notice function to create a demand and coupling of a new demand, should be called 1st\n    /// @param _demandId identifier\n    /// @param _originator address of an energy-producer, can be 0x0\n    /// @param _buyer address oh the buyer\n    /// @param _pricePerCertifiedKWh price per certified kWh\n    /// @param _currency currency to be used\n    /// @param _tf timeFrame\n    /// @param _prodAsset array with producing assets, can be empty\n    /// @param _consAsset array with consuming assets, can be empty \n    function initGeneralAndCoupling(\n        uint _demandId,\n        address _originator,\n        address _buyer,\n        uint _startTime,   \n        uint _endTime,\n        TimeFrame _tf,     \n        uint _pricePerCertifiedKWh,\n        Currency _currency,\n        uint _prodAsset,\n        uint _consAsset\n    )\n        external\n        onlyRole(RoleManagement.Role.AgreementAdmin)\n        isInitialized\n        doesNotExist(_demandId)\n    {\n        uint demandMask = db.getDemandMask(_demandId);\n        createGeneralDemandInternal( \n             _demandId,\n             _originator,\n             _buyer,\n             _startTime,   \n             _endTime,\n             _tf,     \n             _pricePerCertifiedKWh,\n             _currency);\n        createCouplingInternal(_demandId, _prodAsset, _consAsset, demandMask);\n        checkForFullDemand(_demandId);\n\n    }\n\n    /// @notice function to create the matcher-properties\n    /// @param _demandId identifier\n    /// @param _kWAmountPerPeriod amounts of KW per Period\n    /// @param _productionLastSetInPeriod todo: needed?\n    /// @param _matcher address of the matcher\n    function initMatchProperties(\n        uint _demandId,\n        uint _kWAmountPerPeriod,\n        uint _productionLastSetInPeriod,\n        address _matcher\n    )\n        external\n        onlyRole(RoleManagement.Role.AgreementAdmin) \n        isInitialized\n        doesNotExist(_demandId)\n    {\n        require(isRole(RoleManagement.Role.Matcher,_matcher));\n        db.createMatchProperties(_demandId, _kWAmountPerPeriod, 0, 0, _productionLastSetInPeriod, _matcher);\n        checkForFullDemand(_demandId);\n    }\n\n    /// @notice function to create a priceDriving-struct\n    /// @param _demandId identifier\n    /// @param _locationCountry country where the energy should be generated\n    /// @param _locationRegion region where the energy should be generated\n    /// @param _type fueltype\n    /// @param _minCO2Offset CO2-offset\n    /// @param _registryCompliance compliance\n    /// @param _otherGreenAttributes other green attributes\n    /// @param _typeOfPublicSupport type of public support\n    function initPriceDriving(\n        uint _demandId,\n        bytes32 _locationCountry,\n        bytes32 _locationRegion,\n        AssetProducingRegistryLogic.AssetType _type,\n        uint _minCO2Offset,\n        uint _registryCompliance,\n        bytes32 _otherGreenAttributes,\n        bytes32 _typeOfPublicSupport\n        \n    )\n        external\n        isInitialized\n    {\n        // we can't use modifier for this function due to the stack limitation. So we have to call the checking function that checks the requirements while bypassing the stacklimit\n        checking(_demandId);\n        db.createPriceDriving( _demandId, _locationCountry, _locationRegion, 0x0, 0x0, 0x0, 0, 0x0, 0x0, uint(_type), _minCO2Offset, _registryCompliance, _otherGreenAttributes, _typeOfPublicSupport);\n        checkForFullDemand(_demandId);\n    }\n\n   \n\n    /// @notice function to match a certificate to a demand\n    /// @param _demandId the demand-id\n    /// @param _certificateId the id of a non retired certificate\n    function matchCertificate(uint _demandId, uint _certificateId) \n        external\n        isInitialized\n    {\n        // we get all the needed data from a certificate\n        var(prodAssetId, , powerInW, retired, , coSaved, escrow, creationTime) = CertificateLogic(address(cooContract.certificateRegistry())).getCertificate(_certificateId);\n       \n        // we accept only non retired certificates and they have to creates less then 1 year ago \n        // we also make sure that only the scrow-address (aka a matcher) is able to call this function\n        require(!retired && (creationTime + 365 days) >= now && msg.sender == escrow);\n        require(!hasDemandPropertySet(DemandProperties.consuming, db.getDemandMask(_demandId)));\n       \n        // we're trying to match the certificate to a demand. If there is a non-match the function will revert\n        var (owner, currentWhPerPeriod, certInCurrentPeriod, currentPeriod) = matchInternal(_demandId, powerInW, prodAssetId, coSaved);\n        \n        // at the end we have to update the matcher-properties \n        db.updateMatchProperties(_demandId, currentWhPerPeriod,certInCurrentPeriod, currentPeriod);\n        CertificateLogic(address(cooContract.certificateRegistry())).transferOwnershipByEscrow( _certificateId,  owner);\n        LogMatcherPropertiesUpdate(_demandId, currentWhPerPeriod, certInCurrentPeriod, currentPeriod, _certificateId);\n    }\n\n    /// @notice function for internal matching, gets called by both matchDemand and matchCertificate\n    /// @param _demandId demandid\n    /// @param _wCreated amount of power created\n    /// @param _prodAssetId id of the producing-asset\n    /// @param _co2Saved amount of CO2-saved\n    /// @return the owner, the new (increased) amount of CurrentWhPerPeriod, the new (increased) amount of certificatesCreated per period and the current period\n    function matchInternal(uint _demandId, uint _wCreated, uint _prodAssetId, uint _co2Saved)\n        internal\n        view\n        isInitialized \n        returns (address owner,  uint currentWhPerPeriod, uint certInCurrentPeriod, uint currentPeriod)\n    {\n        // we have to check if a demand with that identifier actually exists\n        var (generalExists, priceDrivingExists, matcherExists) = getExistStatus(_demandId);\n        require(generalExists && priceDrivingExists && matcherExists);\n        bool passCheck;\n       \n        // we're comparing the demand-properties\n        (owner, passCheck,) = checkDemandGeneral(_demandId, _prodAssetId);\n        require(passCheck);\n        (passCheck,) = checkPriceDriving(_demandId, _prodAssetId, _wCreated, _co2Saved);\n        require(passCheck);\n        (currentWhPerPeriod,certInCurrentPeriod, currentPeriod,passCheck,) = checkMatcher(_demandId, _wCreated); \n        require(passCheck);\n        (passCheck,) = checkDemandCoupling(_demandId, _prodAssetId, _wCreated);\n        require(passCheck);\n\n    }\n\n    /// @notice Updates the logic contract\n    /// @param _newLogic Address of the new logic contract\n    function update(address _newLogic) \n        external\n        onlyAccount(address(cooContract))\n    {\n        db.changeOwner(_newLogic);\n    }  \n\n    /// @notice funciton to retrieve the identifier-hash of an active demand \n    /// @param _demandId position in the array\n    /// @return identifier-hash\n    function getActiveDemandIdAt(uint _demandId) external isInitialized view returns (uint) {\n        return db.getActiveDemandIdAt(_demandId);\n    }\n\n    /// @notice function to return the length of the acticeDemands-array in the database\n    /// @return length if the activeDemands-array in the database\n    function getActiveDemandListLength() external isInitialized view returns (uint) {\n        return db.getActiveDemandListLength();\n    }\n\n    /// @notice function to return the length of the allDemands-array in the database\n    /// @return length of the allDemansa-array\n    function getAllDemandListLength() external isInitialized view returns (uint) {\n        return db.getAllDemandListLength();\n    }\n\n    /// @notice function to get the information if the coupling-struct\n    /// @param _demandId identifier\n    /// @return used timeFrame\n    function getDemandCoupling(uint _demandId)\n        external\n        view \n        isInitialized\n        returns(\n            uint producingAssets,\n            uint consumingAssets\n        ) \n    {\n       return db.getDemandCoupling(_demandId);\n    }\n\n    /// @notice function to retrieve the general informations of a demand\n    /// @param _demandId identifier of the demand\n    /// @return the originator, buyer, startTime, endTime, currency, coupled\n    function getDemandGeneral(uint _demandId)\n        external \n        isInitialized        \n        view \n        returns (\n            address originator,\n            address buyer,\n            uint startTime,\n            uint endTime,\n            uint timeframe,\n            uint pricePerCertifiedKWh,\n            uint currency,\n            uint demandMask\n        )\n    {\n        return db.getDemandGeneral(_demandId);\n    }\n\n    /// @notice function to get the matcher-properties of a demand\n    /// @param _demandId identifier\n    /// @return amount of Wh per Period, current Wh per Period, certificates in current Period, last Period where a consumption was set and the matcher-address\n    function getDemandMatcherProperties(uint _demandId)\n        external\n        view \n        isInitialized\n        returns (  \n            uint targetWhPerPeriod,\n            uint currentWhPerPeriod,\n            uint certInCurrentPeriod,\n            uint productionLastSetInPeriod,\n            address matcher\n        )\n    {\n       return db.getDemandMatcherProperties(_demandId);\n    }\n\n    /// @notice function to get the price-driving informations\n    /// @param _demandId identifier\n    /// @return location country and region, assettype, CO2-offset, compliance, green attributes and type of public support\n    function getDemandPriceDriving(uint _demandId)\n        external\n        view\n        isInitialized\n        returns (\n            bytes32 locationCountry,\n            bytes32 locationRegion,\n            uint assettype,\n            uint minCO2Offset,\n            uint registryCompliance,\n            bytes32 _otherGreenAttributes,\n            bytes32 _typeOfPublicSupport,\n            bool isInit\n        )\n    {\n      return db.getDemandPriceDriving(_demandId);\n    }\n\n    /// @notice function to get the existing status of the different demand-structs\n    /// @param _demandId identifier\n    /// @return returns existing of generalInformation, priceDriving and matcher-Properties\n    function getExistStatus(uint _demandId)\n        public\n        view \n        returns (bool general, bool priceDriving, bool matchProp )\n    {\n       var(,buyer,,,,,,) = db.getDemandGeneral(_demandId);\n       general = (buyer != address(0));\n       var(,,,,matcher) = db.getDemandMatcherProperties(_demandId);\n       matchProp = (matcher != address(0));\n       (,,,,priceDriving) = db.getDemandPriceDriving(_demandId);\n\n    }\n    /// @notice funciton to remove an active demand, can only be successfully processed if the the endTime already passed\n    /// @param _demandId index of the demand in the activeDemands-array\n    function removeActiveDemand(uint _demandId)\n        public \n    {\n        var ( , , , endTime, , , , ) = db.getDemandGeneral(_demandId);\n        require(endTime < now);\n        db.removeActiveDemand( _demandId);\n        LogDemandExpired(_demandId);\n    }\n\n    /// @notice function to check the coupling properties of a demand\n    /// @param _demandId demand-Id\n    /// @param _prodAssetId production-asset id\n    /// @param _wCreated amount of Wh created\n    /// @return flag if the check was successfull and a string with the result\n    function checkDemandCoupling(uint _demandId, uint _prodAssetId, uint _wCreated)\n        public\n        view \n        returns (bool, string)\n    {\n        var (prodAsset, consAsset ) = db.getDemandCoupling(_demandId);\n\n        if (hasDemandPropertySet(DemandProperties.producing, db.getDemandMask(_demandId))) {\n           if (_prodAssetId != prodAsset)\n            return (false, \"wrong prodAssetId\");\n        }\n\n        if (hasDemandPropertySet(DemandProperties.consuming, db.getDemandMask(_demandId))) {\n          var (capacityWh, maxCapacitySet, certificatesUsedForWh) = AssetConsumingRegistryLogic(address(cooContract.assetConsumingRegistry())).getConsumingProperies(consAsset); \n               \n            if(maxCapacitySet){\n                if(certificatesUsedForWh + _wCreated > capacityWh )\n                    return (false, \"too much energy for max capacity\");\n            } else {\n                var(wHAmountPerperiod, , , , ) = db.getDemandMatcherProperties(_demandId);\n                if(certificatesUsedForWh + _wCreated > wHAmountPerperiod)\n                    return (false, \"too much energy for for consuming target\");\n            }\n            \n        }\n        return(true,\"\");\n    }\n\n    /// @notice function to check the fitting of the general-demand information with a matching\n    /// @param _demandId identifier\n    /// @param _prodAssetId asset-id that produced some energy\n    /// @return originator-address, coupled-flag, if there was an error and what check failed\n    function checkDemandGeneral(uint _demandId, uint _prodAssetId)\n        public\n        view\n        returns (address, bool, string)\n    {\n        var   ( originator, buyer, startTime, endTime, , , ,demandMask) = db.getDemandGeneral(_demandId);\n        var ( , owner, , , , ) = AssetProducingRegistryLogic(address(cooContract.assetProducingRegistry())).getAssetGeneral(_prodAssetId);\n        \n        if(hasDemandPropertySet(DemandProperties.originator, demandMask)){\n            if(originator != owner)\n                return (0x0, false, \"wrong originator\");   \n        }\n        if(!( \n           startTime <= now && \n           endTime >= now\n           && isRole(RoleManagement.Role.Trader,owner) \n           && isRole(RoleManagement.Role.Trader, buyer)\n           && isRole(RoleManagement.Role.AssetManager, owner) \n        )) return (0x0, false, \"starttime or rolecheck\");\n        return (buyer, true, \"everything ok\");\n    }\n\n    /// @notice function to check the matcher-properties\n    /// @param _demandId identifier\n    /// @param _wCreated Wh created \n    /// @return currentWhPerPeriod, certInCurrentPeriod, currentPeriod, if there was an error and what check failed\n    function checkMatcher(uint _demandId, uint _wCreated)\n        public\n        view \n        returns (uint , uint , uint, bool, string )\n    {\n\n        var( whAmountPerPeriod, currentWhPerPeriod, certInCurrentPeriod, lastPeriod, matcher) = db.getDemandMatcherProperties(_demandId);\n        whAmountPerPeriod = getMaxEnergyCoupling(_demandId, whAmountPerPeriod);\n        if (matcher != msg.sender) return (0,0,0, false, \"wrong matcher\");\n      \n        uint currentPeriod = getCurrentPeriod(_demandId);\n\n        if (currentPeriod == lastPeriod) {\n            if(currentWhPerPeriod+_wCreated > whAmountPerPeriod) return (0,0,0, false, \"too much whPerPeriode\");  \n         }            \n            else {\n                if(_wCreated > whAmountPerPeriod) return (0,0,0, false, \"too much whPerPeriode and currentPeriod != lastPeriod\");\n                lastPeriod = currentPeriod;\n                currentWhPerPeriod = 0;\n                certInCurrentPeriod = 0;\n            }\n        currentWhPerPeriod += _wCreated;\n        certInCurrentPeriod += 1;\n        \n        return (currentWhPerPeriod, certInCurrentPeriod, currentPeriod, true, \"everything OK\");\n        \n    }\n    /// @notice function to check the priceDriving-oarameters for the matching\n    /// @param _demandId identifier\n    /// @param _prodAssetId the producing asset-id\n    /// @param _wCreated the amount of energy created\n    /// @param _co2Saved the amount of CO2 saved\n    /// @return if there was an error and what check failed\n    function checkPriceDriving(uint _demandId, uint _prodAssetId, uint _wCreated, uint _co2Saved)\n        public\n        view\n        returns (bool, string)\n    {\n        if(_wCreated == 0) return (false, \"no energy created\");\n\n        var (,,, minCO2OffsetDemand, compliance,,,) = db.getDemandPriceDriving(_demandId);\n        \n        var(checkRes, error) = checkAssetType(_demandId, _prodAssetId);\n        if(!checkRes) return (checkRes,error);\n        (checkRes, error) = checkLocation(_demandId, _prodAssetId);\n        if(!checkRes) return (checkRes,error);\n\n        if(hasDemandPropertySet(DemandProperties.compliance, db.getDemandMask(_demandId))){\n           if(uint(AssetProducingRegistryLogic(cooContract.assetProducingRegistry()).getCompliance(_prodAssetId)) !=compliance) return (false, \"wrong compliance\");\n        }\n\n        if(hasDemandPropertySet(DemandProperties.minCO2, db.getDemandMask(_demandId))){\n            if(_co2Saved == 0)\n                _co2Saved = AssetProducingRegistryLogic(cooContract.assetProducingRegistry()).getCoSaved(_prodAssetId, _wCreated); \n            uint co2PerWh = ((_co2Saved * 1000) / _wCreated)/10;\n\n            if(co2PerWh < minCO2OffsetDemand)\n                return (false, \"wrong CO2\");\n        }\n\n        if(hasDemandPropertySet(DemandProperties.otherGreenAttributes, db.getDemandMask(_demandId))){\n            if(!checkGreenAttributes(_demandId, _prodAssetId)) return (false,\"wrong Green Attribute\");\n        }\n\n        if(hasDemandPropertySet(DemandProperties.typeOfPublicSupport, db.getDemandMask(_demandId))){\n            if(!checkTypeOfPublicSupport(_demandId, _prodAssetId)) return (false,\"wrong Type of public support\");\n        }\n\n        return (true,\"everything OK\");\n    }\n\n    /// @notice function to calculate the current Period for a demand\n    /// @param _demandId identifier\n    /// @return current Period \n    function getCurrentPeriod(uint _demandId) \n        public \n        view \n        isInitialized\n        returns (uint) \n    {\n        uint tf = db.getTimeFrame(_demandId);\n        if ( TimeFrame(tf) == TimeFrame.yearly) \n        {\n            return ( now - db.getStartEpoche(_demandId) ) / (1 years);\n        }\n        if ( TimeFrame(tf) == TimeFrame.monthly) {\n            return ( now - db.getStartEpoche(_demandId) ) / (30 days);\n        }\n        if ( TimeFrame(tf) == TimeFrame.daily) {\n            return ( now - db.getStartEpoche(_demandId) ) / (1 days);\n        }  \n        if ( TimeFrame(tf) == TimeFrame.hourly) {\n            return ( now - db.getStartEpoche(_demandId) ) / (1 hours);\n        }  \n    }\n\n    /// @notice function to calculate the maximum amount of energy left for a demand and period\n    /// @param _demandId the demand-id\n    /// @param _whAmountPerPeriod the amount of Wh per Period\n    /// @return the maximum ammount of energy left for a demand\n    function getMaxEnergyCoupling(uint _demandId, uint _whAmountPerPeriod)\n        public\n        view\n        returns(uint)\n    { \n        // there is no coupling, so we don't have to go further\n        if (!hasDemandPropertySet(DemandProperties.consuming, db.getDemandMask(_demandId))) return _whAmountPerPeriod;\n        \n        //we're getting the consuming Assets and its properties\n        var (, consAsset ) = db.getDemandCoupling(_demandId);\n        var (capacityWh, maxCapacitySet, certificatesUsedForWh) = AssetConsumingRegistryLogic(address(cooContract.assetConsumingRegistry())).getConsumingProperies(consAsset); \n        \n        // the maxCapacitySet-flag was set\n        if(maxCapacitySet){\n            //we do not allow to let the capacity exceeds the amount of energy set in the demand\n            if(capacityWh > _whAmountPerPeriod) \n                capacityWh = _whAmountPerPeriod;\n            \n            if(certificatesUsedForWh <= capacityWh)\n                return (capacityWh-certificatesUsedForWh);\n            else return 0;\n        } \n        // there is no max capacity set, so only the demand-energy is counting\n        else {\n            if(certificatesUsedForWh <= _whAmountPerPeriod)\n                return (_whAmountPerPeriod-certificatesUsedForWh);\n            else return 0;\n        }\n        \n        return _whAmountPerPeriod;\n\n    }\n\n\n\n    /// @notice function to check if a full demand is created and enabling him\n    /// @param _demandId identifier\n    function checkForFullDemand(uint _demandId)\n        private\n    {\n        var (generalExists, priceDrivingExists, matcherExists) = getExistStatus(_demandId);\n\n        if (generalExists && priceDrivingExists && matcherExists) {\n            db.setEnabled(_demandId,true);\n            db.addActiveDemand(_demandId);\n            db.setDemandCreationTime(_demandId, now);\n            LogDemandFullyCreated(_demandId);\n        }\n    }   \n\n    /// @notice function to create the bitmask for a demand\n    /// @param _demandArray the array with demand properties\n    function createDemandBitmask (bool[] _demandArray)\n        public\n        pure\n        returns (uint demandMask)\n    {\n         /** Bitmask: originator, assetType, compliance, country, region, minCO2, producing, consuming   */\n        for(uint8 i = 0; i < 10; i++) {\n            if(_demandArray[i]){\n                demandMask += uint(2) ** uint(i);\n            }\n        }\n    }\n\n    /// @notice funciton for comparing the role and the needed rights of an user\n    /// @param _props entry of the demandProperties-enum\n    /// @param _demandMask the bitmask of the demand \n    /// @return the demand has the property set\n    function hasDemandPropertySet(DemandProperties _props, uint _demandMask) public pure returns (bool) { \n        uint demandActive = uint(2) ** uint(_props);\n        return (_demandMask & demandActive != 0);\n    }\n\n    /// @notice function to check the assetType\n    /// @param _demandId the demand-id\n    /// @param _prodAssetId the production-asset id\n    /// @return the bool-flag for check and error-message\n    function checkAssetType(uint _demandId, uint _prodAssetId)\n        internal\n        view returns (bool, string) \n    {\n        if(hasDemandPropertySet(DemandProperties.assetType, db.getDemandMask(_demandId))){\n            var (, , assettypeDemand, ,,,, ) = db.getDemandPriceDriving(_demandId);\n            if(AssetProducingRegistryLogic.AssetType(assettypeDemand) != AssetProducingRegistryLogic(cooContract.assetProducingRegistry()).getAssetType( _prodAssetId))\n                return (false, \"wrong asset type\");\n        }\n        return (true, \"\");\n    }\n\n    /// @notice internal helper function to check if the demand exists and the sender has the right role\n    /// @param _demandId the demandid\n    function checking(uint _demandId)\n        internal\n        view\n    {\n        require(!db.demandExists(_demandId));\n        require(isRole(RoleManagement.Role.AgreementAdmin, msg.sender)); \n    }\n\n    /// @notice function to check the location\n    /// @param _demandId the demand-id\n    /// @param _prodAssetId the production-asset id\n    /// @return the bool-flag for check and error-message\n    function checkLocation(uint _demandId, uint _prodAssetId)\n        internal \n        view returns (bool, string)\n    {\n        if(hasDemandPropertySet(DemandProperties.country, db.getDemandMask(_demandId))){\n            var (countryAsset, regionAsset, , , , , ) = AssetProducingRegistryLogic(cooContract.assetProducingRegistry()).getAssetLocation( _prodAssetId);\n            var (locationCountryDemand, locationRegionDemand, , , , ) = db.getDemandPriceDriving(_demandId);\n        \n            if(locationCountryDemand != countryAsset)\n                return (false, \"wrong country\");\n\n            if(hasDemandPropertySet(DemandProperties.region, db.getDemandMask(_demandId))){\n                if(locationRegionDemand != regionAsset)\n                    return (false, \"wrong region\");\n            }\n        }\n        return (true,\"\");\n    }\n\n    /// @notice internal helper function to check green attributes\n    /// @param _demandId the demandId\n    /// @param _prodAssetId the id of the producing asset\n    /// @return true if the attributes are matching\n    function checkGreenAttributes(uint _demandId, uint _prodAssetId)\n        internal\n        view\n        returns(bool)\n    {\n        var ( , , , , , demandGreenAttribute, , ) = db.getDemandPriceDriving(_demandId);\n        var ( , , , , , , assetGreenAttribute,) = AssetProducingRegistryLogic(cooContract.assetProducingRegistry()).getAssetProducingProperties(_prodAssetId);\n\n        return(demandGreenAttribute == assetGreenAttribute );\n    }\n\n    /// @notice internal helper function to check the type of public support\n    /// @param _demandId the id of the demand\n    /// @param _prodAssetId the id of the producing asset\n    /// @return true if the green attributes are matching\n    function checkTypeOfPublicSupport(uint _demandId, uint _prodAssetId)\n        internal\n        view \n        returns (bool)\n    {\n        var ( , , , , , ,demandTypeOfPublicSupport , ) = db.getDemandPriceDriving(_demandId);\n\n        var ( , , , , , , ,assetTypeOfPublicSupport) = AssetProducingRegistryLogic(cooContract.assetProducingRegistry()).getAssetProducingProperties(_prodAssetId);\n\n        return(demandTypeOfPublicSupport == assetTypeOfPublicSupport);\n    }\n\n    /// @notice internal function to create a coupling\n    /// @param _demandId demand-id\n    /// @param _prodAsset production-AssetId, gets only checked if the flag in the demand-Bitmask is set\n    /// @param _consAsset consuming-AssetId, gets only checked if the flag in the demand-Bitmask is set\n    function createCouplingInternal(uint _demandId, uint _prodAsset, uint _consAsset, uint _demandMask)\n        internal\n    {\n        if(hasDemandPropertySet(DemandProperties.producing, _demandMask)){\n            require(AssetProducingRegistryLogic(address(cooContract.assetProducingRegistry())).getActive((_prodAsset)));\n        }\n\n        if(hasDemandPropertySet(DemandProperties.consuming, _demandMask)){\n            require(AssetConsumingRegistryLogic(address(cooContract.assetConsumingRegistry())).getActive((_consAsset)));\n        }\n         db.createCoupling(_demandId, _prodAsset, _consAsset);\n    }\n\n    /// @notice internal function to create a demand\n    /// @param _demandId the demand-Id\n    /// @param _originator the originator (can be set)\n    /// @param _buyer the buyer, has to bet set\n    /// @param _startTime starttime of the demand\n    /// @param _endTime endtime of the demand\n    /// @param _tf timeframe \n    /// @param _pricePerCertifiedKWh price per certified KWh\n    /// @param _currency used currency\n    function createGeneralDemandInternal( \n        uint _demandId,\n        address _originator,\n        address _buyer,\n        uint _startTime,   \n        uint _endTime,\n        TimeFrame _tf,     \n        uint _pricePerCertifiedKWh,\n        Currency _currency)\n        internal\n    {\n        db.createGeneralDemand(_demandId, _originator, _buyer, _startTime, _endTime, uint(_tf), _pricePerCertifiedKWh, uint(_currency));\n    }\n\n    /// @notice function to match produced energy with the needed demand\n    /// @param _demandId identifier of the demand\n    /// @param _wCreated amount of Wh created\n    /// @param _prodAssetId asset-Id that produced the energy\n    function matchDemand(uint _demandId, uint _wCreated, uint _prodAssetId)\n        external \n        isInitialized\n    {   \n        var (owner, currentWhPerPeriod, certInCurrentPeriod, currentPeriod) = matchInternal(_demandId, _wCreated, _prodAssetId, 0);\n        // all the criteria are matched, so we can create the certificate \n        uint certId = CertificateLogic(address(cooContract.certificateRegistry())).createCertificate(_prodAssetId, owner, _wCreated);\n         \n        // at the end we have to update the matcher-properties \n        db.updateMatchProperties(_demandId, currentWhPerPeriod, certInCurrentPeriod, currentPeriod);\n        LogMatcherPropertiesUpdate(_demandId, currentWhPerPeriod, certInCurrentPeriod, currentPeriod, certId);\n\n        // there is a consuming activated, so we have to write the new amount of consumed energy into the asset information\n        if(hasDemandPropertySet(DemandProperties.consuming, db.getDemandMask(_demandId))){\n            writeConsumingEnergy(_demandId, _wCreated, currentPeriod);\n        }\n    }\n\n    /// @notice function to write the consumed energy into the asset\n    /// @param _demandId the demandId\n    /// @param _wCreated the amount of energy created / consumed\n    /// @param _currentPeriod the current period\n    function writeConsumingEnergy(uint _demandId, uint _wCreated, uint _currentPeriod)\n        internal\n        isInitialized\n    {\n        var( , , , lastPeriod, ) = db.getDemandMatcherProperties(_demandId);\n        var (, consAsset ) = db.getDemandCoupling(_demandId);\n\n        if (_currentPeriod == lastPeriod) {     \n            var(,,currentConsumption) = AssetConsumingRegistryLogic(address(cooContract.assetConsumingRegistry())).getConsumingProperies(consAsset);\n            AssetConsumingRegistryLogic(address(cooContract.assetConsumingRegistry())).setConsumptionForPeriode(consAsset,_wCreated+currentConsumption);\n        } else {\n            AssetConsumingRegistryLogic(address(cooContract.assetConsumingRegistry())).setConsumptionForPeriode(consAsset,_wCreated);\n        }\n    }\n    \n\n}",
  "sourcePath": "/Users/mkuechler/ewf/ewf-pushrepo/certificate_of_origin/contracts/DemandLogic.sol",
  "compiler": {
    "name": "solc",
    "version": "0.4.19+commit.c4cbbb05.Emscripten.clang"
  },
  "schemaVersion": "2.0.0",
  "updatedAt": "2018-04-05T14:15:26.939Z"
}