{
  "contractName": "DemandDB",
  "abi": [
    {
      "constant": true,
      "inputs": [],
      "name": "owner",
      "outputs": [
        {
          "name": "",
          "type": "address"
        }
      ],
      "payable": false,
      "stateMutability": "view",
      "type": "function"
    },
    {
      "constant": false,
      "inputs": [
        {
          "name": "_newOwner",
          "type": "address"
        }
      ],
      "name": "changeOwner",
      "outputs": [],
      "payable": false,
      "stateMutability": "nonpayable",
      "type": "function"
    },
    {
      "inputs": [
        {
          "name": "_owner",
          "type": "address"
        }
      ],
      "payable": false,
      "stateMutability": "nonpayable",
      "type": "constructor"
    },
    {
      "anonymous": false,
      "inputs": [
        {
          "indexed": false,
          "name": "_newOwner",
          "type": "address"
        }
      ],
      "name": "LogChangeOwner",
      "type": "event"
    },
    {
      "constant": false,
      "inputs": [
        {
          "name": "_demandId",
          "type": "uint256"
        }
      ],
      "name": "addActiveDemand",
      "outputs": [],
      "payable": false,
      "stateMutability": "nonpayable",
      "type": "function"
    },
    {
      "constant": false,
      "inputs": [
        {
          "name": "_demandId",
          "type": "uint256"
        },
        {
          "name": "_prodAssets",
          "type": "uint256"
        },
        {
          "name": "_consAssets",
          "type": "uint256"
        }
      ],
      "name": "createCoupling",
      "outputs": [],
      "payable": false,
      "stateMutability": "nonpayable",
      "type": "function"
    },
    {
      "constant": false,
      "inputs": [
        {
          "name": "_mask",
          "type": "uint256"
        }
      ],
      "name": "createEmptyDemand",
      "outputs": [
        {
          "name": "_demandId",
          "type": "uint256"
        }
      ],
      "payable": false,
      "stateMutability": "nonpayable",
      "type": "function"
    },
    {
      "constant": false,
      "inputs": [
        {
          "name": "_demandId",
          "type": "uint256"
        },
        {
          "name": "_originator",
          "type": "address"
        },
        {
          "name": "_buyer",
          "type": "address"
        },
        {
          "name": "_startTime",
          "type": "uint256"
        },
        {
          "name": "_endTime",
          "type": "uint256"
        },
        {
          "name": "_timeframe",
          "type": "uint256"
        },
        {
          "name": "_pricePerCertifiedKWh",
          "type": "uint256"
        },
        {
          "name": "_currency",
          "type": "uint256"
        }
      ],
      "name": "createGeneralDemand",
      "outputs": [],
      "payable": false,
      "stateMutability": "nonpayable",
      "type": "function"
    },
    {
      "constant": false,
      "inputs": [
        {
          "name": "_demandId",
          "type": "uint256"
        },
        {
          "name": "_WhAmountPerperiod",
          "type": "uint256"
        },
        {
          "name": "_currentWhPerperiod",
          "type": "uint256"
        },
        {
          "name": "_certInCurrentperiod",
          "type": "uint256"
        },
        {
          "name": "_productionLastSetInPeriod",
          "type": "uint256"
        },
        {
          "name": "_matcher",
          "type": "address"
        }
      ],
      "name": "createMatchProperties",
      "outputs": [],
      "payable": false,
      "stateMutability": "nonpayable",
      "type": "function"
    },
    {
      "constant": false,
      "inputs": [
        {
          "name": "_demandId",
          "type": "uint256"
        },
        {
          "name": "_country",
          "type": "bytes32"
        },
        {
          "name": "_region",
          "type": "bytes32"
        },
        {
          "name": "_zip",
          "type": "bytes32"
        },
        {
          "name": "_city",
          "type": "bytes32"
        },
        {
          "name": "_street",
          "type": "bytes32"
        },
        {
          "name": "_houseNumber",
          "type": "bytes32"
        },
        {
          "name": "_gpsLatitude",
          "type": "bytes32"
        },
        {
          "name": "_gpsLongitude",
          "type": "bytes32"
        },
        {
          "name": "_type",
          "type": "uint256"
        },
        {
          "name": "_minCO2Offset",
          "type": "uint256"
        },
        {
          "name": "_registryCompliance",
          "type": "uint256"
        },
        {
          "name": "_otherGreenAttributes",
          "type": "bytes32"
        },
        {
          "name": "_typeOfPublicSupport",
          "type": "bytes32"
        }
      ],
      "name": "createPriceDriving",
      "outputs": [],
      "payable": false,
      "stateMutability": "nonpayable",
      "type": "function"
    },
    {
      "constant": false,
      "inputs": [
        {
          "name": "_demandId",
          "type": "uint256"
        }
      ],
      "name": "removeActiveDemand",
      "outputs": [],
      "payable": false,
      "stateMutability": "nonpayable",
      "type": "function"
    },
    {
      "constant": false,
      "inputs": [
        {
          "name": "_demandId",
          "type": "uint256"
        },
        {
          "name": "_time",
          "type": "uint256"
        }
      ],
      "name": "setDemandCreationTime",
      "outputs": [],
      "payable": false,
      "stateMutability": "nonpayable",
      "type": "function"
    },
    {
      "constant": false,
      "inputs": [
        {
          "name": "_demandId",
          "type": "uint256"
        },
        {
          "name": "_enabled",
          "type": "bool"
        }
      ],
      "name": "setEnabled",
      "outputs": [],
      "payable": false,
      "stateMutability": "nonpayable",
      "type": "function"
    },
    {
      "constant": false,
      "inputs": [
        {
          "name": "_demandId",
          "type": "uint256"
        },
        {
          "name": "_currentWhPerperiod",
          "type": "uint256"
        },
        {
          "name": "_certInCurrentperiod",
          "type": "uint256"
        },
        {
          "name": "_productionLastSetInPeriod",
          "type": "uint256"
        }
      ],
      "name": "updateMatchProperties",
      "outputs": [],
      "payable": false,
      "stateMutability": "nonpayable",
      "type": "function"
    },
    {
      "constant": true,
      "inputs": [
        {
          "name": "_demandId",
          "type": "uint256"
        }
      ],
      "name": "demandExists",
      "outputs": [
        {
          "name": "",
          "type": "bool"
        }
      ],
      "payable": false,
      "stateMutability": "view",
      "type": "function"
    },
    {
      "constant": true,
      "inputs": [
        {
          "name": "_demandId",
          "type": "uint256"
        }
      ],
      "name": "getActiveDemandIdAt",
      "outputs": [
        {
          "name": "",
          "type": "uint256"
        }
      ],
      "payable": false,
      "stateMutability": "view",
      "type": "function"
    },
    {
      "constant": true,
      "inputs": [],
      "name": "getActiveDemandListLength",
      "outputs": [
        {
          "name": "",
          "type": "uint256"
        }
      ],
      "payable": false,
      "stateMutability": "view",
      "type": "function"
    },
    {
      "constant": true,
      "inputs": [],
      "name": "getAllDemandListLength",
      "outputs": [
        {
          "name": "",
          "type": "uint256"
        }
      ],
      "payable": false,
      "stateMutability": "view",
      "type": "function"
    },
    {
      "constant": true,
      "inputs": [
        {
          "name": "_demandId",
          "type": "uint256"
        }
      ],
      "name": "getDemandCoupling",
      "outputs": [
        {
          "name": "producingAssets",
          "type": "uint256"
        },
        {
          "name": "consumingAssets",
          "type": "uint256"
        }
      ],
      "payable": false,
      "stateMutability": "view",
      "type": "function"
    },
    {
      "constant": true,
      "inputs": [
        {
          "name": "_assetId",
          "type": "uint256"
        }
      ],
      "name": "getDemandGeneral",
      "outputs": [
        {
          "name": "originator",
          "type": "address"
        },
        {
          "name": "buyer",
          "type": "address"
        },
        {
          "name": "startTime",
          "type": "uint256"
        },
        {
          "name": "endTime",
          "type": "uint256"
        },
        {
          "name": "timeframe",
          "type": "uint256"
        },
        {
          "name": "pricePerCertifiedKWh",
          "type": "uint256"
        },
        {
          "name": "currency",
          "type": "uint256"
        },
        {
          "name": "demandMask",
          "type": "uint256"
        }
      ],
      "payable": false,
      "stateMutability": "view",
      "type": "function"
    },
    {
      "constant": true,
      "inputs": [
        {
          "name": "_assetId",
          "type": "uint256"
        }
      ],
      "name": "getDemandMatcherProperties",
      "outputs": [
        {
          "name": "wHAmountPerperiod",
          "type": "uint256"
        },
        {
          "name": "currentWhPerperiod",
          "type": "uint256"
        },
        {
          "name": "certInCurrentperiod",
          "type": "uint256"
        },
        {
          "name": "productionLastSetInPeriod",
          "type": "uint256"
        },
        {
          "name": "matcher",
          "type": "address"
        }
      ],
      "payable": false,
      "stateMutability": "view",
      "type": "function"
    },
    {
      "constant": true,
      "inputs": [
        {
          "name": "_assetId",
          "type": "uint256"
        }
      ],
      "name": "getDemandPriceDriving",
      "outputs": [
        {
          "name": "locationCountry",
          "type": "bytes32"
        },
        {
          "name": "locationRegion",
          "type": "bytes32"
        },
        {
          "name": "assettype",
          "type": "uint256"
        },
        {
          "name": "minCO2Offset",
          "type": "uint256"
        },
        {
          "name": "registryCompliance",
          "type": "uint256"
        },
        {
          "name": "_otherGreenAttributes",
          "type": "bytes32"
        },
        {
          "name": "_typeOfPublicSupport",
          "type": "bytes32"
        },
        {
          "name": "isInitialized",
          "type": "bool"
        }
      ],
      "payable": false,
      "stateMutability": "view",
      "type": "function"
    },
    {
      "constant": true,
      "inputs": [
        {
          "name": "_demandId",
          "type": "uint256"
        }
      ],
      "name": "getDemandMask",
      "outputs": [
        {
          "name": "",
          "type": "uint256"
        }
      ],
      "payable": false,
      "stateMutability": "view",
      "type": "function"
    },
    {
      "constant": true,
      "inputs": [
        {
          "name": "_demandId",
          "type": "uint256"
        }
      ],
      "name": "getStartEpoche",
      "outputs": [
        {
          "name": "",
          "type": "uint256"
        }
      ],
      "payable": false,
      "stateMutability": "view",
      "type": "function"
    },
    {
      "constant": true,
      "inputs": [
        {
          "name": "_assetId",
          "type": "uint256"
        }
      ],
      "name": "getTimeFrame",
      "outputs": [
        {
          "name": "",
          "type": "uint256"
        }
      ],
      "payable": false,
      "stateMutability": "view",
      "type": "function"
    }
  ],
  "bytecode": "0x6060604052341561000f57600080fd5b6040516020806115cd8339810160405280805160008054600160a060020a03909216600160a060020a03199092169190911790555050611579806100546000396000f3006060604052600436106101325763ffffffff7c01000000000000000000000000000000000000000000000000000000006000350416630261f91f8114610137578063092b1ea1146101585780630a085b25146101825780631239726d146101df578063245c1007146102165780634419bbdc1461023e5780634620ce1714610251578063572a76641461026a57806359dc5b131461029857806371c574a6146102ae57806378e8f75a146102c4578063803952fe146103135780638da5cb5b1461032f578063a2c58f4b1461035e578063a6f9dae114610374578063ae7f119b14610393578063b03d8b2e146103c1578063b8f08285146103d7578063c3324e271461043d578063d6ff617114610453578063e5c13dd114610469578063f50c82e714610484578063f9e170db146104c7575b600080fd5b341561014257600080fd5b6101566004356024356044356064356104da565b005b341561016357600080fd5b61016e60043561052f565b604051901515815260200160405180910390f35b341561018d57600080fd5b61019860043561055b565b60405197885260208801969096526040808801959095526060870193909352608086019190915260a085015260c084015290151560e0830152610100909101905180910390f35b34156101ea57600080fd5b610156600435600160a060020a036024358116906044351660643560843560a43560c43560e43561061a565b341561022157600080fd5b61022c6004356106a8565b60405190815260200160405180910390f35b341561024957600080fd5b61022c6106e5565b341561025c57600080fd5b610156600435602435610709565b341561027557600080fd5b610156600435602435604435606435608435600160a060020a0360a4351661074d565b34156102a357600080fd5b6101566004356107cb565b34156102b957600080fd5b61022c600435610871565b34156102cf57600080fd5b6102da6004356108b4565b60405194855260208501939093526040808501929092526060840152600160a060020a03909116608083015260a0909101905180910390f35b341561031e57600080fd5b61015660043560243560443561092e565b341561033a57600080fd5b61034261097b565b604051600160a060020a03909116815260200160405180910390f35b341561036957600080fd5b61022c60043561098a565b341561037f57600080fd5b610156600160a060020a03600435166109d0565b341561039e57600080fd5b6103a9600435610a5b565b60405191825260208201526040908101905180910390f35b34156103cc57600080fd5b610156600435610ab6565b34156103e257600080fd5b6103ed600435610af2565b604051600160a060020a0398891681529690971660208701526040808701959095526060860193909352608085019190915260a084015260c083015260e082019290925261010001905180910390f35b341561044857600080fd5b61022c600435610bc4565b341561045e57600080fd5b61022c600435610bee565b341561047457600080fd5b6101566004356024351515610ff5565b341561048f57600080fd5b61015660043560243560443560643560843560a43560c43560e43561010435610124356101443561016435610184356101a435611044565b34156104d257600080fd5b61022c61124c565b60008054819033600160a060020a039081169116146104f857600080fd5b602880548790811061050657fe5b600091825260209182902091020160198101959095555050601a830191909155601b9091015550565b600060288281548110151561054057fe5b6000918252602091829020910201601d015460ff1692915050565b6000806000806000806000806000806000809054906101000a9004600160a060020a0316600160a060020a031633600160a060020a031614151561059e57600080fd5b602880548c9081106105ac57fe5b906000526020600020906020020191508160090190508060000160000154816000016001015482600a015483600b0154846009015485600c015486600d015487600e0160009054906101000a900460ff16995099509950995099509950995099505050919395975091939597565b60008054819033600160a060020a0390811691161461063857600080fd5b602880548b90811061064657fe5b60009182526020918290209102018054600160a060020a039a8b16600160a060020a03199182161782556001820180549a909b169916989098179098555060028601949094556003850192909255600484015560058301556006909101555050565b6000805433600160a060020a039081169116146106c457600080fd5b601e8054839081106106d257fe5b9060005260206000209001549050919050565b6000805433600160a060020a0390811691161461070157600080fd5b50601e545b90565b60005433600160a060020a0390811691161461072457600080fd5b8060288381548110151561073457fe5b9060005260206000209060200201601e01819055505050565b60008054819033600160a060020a0390811691161461076b57600080fd5b602880548990811061077957fe5b6000918252602091829020910201601881019790975550506019850193909355601a840191909155601b830155601c9091018054600160a060020a031916600160a060020a0390921691909117905550565b6000805433600160a060020a039081169116146107e757600080fd5b5060005b601e5481101561086d5781601e8281548110151561080557fe5b906000526020600020900154141561086557601e8054600019810190811061082957fe5b906000526020600020900154601e8281548110151561084457fe5b600091825260209091200155601e8054906108639060001983016113c3565b505b6001016107eb565b5050565b6000805433600160a060020a0390811691161461088d57600080fd5b602880548390811061089b57fe5b9060005260206000209060200201601e01549050919050565b6000805481908190819081908190819033600160a060020a039081169116146108dc57600080fd5b60288054899081106108ea57fe5b600091825260209182902091020160188101546019820154601a830154601b840154601c90940154929c919b509950919750600160a060020a031695509350505050565b60008054819033600160a060020a0390811691161461094c57600080fd5b602880548690811061095a57fe5b60009182526020918290209102016007810194909455505060089091015550565b600054600160a060020a031681565b6000805433600160a060020a039081169116146109a657600080fd5b60288054839081106109b457fe5b9060005260206000209060200201600001600401549050919050565b60005433600160a060020a039081169116146109eb57600080fd5b600160a060020a0381161515610a0057600080fd5b60008054600160a060020a031916600160a060020a0383161790557f95fd54179c11867fb083dd94347ea50f144dd4cfd7612b7bca169f162824af1681604051600160a060020a03909116815260200160405180910390a150565b6000805481908190819033600160a060020a03908116911614610a7d57600080fd5b6028805486908110610a8b57fe5b9060005260206000209060200201915081600701905080600001548160010154935093505050915091565b60005433600160a060020a03908116911614610ad157600080fd5b601e805460018101610ae383826113c3565b50600091825260209091200155565b6000806000806000806000806000806000809054906101000a9004600160a060020a0316600160a060020a031633600160a060020a0316141515610b3557600080fd5b602880548c908110610b4357fe5b906000526020600020906020020191508160000190508060000160009054906101000a9004600160a060020a03168160010160009054906101000a9004600160a060020a03168260020154836003015484600401548560050154866006015488601f0154995099509950995099509950995099505050919395975091939597565b6000602882815481101515610bd557fe5b9060005260206000209060200201601f01549050919050565b6000805433600160a060020a03908116911614610c0a57600080fd5b6028805460018101610c1c83826113ec565b9160005260206000209060200201600060e060405190810160405280600160e060405190810160409081528254600160a060020a0390811683526001840154166020808401919091526002840154828401526003840154606084015260048401546080840152600584015460a084015260069093015460c083015290835291019060089080519081016040529081600082015481526020016001820154815250508152602001600a60e0604051908101604052908160008201610120604051908101604090815282548252600183015460208084019190915260028401548284015260038401546060808501919091526004850154608080860191909152600586015460a080870191909152600687015460c080880191909152600788015460e088015260089097015460ff9081161515610100880152958852600989015488850152600a89015488860152600b89015492880192909252600c88015490870152600d87015486820152600e909601549092161515939092019290925292845292909201916019915190810160409081528254825260018301546020808401919091526002840154828401526003840154606080850191909152600490940154600160a060020a0316608084015291845260009184018290528301520186905291905081518181518154600160a060020a031916600160a060020a03919091161781556020820151600182018054600160a060020a031916600160a060020a039290921691909117905560408201518160020155606082015181600301556080820151816004015560a0820151816005015560c08201518160060155505060208201516007820181518155602082015181600101555050604082015160098201815181815181556020820151600182015560408201516002820155606082015160038201556080820151600482015560a0820151600582015560c0820151600682015560e08201516007820155610100820151600891909101805460ff19169115159190911790555060208201518160090155604082015181600a0155606082015181600b01556080820151600c82015560a0820151600d82015560c0820151600e91909101805460ff1916911515919091179055506060820151601882018151815560208201518160010155604082015181600201556060820151816003015560808201516004919091018054600160a060020a031916600160a060020a03909216919091179055506080820151601d8201805460ff191691151591909117905560a082015181601e015560c0820151601f90910155505060285460009011610fe7576000610fef565b602854600019015b92915050565b6000805433600160a060020a0390811691161461101157600080fd5b602880548490811061101f57fe5b6000918252602091829020910201601d01805460ff1916921515929092179091555050565b60005433600160a060020a0390811691161461105f57600080fd5b601f60288f81548110151561107057fe5b906000526020600020906020020160090160000160008201548160000190600019169055600182015481600101906000191690556002820154816002019060001916905560038201548160030190600019169055600482015481600401906000191690556005820154816005019060001916905560068201548160060190600019169055600782015481600701906000191690556008820160009054906101000a900460ff168160080160006101000a81548160ff0219169083151502179055509050508460288f81548110151561114457fe5b9060005260206000209060200201600901600a01819055508360288f81548110151561116c57fe5b9060005260206000209060200201600901600b01819055508260288f81548110151561119457fe5b9060005260206000209060200201600901600901819055508160288f8154811015156111bc57fe5b9060005260206000209060200201600901600c0181600019169055508060288f8154811015156111e857fe5b60009182526020918290209102016016015561120b8e8e8e8e8e8e8e8e8e61126f565b600160288f81548110151561121c57fe5b6000918252602091829020910201601701805460ff19169115159190911790555050505050505050505050505050565b6000805433600160a060020a0390811691161461126857600080fd5b5060285490565b8760288a81548110151561127f57fe5b600091825260209182902091020160090155602880548891908b9081106112a257fe5b6000918252602091829020910201600a0155602880548791908b9081106112c557fe5b6000918252602091829020910201600d0155602880548691908b9081106112e857fe5b6000918252602091829020910201600b0155602880548591908b90811061130b57fe5b6000918252602091829020910201600c0155602880548491908b90811061132e57fe5b6000918252602091829020910201600e0155602880548391908b90811061135157fe5b6000918252602091829020910201600f0155602880548291908b90811061137457fe5b60009182526020918290209102016010015560288054600191908b90811061139857fe5b6000918252602091829020910201601101805460ff1916911515919091179055505050505050505050565b8154818355818115116113e7576000838152602090206113e7918101908301611418565b505050565b8154818355818115116113e7576020028160200283600052602060002091820191016113e79190611436565b61070691905b80821115611432576000815560010161141e565b5090565b61070691905b80821115611432578054600160a060020a031990811682556001820180548216905560006002830181905560038301819055600483018190556005830181905560068301819055600783018190556008830181905560098301819055600a8301819055600b8301819055600c8301819055600d8301819055600e8301819055600f83018190556010830181905560118301805460ff199081169091556012840182905560138401829055601484018290556015840182905560168401829055601784018054821690556018840182905560198401829055601a8401829055601b8401829055601c84018054909316909255601d83018054909216909155601e8201819055601f82015560200161143c5600a165627a7a723058208b3d78f071606632482ef14d401baa421fdf9c591922f529a204a583ed4ce4460029",
  "source": "// Copyright 2018 Energy Web Foundation\n// This file is part of the Origin Application brought to you by the Energy Web Foundation,\n// a global non-profit organization focused on accelerating blockchain technology across the energy sector, \n// incorporated in Zug, Switzerland.\n//\n// The Origin Application is free software: you can redistribute it and/or modify\n// it under the terms of the GNU General Public License as published by\n// the Free Software Foundation, either version 3 of the License, or\n// (at your option) any later version.\n// This is distributed in the hope that it will be useful,\n// but WITHOUT ANY WARRANTY and without an implied warranty of\n// MERCHANTABILITY or FITNESS FOR A PARTICULAR PURPOSE.  See the\n// GNU General Public License for more details, at <http://www.gnu.org/licenses/>.\n//\n// @authors: slock.it GmbH, Martin Kuechler, martin.kuchler@slock.it\npragma solidity ^0.4.19;\n\nimport \"./Owned.sol\";\nimport \"./LocationDefinition.sol\";\n\n/// @title The Database contract for the AgreementDB of Origin list\n/// @notice This contract only provides getter and setter methods and only its logic-contract is able to call the functions\ncontract DemandDB is Owned {\n\n    GeneralInfo generalEmpty;\n    Coupling coupleEmpty;\n    PriceDriving  priceDrivingEmpty;\n    MatcherProperties matchPropEmpty; \n\n    /// @notice struct for all the data belonging to the matcher\n    struct MatcherProperties {\n        // how many Wh per Period\n        uint targetWhPerperiod;\n        // amount of Wh the demand has already received\n        uint currentWhPerperiod;\n        uint certInCurrentperiod;\n        uint productionLastSetInPeriod;\n        // simple address of privateKey-keypair\n        address matcher; \n    }\n\n    /// @notice struct for all the information belonging to the coupling, can be 0\n    struct Coupling {\n        uint producingAssets;\n        uint consumingAssets;\n    }\n\n    /// @notice struct for all the information that can affect a price\n    struct PriceDriving {\n        LocationDefinition.Location location;\n        uint registryCompliance;\n        uint assettype;\n        // \tproportion between CO2 and wh in percent (100 * CO2 / Wh)\n        uint minCO2Offset; \n        bytes32 otherGreenAttributes;\n        bytes32 typeOfPublicSupport;\n        bool isInitialized;\n    }\n\n    /// @notice struct for all the general information about a demand\n    struct GeneralInfo {\n        address originator;\n        address buyer;\n        uint startTime;\n        uint endTime;\n        uint timeframe;\n        uint pricePerCertifiedKWh;\n        uint currency;\n    }\n    \n    /// @notice struct for gather all information\n    struct Demand {\n        GeneralInfo general;\n        Coupling couple;\n        PriceDriving priceDriving;\n        MatcherProperties matchProp; \n        bool enabled;\n        uint created;\n        uint demandMask;\n    }\n\n    /// @notice list with all currenty active Demands\n    uint[] private activeDemands; \n\n    /// @notice empty location struct for initializing, used to avoid compile warnings\n    LocationDefinition.Location private locationEmpty;\n\n    /// @notice list with all created demands\n    Demand[] private allDemands;\n\n    /// @notice Constructor\n    /// @param _owner The owner of the contract\n    function DemandDB(address _owner) \n        public\n        Owned(_owner) \n    {\n\n    } \n\n    /// @notice function to add a demand to the activeDemands-array\n    /// @param _demandId hash-identifier of a demand\n    function addActiveDemand(uint _demandId)\n        external \n        onlyOwner\n    {\n        activeDemands.push(_demandId);\n    }\n\n    /// @notice function to create a coupling\n    /// @param _demandId identifier\n    /// @param _prodAssets array with assets that are allowed to produce energy for this agreement\n    /// @param _consAssets array with assets that are allowed to consume energy for this agreement\n    function createCoupling(\n        uint _demandId,\n        uint _prodAssets,\n        uint _consAssets\n    )\n        external \n        onlyOwner\n    {\n        Demand storage d = allDemands[_demandId];\n\n        Coupling storage c = d.couple;\n        c.producingAssets = _prodAssets;\n        c.consumingAssets = _consAssets;\n    }\n\n    /// @notice function to create an empty demand\n    /// @param _mask bitmask with the demand properties\n    /// @return the index and thus the identifier of a demand\n    function createEmptyDemand(uint _mask)\n        external\n        onlyOwner\n        returns (uint _demandId)\n    {\n     allDemands.push(Demand({\n            general: generalEmpty,\n            couple: coupleEmpty,\n            priceDriving: priceDrivingEmpty,\n            matchProp: matchPropEmpty,\n            enabled: false,\n            created : 0,\n            demandMask: _mask\n        }));\n        _demandId = allDemands.length>0?allDemands.length-1:0;        \n\n    }\n\n    /// @notice function to create the general informations of a demand\n    /// @param _demandId identifier\n    /// @param _originator producer of energy\n    /// @param _buyer buyer of a certiface, can be 0x0\n    /// @param _startTime eariest accepted certificates\n    /// @param _endTime latest accepted certificates\n    /// @param _pricePerCertifiedKWh price per certified kWh\n    /// @param _currency currency the originator wants to be paid with\n    function createGeneralDemand(\n        uint _demandId,\n        address _originator,\n        address _buyer,\n        uint _startTime,\n        uint _endTime,\n        uint _timeframe,\n        uint _pricePerCertifiedKWh,\n        uint _currency\n    )\n        external\n        onlyOwner \n    {\n\n        Demand storage d = allDemands[_demandId];\n\n        GeneralInfo storage g = d.general;\n        g.originator = _originator;\n        g.buyer = _buyer;\n        g.startTime = _startTime;\n        g.endTime = _endTime;\n        g.timeframe = _timeframe;\n        g.pricePerCertifiedKWh = _pricePerCertifiedKWh;\n        g.currency = _currency;\n        \n    }\n\n    /// @notice function to create the matching-properties\n    /// @param _demandId identifier\n    /// @param _WhAmountPerperiod the desired amount of Wh per period\n    /// @param _currentWhPerperiod the current amount of Wh\n    /// @param _certInCurrentperiod the amount of certificates created in the current period\n    /// @param _productionLastSetInPeriod the last period where the consumption was set\n    /// @param _matcher account of the javaScript-matcher\n    function createMatchProperties(\n        uint _demandId,\n        uint _WhAmountPerperiod,\n        uint _currentWhPerperiod,\n        uint _certInCurrentperiod,\n        uint _productionLastSetInPeriod,\n        address _matcher\n    )\n        external\n        onlyOwner\n    {\n\n        Demand storage d = allDemands[_demandId];\n\n        MatcherProperties storage m = d.matchProp;\n        m.targetWhPerperiod = _WhAmountPerperiod;\n        m.currentWhPerperiod = _currentWhPerperiod;\n        m.certInCurrentperiod = _certInCurrentperiod;\n        m.productionLastSetInPeriod = _productionLastSetInPeriod;\n        m.matcher = _matcher;\n    }\n\n    /// @notice function to create the pricedriving-factors of a demand\n    /// @param _demandId identifier\n    /// @param _country country the engery has to come from\n    /// @param _region region the energy has to come from\n    /// @param _zip zip code the energy has to come from\n    /// @param _street the streetname\n    /// @param _gpsLatitude latitude of coordinates\n    /// @param _gpsLongitude longitude of coordinates\n    /// @param _type fuel-tyoe \n    /// @param _minCO2Offset CO2-offset\n    /// @param _registryCompliance compliance\n    /// @param _otherGreenAttributes other green attributes \n    /// @param _typeOfPublicSupport type of public support\n    function createPriceDriving(\n        uint _demandId,\n        bytes32 _country,\n        bytes32 _region,\n        bytes32 _zip,\n        bytes32 _city,\n        bytes32 _street,\n        bytes32 _houseNumber,\n        bytes32 _gpsLatitude,\n        bytes32 _gpsLongitude,\n        uint _type,\n        uint _minCO2Offset,\n        uint _registryCompliance,\n        bytes32 _otherGreenAttributes,\n        bytes32 _typeOfPublicSupport\n    )\n        external\n        onlyOwner\n    {\n\n        allDemands[_demandId].priceDriving.location = locationEmpty;\n        allDemands[_demandId].priceDriving.assettype = _type;\n        allDemands[_demandId].priceDriving.minCO2Offset = _minCO2Offset;\n        allDemands[_demandId].priceDriving.registryCompliance = _registryCompliance;\n        allDemands[_demandId].priceDriving.otherGreenAttributes = _otherGreenAttributes;\n        allDemands[_demandId].priceDriving.typeOfPublicSupport = _typeOfPublicSupport;\n\n        setDemandLocation(_demandId,_country,_region,_zip,_city,_street, _houseNumber, _gpsLatitude, _gpsLongitude);\n        allDemands[_demandId].priceDriving.isInitialized = true;    \n    }\n\n    /// @notice function to remove an entry in the activeDemands-array\n    /// @param _demandId the index position of the full demand in the allDemands-array\n    /// @dev due to the design the order of elements in the array will change when removing an element!\n    /// @dev we're using a for-loop here. Due to the fact that there could be multiple thousands an error could cause problems\n    function removeActiveDemand(uint _demandId)\n        external\n        onlyOwner\n    {\n        for (uint i = 0; i < activeDemands.length; i++) {\n            if ( activeDemands[i] == _demandId) {\n                activeDemands[i] = activeDemands[activeDemands.length-1];\n                activeDemands.length--;\n            }\n        }\n    }\n\n    /// @notice function to set the creation-time of a demand\n    /// @param _demandId identifier\n    /// @param _time creation-time\n    function setDemandCreationTime(uint _demandId, uint _time)\n        external \n        onlyOwner\n    {\n        allDemands[_demandId].created = _time;\n    }\n\n    /// @notice function to en- or disable a demand\n    /// @param _demandId identifier\n    /// @param _enabled flag if the demand should be enabled\n    function setEnabled(uint _demandId, bool _enabled)\n        external \n        onlyOwner\n    {\n        Demand storage d = allDemands[_demandId];\n        d.enabled = _enabled;\n    }\n\n    /// @notice function to update some matching parameters\n    /// @param _demandId identifier\n    /// @param _currentWhPerperiod the current amount of Wh\n    /// @param _certInCurrentperiod the amount of certificates created in the current period\n    /// @param _productionLastSetInPeriod the last period where the consumption was set\n    function updateMatchProperties(\n        uint _demandId,\n        uint _currentWhPerperiod,\n        uint _certInCurrentperiod,\n        uint _productionLastSetInPeriod\n    )\n        external\n        onlyOwner\n    {\n        Demand storage d = allDemands[_demandId];\n\n        MatcherProperties storage m = d.matchProp;\n        m.currentWhPerperiod = _currentWhPerperiod;\n        m.certInCurrentperiod = _certInCurrentperiod;\n        m.productionLastSetInPeriod = _productionLastSetInPeriod;\n    }\n\n    /// @notice function that returns if a demands exists\n    /// @param _demandId identifier\n    /// @return true if demand exists\n    function demandExists(uint _demandId)\n        external\n        view \n        returns (bool)\n    {\n        return allDemands[_demandId].enabled;\n    }\n\n    /// @notice function to get the hash-identifier of an active demand in the activeDemands-array\n    /// @param _demandId index of the element in the array\n    /// @return hash-identifier of an active demand\n    function getActiveDemandIdAt(uint _demandId)\n        external \n        view \n        onlyOwner\n        returns (uint)\n    {\n        return activeDemands[_demandId];\n    }\n\n    /// @notice function to retrieve the length of the activeDemands-array\n    /// @return the length of the activeDemands-array\n    function getActiveDemandListLength()\n        external\n        view \n        onlyOwner\n        returns (uint)\n    {\n        return activeDemands.length;\n    }\n\n    /// @notice funtion to retrieve the length of the allDemands-array\n    /// @return the length of the allDemands-array\n    function getAllDemandListLength() \n        external\n        view\n        onlyOwner\n        returns (uint)\n    {\n        return allDemands.length;\n    }\n    \n    /// @notice function to get the information if the coupling-struct\n    /// @dev at the moment arrays can't be accessed in other contracts due to their dynamic length\n    /// @param _demandId identifier\n    /// @return used timeFrame, arrays of producing and consuming assets\n    function getDemandCoupling(uint _demandId)\n        external\n        view \n        onlyOwner\n        returns(\n            uint producingAssets,\n            uint consumingAssets\n        ) \n    {\n        Demand storage d = allDemands[_demandId];\n        Coupling storage s = d.couple;\n        return (s.producingAssets,s.consumingAssets);\n    }\n\n    \n    /// @notice function to retrieve the general informations of a demand\n    /// @param _assetId identifier of the demand\n    /// @return the originator, buyer, startTime, endTime, currency, coupled\n    function getDemandGeneral(uint _assetId)\n        external\n        view \n        onlyOwner \n        returns(\n            address originator,\n            address buyer,\n            uint startTime,\n            uint endTime,\n            uint timeframe,\n            uint pricePerCertifiedKWh,\n            uint currency,\n            uint demandMask\n        ) \n    {\n        Demand storage d = allDemands[_assetId];\n        GeneralInfo storage g = d.general;\n        return (g.originator, g.buyer, g.startTime, g.endTime, g.timeframe, g.pricePerCertifiedKWh, g.currency, d.demandMask);\n    }\n\n    /// @notice function to get the matcher-properties of a demand\n    /// @param _assetId identifier\n    /// @return amount of Wh per period, current Wh per period, certificates in current period, last period where a consumption was set and the matcher-address\n    function getDemandMatcherProperties(uint _assetId)\n        external\n        view \n        onlyOwner\n        returns (  \n            uint wHAmountPerperiod,\n            uint currentWhPerperiod,\n            uint certInCurrentperiod,\n            uint productionLastSetInPeriod,\n            address matcher\n        ) \n    {\n        Demand storage d = allDemands[_assetId];\n        MatcherProperties storage m = d.matchProp;\n        return (m.targetWhPerperiod, m.currentWhPerperiod, m.certInCurrentperiod, m.productionLastSetInPeriod, m.matcher);\n    }\n\n\n    /// @notice function to get the price-driving informations\n    /// @param _assetId identifier\n    /// @return location country and region, fueltype and CO2-offset\n    function getDemandPriceDriving(uint _assetId)\n        external\n        view \n        onlyOwner\n        returns (\n            bytes32 locationCountry,\n            bytes32 locationRegion,\n            uint assettype,\n            uint minCO2Offset,\n            uint registryCompliance,\n            bytes32 _otherGreenAttributes,\n            bytes32 _typeOfPublicSupport,\n            bool isInitialized\n        ) \n    {\n        Demand storage d = allDemands[_assetId];\n        PriceDriving storage p = d.priceDriving;\n        return (p.location.country, p.location.region, p.assettype, p.minCO2Offset, p.registryCompliance, p.otherGreenAttributes, p.typeOfPublicSupport, p.isInitialized);\n    }\n\n    /// @notice gets the bitmask of a demand\n    /// @param _demandId the demand-id\n    /// @return bitmask with the set properties of a demand\n    function getDemandMask(uint _demandId)\n        external\n        view \n        returns (uint)\n    {\n        return allDemands[_demandId].demandMask;\n    }\n\n    /// @notice function to return the creationtime of the demand\n    /// @param _demandId identifier\n    /// @return blocktime of the creation of the demand\n    function getStartEpoche(uint _demandId)\n        external\n        view \n        onlyOwner \n        returns (uint)\n    {    \n        return allDemands[_demandId].created;\n    }\n\n    /// @notice Funtion to get the used timeframe for an demand\n    /// @dev will return an unsigned integer, that has to be converted to a timeframe in the logic-contract\n    /// @return the chosen timeframe for a demand\n    function getTimeFrame(uint _assetId)\n        public\n        onlyOwner\n        view\n        returns (uint)\n    {\n            return allDemands[_assetId].general.timeframe;\n    }\n\n      /// @notice sets the demand Location\n    /// @dev internal helper function\n    /// @param _assetId identifier\n    /// @param _country country the engery has to come from\n    /// @param _region region the energy has to come from\n    /// @param _zip zip code the energy has to come from\n    /// @param _street the streetname\n    /// @param _gpsLatitude latitude of coordinates\n    /// @param _gpsLongitude longitude of coordinates\n    function setDemandLocation(\n        uint _assetId,\n        bytes32 _country,\n        bytes32 _region,\n        bytes32 _zip,\n        bytes32 _city,\n        bytes32 _street,\n        bytes32 _houseNumber,\n        bytes32 _gpsLatitude,\n        bytes32 _gpsLongitude\n    )\n        internal\n    {\n            allDemands[_assetId].priceDriving.location.country = _country;\n            allDemands[_assetId].priceDriving.location.region = _region;\n            allDemands[_assetId].priceDriving.location.zip = _zip;\n            allDemands[_assetId].priceDriving.location.city = _city;\n            allDemands[_assetId].priceDriving.location.street = _street;\n            allDemands[_assetId].priceDriving.location.houseNumber = _houseNumber;\n            allDemands[_assetId].priceDriving.location.gpsLatitude = _gpsLatitude;\n            allDemands[_assetId].priceDriving.location.gpsLongitude = _gpsLongitude;\n            allDemands[_assetId].priceDriving.location.exists = true;\n    }\n\n}\n\n\n\n\n",
  "sourcePath": "/Users/mkuechler/ewf/ewf-pushrepo/certificate_of_origin/contracts/DemandDb.sol",
  "compiler": {
    "name": "solc",
    "version": "0.4.19+commit.c4cbbb05.Emscripten.clang"
  },
  "schemaVersion": "2.0.0",
  "updatedAt": "2018-04-05T14:15:26.910Z"
}