{
  "contractName": "Migrations",
  "abi": [
    {
      "constant": true,
      "inputs": [],
      "name": "last_completed_migration",
      "outputs": [
        {
          "name": "",
          "type": "uint256"
        }
      ],
      "payable": false,
      "stateMutability": "view",
      "type": "function"
    },
    {
      "constant": true,
      "inputs": [],
      "name": "owner",
      "outputs": [
        {
          "name": "",
          "type": "address"
        }
      ],
      "payable": false,
      "stateMutability": "view",
      "type": "function"
    },
    {
      "inputs": [],
      "payable": false,
      "stateMutability": "nonpayable",
      "type": "constructor"
    },
    {
      "constant": false,
      "inputs": [
        {
          "name": "completed",
          "type": "uint256"
        }
      ],
      "name": "setCompleted",
      "outputs": [],
      "payable": false,
      "stateMutability": "nonpayable",
      "type": "function"
    },
    {
      "constant": false,
      "inputs": [
        {
          "name": "new_address",
          "type": "address"
        }
      ],
      "name": "upgrade",
      "outputs": [],
      "payable": false,
      "stateMutability": "nonpayable",
      "type": "function"
    }
  ],
  "bytecode": "0x6060604052341561000f57600080fd5b60008054600160a060020a033316600160a060020a03199091161790556101e78061003b6000396000f3006060604052600436106100615763ffffffff7c01000000000000000000000000000000000000000000000000000000006000350416630900f0108114610066578063445df0ac146100875780638da5cb5b146100ac578063fdacd576146100db575b600080fd5b341561007157600080fd5b610085600160a060020a03600435166100f1565b005b341561009257600080fd5b61009a610186565b60405190815260200160405180910390f35b34156100b757600080fd5b6100bf61018c565b604051600160a060020a03909116815260200160405180910390f35b34156100e657600080fd5b61008560043561019b565b6000805433600160a060020a03908116911614156101825781905080600160a060020a031663fdacd5766001546040517c010000000000000000000000000000000000000000000000000000000063ffffffff84160281526004810191909152602401600060405180830381600087803b151561016d57600080fd5b6102c65a03f1151561017e57600080fd5b5050505b5050565b60015481565b600054600160a060020a031681565b60005433600160a060020a03908116911614156101b85760018190555b505600a165627a7a723058200a7fa5a7de6db66990b9bf2d0d4ed57c708945ae094054b4977988fc1e1979ec0029",
  "source": "// Copyright 2018 Energy Web Foundation\n// This file is part of the Origin Application brought to you by the Energy Web Foundation,\n// a global non-profit organization focused on accelerating blockchain technology across the energy sector, \n// incorporated in Zug, Switzerland.\n//\n// The Origin Application is free software: you can redistribute it and/or modify\n// it under the terms of the GNU General Public License as published by\n// the Free Software Foundation, either version 3 of the License, or\n// (at your option) any later version.\n// This is distributed in the hope that it will be useful,\n// but WITHOUT ANY WARRANTY and without an implied warranty of\n// MERCHANTABILITY or FITNESS FOR A PARTICULAR PURPOSE.  See the\n// GNU General Public License for more details, at <http://www.gnu.org/licenses/>.\n//\n// @authors: slock.it GmbH, Martin Kuchler, martin.kuchler@slock.it\n\npragma solidity ^0.4.17;\n\ncontract Migrations {\n  address public owner;\n  uint public last_completed_migration;\n\n  modifier restricted() {\n    if (msg.sender == owner) _;\n  }\n\n  function Migrations() public {\n    owner = msg.sender;\n  }\n\n  function setCompleted(uint completed) external restricted {\n    last_completed_migration = completed;\n  }\n\n  function upgrade(address new_address) external restricted {\n    Migrations upgraded = Migrations(new_address);\n    upgraded.setCompleted(last_completed_migration);\n  }\n}\n",
  "sourcePath": "/Users/mkuechler/ewf/ewf-pushrepo/certificate_of_origin/contracts/Migrations.sol",
  "compiler": {
    "name": "solc",
    "version": "0.4.19+commit.c4cbbb05.Emscripten.clang"
  },
  "schemaVersion": "2.0.0",
  "updatedAt": "2018-04-03T09:59:55.030Z"
}