{
  "contractName": "UserLogic",
  "abi": [
    {
      "constant": true,
      "inputs": [],
      "name": "db",
      "outputs": [
        {
          "name": "",
          "type": "address"
        }
      ],
      "payable": false,
      "stateMutability": "view",
      "type": "function"
    },
    {
      "constant": true,
      "inputs": [],
      "name": "cooContract",
      "outputs": [
        {
          "name": "",
          "type": "address"
        }
      ],
      "payable": false,
      "stateMutability": "view",
      "type": "function"
    },
    {
      "constant": true,
      "inputs": [
        {
          "name": "_role",
          "type": "uint8"
        },
        {
          "name": "_caller",
          "type": "address"
        }
      ],
      "name": "isRole",
      "outputs": [
        {
          "name": "",
          "type": "bool"
        }
      ],
      "payable": false,
      "stateMutability": "view",
      "type": "function"
    },
    {
      "inputs": [
        {
          "name": "_coo",
          "type": "address"
        }
      ],
      "payable": false,
      "stateMutability": "nonpayable",
      "type": "constructor"
    },
    {
      "constant": false,
      "inputs": [
        {
          "name": "_user",
          "type": "address"
        },
        {
          "name": "role",
          "type": "uint8"
        }
      ],
      "name": "addAdminRole",
      "outputs": [],
      "payable": false,
      "stateMutability": "nonpayable",
      "type": "function"
    },
    {
      "constant": false,
      "inputs": [
        {
          "name": "_user",
          "type": "address"
        }
      ],
      "name": "addAssetManagerRole",
      "outputs": [],
      "payable": false,
      "stateMutability": "nonpayable",
      "type": "function"
    },
    {
      "constant": false,
      "inputs": [
        {
          "name": "_user",
          "type": "address"
        }
      ],
      "name": "addMatcherRole",
      "outputs": [],
      "payable": false,
      "stateMutability": "nonpayable",
      "type": "function"
    },
    {
      "constant": false,
      "inputs": [
        {
          "name": "_user",
          "type": "address"
        }
      ],
      "name": "addTraderRole",
      "outputs": [],
      "payable": false,
      "stateMutability": "nonpayable",
      "type": "function"
    },
    {
      "constant": false,
      "inputs": [
        {
          "name": "_database",
          "type": "address"
        }
      ],
      "name": "init",
      "outputs": [],
      "payable": false,
      "stateMutability": "nonpayable",
      "type": "function"
    },
    {
      "constant": false,
      "inputs": [
        {
          "name": "_user",
          "type": "address"
        }
      ],
      "name": "deactivateUser",
      "outputs": [],
      "payable": false,
      "stateMutability": "nonpayable",
      "type": "function"
    },
    {
      "constant": false,
      "inputs": [
        {
          "name": "_user",
          "type": "address"
        },
        {
          "name": "role",
          "type": "uint8"
        }
      ],
      "name": "removeAdminRole",
      "outputs": [],
      "payable": false,
      "stateMutability": "nonpayable",
      "type": "function"
    },
    {
      "constant": false,
      "inputs": [
        {
          "name": "_user",
          "type": "address"
        }
      ],
      "name": "removeAssetManagerRole",
      "outputs": [],
      "payable": false,
      "stateMutability": "nonpayable",
      "type": "function"
    },
    {
      "constant": false,
      "inputs": [
        {
          "name": "_user",
          "type": "address"
        }
      ],
      "name": "removeTraderRole",
      "outputs": [],
      "payable": false,
      "stateMutability": "nonpayable",
      "type": "function"
    },
    {
      "constant": false,
      "inputs": [
        {
          "name": "_user",
          "type": "address"
        },
        {
          "name": "_organization",
          "type": "bytes32"
        }
      ],
      "name": "setOrganization",
      "outputs": [],
      "payable": false,
      "stateMutability": "nonpayable",
      "type": "function"
    },
    {
      "constant": false,
      "inputs": [
        {
          "name": "_user",
          "type": "address"
        },
        {
          "name": "_street",
          "type": "bytes32"
        },
        {
          "name": "_number",
          "type": "bytes32"
        },
        {
          "name": "_zip",
          "type": "bytes32"
        },
        {
          "name": "_city",
          "type": "bytes32"
        },
        {
          "name": "_country",
          "type": "bytes32"
        },
        {
          "name": "_state",
          "type": "bytes32"
        }
      ],
      "name": "setOrganizationAddress",
      "outputs": [],
      "payable": false,
      "stateMutability": "nonpayable",
      "type": "function"
    },
    {
      "constant": false,
      "inputs": [
        {
          "name": "_user",
          "type": "address"
        },
        {
          "name": "_firstName",
          "type": "bytes32"
        },
        {
          "name": "_surname",
          "type": "bytes32"
        },
        {
          "name": "_organization",
          "type": "bytes32"
        },
        {
          "name": "_street",
          "type": "bytes32"
        },
        {
          "name": "_number",
          "type": "bytes32"
        },
        {
          "name": "_zip",
          "type": "bytes32"
        },
        {
          "name": "_city",
          "type": "bytes32"
        },
        {
          "name": "_country",
          "type": "bytes32"
        },
        {
          "name": "_state",
          "type": "bytes32"
        }
      ],
      "name": "setUser",
      "outputs": [],
      "payable": false,
      "stateMutability": "nonpayable",
      "type": "function"
    },
    {
      "constant": false,
      "inputs": [
        {
          "name": "_user",
          "type": "address"
        },
        {
          "name": "_firstName",
          "type": "bytes32"
        },
        {
          "name": "_surname",
          "type": "bytes32"
        }
      ],
      "name": "setUserName",
      "outputs": [],
      "payable": false,
      "stateMutability": "nonpayable",
      "type": "function"
    },
    {
      "constant": false,
      "inputs": [
        {
          "name": "_user",
          "type": "address"
        },
        {
          "name": "_rights",
          "type": "uint256"
        }
      ],
      "name": "setRoles",
      "outputs": [],
      "payable": false,
      "stateMutability": "nonpayable",
      "type": "function"
    },
    {
      "constant": false,
      "inputs": [
        {
          "name": "_newLogic",
          "type": "address"
        }
      ],
      "name": "update",
      "outputs": [],
      "payable": false,
      "stateMutability": "nonpayable",
      "type": "function"
    },
    {
      "constant": true,
      "inputs": [
        {
          "name": "_user",
          "type": "address"
        }
      ],
      "name": "doesUserExist",
      "outputs": [
        {
          "name": "",
          "type": "bool"
        }
      ],
      "payable": false,
      "stateMutability": "view",
      "type": "function"
    },
    {
      "constant": true,
      "inputs": [
        {
          "name": "_user",
          "type": "address"
        }
      ],
      "name": "getFullUser",
      "outputs": [
        {
          "name": "firstName",
          "type": "bytes32"
        },
        {
          "name": "surname",
          "type": "bytes32"
        },
        {
          "name": "organization",
          "type": "bytes32"
        },
        {
          "name": "street",
          "type": "bytes32"
        },
        {
          "name": "number",
          "type": "bytes32"
        },
        {
          "name": "zip",
          "type": "bytes32"
        },
        {
          "name": "city",
          "type": "bytes32"
        },
        {
          "name": "country",
          "type": "bytes32"
        },
        {
          "name": "state",
          "type": "bytes32"
        },
        {
          "name": "roles",
          "type": "uint256"
        },
        {
          "name": "active",
          "type": "bool"
        }
      ],
      "payable": false,
      "stateMutability": "view",
      "type": "function"
    },
    {
      "constant": true,
      "inputs": [
        {
          "name": "_user",
          "type": "address"
        }
      ],
      "name": "getRolesRights",
      "outputs": [
        {
          "name": "",
          "type": "uint256"
        }
      ],
      "payable": false,
      "stateMutability": "view",
      "type": "function"
    }
  ],
  "bytecode": "0x6060604052341561000f57600080fd5b604051602080611bdc8339810160405280805160008054600160a060020a03909216600160a060020a03199092169190911790555050611b88806100546000396000f3006060604052600436106101035763ffffffff60e060020a60003504166311f2da5d811461010857806319ab453c1461012f5780631a47767b1461014e5780631c1b87721461016d578063265209f21461018c5780632dbc54a4146101bd57806333a3ad8f146101dc57806346813525146101fe5780634d655aff1461021d5780635c4e0d021461024c57806368639f88146102715780638254c3161461029657806384b99b33146102b557806395d435b6146102d4578063b1f2cc9d146102f3578063bb5a389e14610306578063c0e7967e1461033f578063c7247af21461037b578063c7af3efc1461039d578063d444043014610418578063ecb4105414610449575b600080fd5b341561011357600080fd5b61012d600160a060020a036004351660ff60243516610468565b005b341561013a57600080fd5b61012d600160a060020a03600435166106be565b341561015957600080fd5b61012d600160a060020a0360043516610780565b341561017857600080fd5b61012d600160a060020a036004351661086b565b341561019757600080fd5b6101ab600160a060020a03600435166108ee565b60405190815260200160405180910390f35b34156101c857600080fd5b61012d600160a060020a0360043516610969565b34156101e757600080fd5b61012d600160a060020a0360043516602435610b60565b341561020957600080fd5b61012d600160a060020a0360043516610cc8565b341561022857600080fd5b610230610ea5565b604051600160a060020a03909116815260200160405180910390f35b341561025757600080fd5b61012d600160a060020a0360043516602435604435610eb4565b341561027c57600080fd5b61012d600160a060020a036004351660ff60243516610f43565b34156102a157600080fd5b61012d600160a060020a036004351661117e565b34156102c057600080fd5b61012d600160a060020a0360043516611317565b34156102df57600080fd5b61012d600160a060020a03600435166114af565b34156102fe57600080fd5b6102306115c2565b341561031157600080fd5b61032b60ff60043516600160a060020a03602435166115d1565b604051901515815260200160405180910390f35b341561034a57600080fd5b61012d600160a060020a036004351660243560443560643560843560a43560c43560e435610104356101243561174c565b341561038657600080fd5b61012d600160a060020a03600435166024356118a0565b34156103a857600080fd5b6103bc600160a060020a0360043516611919565b6040519a8b5260208b01999099526040808b019890985260608a0196909652608089019490945260a088019290925260c087015260e0860152610100850152610120840152901515610140830152610160909101905180910390f35b341561042357600080fd5b61012d600160a060020a036004351660243560443560643560843560a43560c435611a14565b341561045457600080fd5b61032b600160a060020a0360043516611b01565b600080548390600160a060020a0316635c7460d683604051602001526040518163ffffffff1660e060020a028152600401602060405180830381600087803b15156104b257600080fd5b6102c65a03f115156104c357600080fd5b50505060405180519050600160a060020a031663ecb410548260006040516020015260405160e060020a63ffffffff8416028152600160a060020a039091166004820152602401602060405180830381600087803b151561052357600080fd5b6102c65a03f1151561053457600080fd5b50505060405180519050151561054957600080fd5b600061055581336115d1565b151561056057600080fd5b600084600681111561056e57fe5b14806105855750600184600681111561058357fe5b145b8061059b5750600284600681111561059957fe5b145b806105b1575060038460068111156105af57fe5b145b156106b7576105c084866115d1565b156106b757600154600160a060020a031663265209f28660006040516020015260405160e060020a63ffffffff8416028152600160a060020a039091166004820152602401602060405180830381600087803b151561061e57600080fd5b6102c65a03f1151561062f57600080fd5b5050506040518051600154909450600160a060020a031690506333a3ad8f8686600681111561065a57fe5b60020a860360405160e060020a63ffffffff8516028152600160a060020a0390921660048301526024820152604401600060405180830381600087803b15156106a257600080fd5b6102c65a03f115156106b357600080fd5b5050505b5050505050565b600154600160a060020a0316158015610746575060008054600160a060020a0333811692911690638da5cb5b90604051602001526040518163ffffffff1660e060020a028152600401602060405180830381600087803b151561072057600080fd5b6102c65a03f1151561073157600080fd5b50505060405180519050600160a060020a0316145b151561075157600080fd5b6001805473ffffffffffffffffffffffffffffffffffffffff1916600160a060020a0392909216919091179055565b600161078c81336115d1565b151561079757600080fd5b600154600160a060020a031615156107ae57600080fd5b6107b96000836115d1565b1580156107ce57506107cc6001836115d1565b155b80156107e257506107e06002836115d1565b155b80156107f657506107f46003836115d1565b155b151561080157600080fd5b600154600160a060020a03166388e084ca83600060405160e060020a63ffffffff8516028152600160a060020a03909216600483015215156024820152604401600060405180830381600087803b151561085a57600080fd5b6102c65a03f115156106b757600080fd5b600054600160a060020a03908116903316811461088757600080fd5b600154600160a060020a0316151561089e57600080fd5b600154600160a060020a031663a6f9dae18360405160e060020a63ffffffff8416028152600160a060020a039091166004820152602401600060405180830381600087803b151561085a57600080fd5b600154600090600160a060020a031663265209f283836040516020015260405160e060020a63ffffffff8416028152600160a060020a039091166004820152602401602060405180830381600087803b151561094957600080fd5b6102c65a03f1151561095a57600080fd5b50505060405180519392505050565b600080548290600160a060020a0316635c7460d683604051602001526040518163ffffffff1660e060020a028152600401602060405180830381600087803b15156109b357600080fd5b6102c65a03f115156109c457600080fd5b50505060405180519050600160a060020a031663ecb410548260006040516020015260405160e060020a63ffffffff8416028152600160a060020a039091166004820152602401602060405180830381600087803b1515610a2457600080fd5b6102c65a03f11515610a3557600080fd5b505050604051805190501515610a4a57600080fd5b6002610a5681336115d1565b1515610a6157600080fd5b610a6c6004856115d1565b15610b5a57600154600160a060020a031663265209f28560006040516020015260405160e060020a63ffffffff8416028152600160a060020a039091166004820152602401602060405180830381600087803b1515610aca57600080fd5b6102c65a03f11515610adb57600080fd5b5050506040518051600154909450600160a060020a031690506333a3ad8f8560045b60020a860360405160e060020a63ffffffff8516028152600160a060020a0390921660048301526024820152604401600060405180830381600087803b1515610b4557600080fd5b6102c65a03f11515610b5657600080fd5b5050505b50505050565b6001610b6c81336115d1565b1515610b7757600080fd5b600154600160a060020a03161515610b8e57600080fd5b600080548491600160a060020a0390911690635c7460d690604051602001526040518163ffffffff1660e060020a028152600401602060405180830381600087803b1515610bdb57600080fd5b6102c65a03f11515610bec57600080fd5b50505060405180519050600160a060020a031663ecb410548260006040516020015260405160e060020a63ffffffff8416028152600160a060020a039091166004820152602401602060405180830381600087803b1515610c4c57600080fd5b6102c65a03f11515610c5d57600080fd5b505050604051805190501515610c7257600080fd5b600154600160a060020a03166333a3ad8f858560405160e060020a63ffffffff8516028152600160a060020a0390921660048301526024820152604401600060405180830381600087803b1515610b4557600080fd5b600080548290600160a060020a0316635c7460d683604051602001526040518163ffffffff1660e060020a028152600401602060405180830381600087803b1515610d1257600080fd5b6102c65a03f11515610d2357600080fd5b50505060405180519050600160a060020a031663ecb410548260006040516020015260405160e060020a63ffffffff8416028152600160a060020a039091166004820152602401602060405180830381600087803b1515610d8357600080fd5b6102c65a03f11515610d9457600080fd5b505050604051805190501515610da957600080fd5b6003610db581336115d1565b1515610dc057600080fd5b610dcb6005856115d1565b1515610b5a57600154600160a060020a031663265209f28560006040516020015260405160e060020a63ffffffff8416028152600160a060020a039091166004820152602401602060405180830381600087803b1515610e2a57600080fd5b6102c65a03f11515610e3b57600080fd5b5050506040518051600154909450600160a060020a031690506333a3ad8f8560055b60020a860160405160e060020a63ffffffff8516028152600160a060020a0390921660048301526024820152604401600060405180830381600087803b1515610b4557600080fd5b600154600160a060020a031681565b6001610ec081336115d1565b1515610ecb57600080fd5b8215801590610ed957508115155b1515610ee457600080fd5b600154600160a060020a0316635c4e0d0285858560405160e060020a63ffffffff8616028152600160a060020a03909316600484015260248301919091526044820152606401600060405180830381600087803b1515610b4557600080fd5b600080548390600160a060020a0316635c7460d683604051602001526040518163ffffffff1660e060020a028152600401602060405180830381600087803b1515610f8d57600080fd5b6102c65a03f11515610f9e57600080fd5b50505060405180519050600160a060020a031663ecb410548260006040516020015260405160e060020a63ffffffff8416028152600160a060020a039091166004820152602401602060405180830381600087803b1515610ffe57600080fd5b6102c65a03f1151561100f57600080fd5b50505060405180519050151561102457600080fd5b600061103081336115d1565b151561103b57600080fd5b600084600681111561104957fe5b14806110605750600184600681111561105e57fe5b145b806110765750600284600681111561107457fe5b145b8061108c5750600584600681111561108a57fe5b145b156106b75761109b84866115d1565b15156106b757600154600160a060020a031663265209f28660006040516020015260405160e060020a63ffffffff8416028152600160a060020a039091166004820152602401602060405180830381600087803b15156110fa57600080fd5b6102c65a03f1151561110b57600080fd5b5050506040518051600154909450600160a060020a031690506333a3ad8f8686600681111561113657fe5b60020a860160405160e060020a63ffffffff8516028152600160a060020a0390921660048301526024820152604401600060405180830381600087803b15156106a257600080fd5b600080548290600160a060020a0316635c7460d683604051602001526040518163ffffffff1660e060020a028152600401602060405180830381600087803b15156111c857600080fd5b6102c65a03f115156111d957600080fd5b50505060405180519050600160a060020a031663ecb410548260006040516020015260405160e060020a63ffffffff8416028152600160a060020a039091166004820152602401602060405180830381600087803b151561123957600080fd5b6102c65a03f1151561124a57600080fd5b50505060405180519050151561125f57600080fd5b600261126b81336115d1565b151561127657600080fd5b6112816004856115d1565b1515610b5a57600154600160a060020a031663265209f28560006040516020015260405160e060020a63ffffffff8416028152600160a060020a039091166004820152602401602060405180830381600087803b15156112e057600080fd5b6102c65a03f115156112f157600080fd5b5050506040518051600154909450600160a060020a031690506333a3ad8f856004610e5d565b600080548290600160a060020a0316635c7460d683604051602001526040518163ffffffff1660e060020a028152600401602060405180830381600087803b151561136157600080fd5b6102c65a03f1151561137257600080fd5b50505060405180519050600160a060020a031663ecb410548260006040516020015260405160e060020a63ffffffff8416028152600160a060020a039091166004820152602401602060405180830381600087803b15156113d257600080fd5b6102c65a03f115156113e357600080fd5b5050506040518051905015156113f857600080fd5b600361140481336115d1565b151561140f57600080fd5b61141a6005856115d1565b15610b5a57600154600160a060020a031663265209f28560006040516020015260405160e060020a63ffffffff8416028152600160a060020a039091166004820152602401602060405180830381600087803b151561147857600080fd5b6102c65a03f1151561148957600080fd5b5050506040518051600154909450600160a060020a031690506333a3ad8f856005610afd565b6000806114bc81336115d1565b15156114c757600080fd5b6114d26006846115d1565b15156115bd57600154600160a060020a031663265209f28460006040516020015260405160e060020a63ffffffff8416028152600160a060020a039091166004820152602401602060405180830381600087803b151561153157600080fd5b6102c65a03f1151561154257600080fd5b5050506040518051600154909350600160a060020a031690506333a3ad8f846040808601905160e060020a63ffffffff8516028152600160a060020a0390921660048301526024820152604401600060405180830381600087803b15156115a857600080fd5b6102c65a03f115156115b957600080fd5b5050505b505050565b600054600160a060020a031681565b6000805481908190600160a060020a038086169116638da5cb5b83604051602001526040518163ffffffff1660e060020a028152600401602060405180830381600087803b151561162157600080fd5b6102c65a03f1151561163257600080fd5b50505060405180519050600160a060020a031614156116545760019250611744565b60008054600160a060020a031690635c7460d690604051602001526040518163ffffffff1660e060020a028152600401602060405180830381600087803b151561169d57600080fd5b6102c65a03f115156116ae57600080fd5b50505060405180519050600160a060020a031663265209f28560006040516020015260405160e060020a63ffffffff8416028152600160a060020a039091166004820152602401602060405180830381600087803b151561170e57600080fd5b6102c65a03f1151561171f57600080fd5b50505060405180519050915084600681111561173757fe5b60020a8281161515935090505b505092915050565b600161175881336115d1565b151561176357600080fd5b600154600160a060020a0316151561177a57600080fd5b600160a060020a038b161580159061179157508915155b801561179c57508815155b80156117a757508715155b80156117b257508315155b80156117bd57508615155b80156117c95750600086115b80156117d457508415155b80156117df57508215155b15156117ea57600080fd5b600154600160a060020a031663c0e7967e8c8c8c8c8c8c8c8c8c8c60405160e060020a63ffffffff8d16028152600160a060020a03909a1660048b015260248a019890985260448901969096526064880194909452608487019290925260a486015260c485015260e484015261010483015261012482015261014401600060405180830381600087803b151561187f57600080fd5b6102c65a03f1151561189057600080fd5b5050505050505050505050505050565b60016118ac81336115d1565b15156118b757600080fd5b8115156118c357600080fd5b600154600160a060020a031663c7247af2848460405160e060020a63ffffffff8516028152600160a060020a0390921660048301526024820152604401600060405180830381600087803b15156115a857600080fd5b6000806000806000806000806000806000600160009054906101000a9004600160a060020a0316600160a060020a031663c7af3efc8d6000604051610160015260405160e060020a63ffffffff8416028152600160a060020a03909116600482015260240161016060405180830381600087803b151561199857600080fd5b6102c65a03f115156119a957600080fd5b505050604051805190602001805190602001805190602001805190602001805190602001805190602001805190602001805190602001805190602001805190602001805190509a509a509a509a509a509a509a509a509a509a509a5091939597999b90929496989a50565b6001611a2081336115d1565b1515611a2b57600080fd5b8315801590611a3957508615155b8015611a455750600086115b8015611a5057508415155b8015611a5b57508215155b1515611a6657600080fd5b600154600160a060020a0316636c82d8fa8989898989898960405160e060020a63ffffffff8a16028152600160a060020a039097166004880152602487019590955260448601939093526064850191909152608484015260a483015260c482015260e401600060405180830381600087803b1515611ae357600080fd5b6102c65a03f11515611af457600080fd5b5050505050505050505050565b600154600090600160a060020a031663ecb4105483836040516020015260405160e060020a63ffffffff8416028152600160a060020a039091166004820152602401602060405180830381600087803b151561094957600080fd00a165627a7a72305820fec86ac0c6b5bb1ab799e8563838588adeffee9eda863ed2ee377c5420966df70029",
  "source": "// Copyright 2018 Energy Web Foundation\n// This file is part of the Origin Application brought to you by the Energy Web Foundation,\n// a global non-profit organization focused on accelerating blockchain technology across the energy sector, \n// incorporated in Zug, Switzerland.\n//\n// The Origin Application is free software: you can redistribute it and/or modify\n// it under the terms of the GNU General Public License as published by\n// the Free Software Foundation, either version 3 of the License, or\n// (at your option) any later version.\n// This is distributed in the hope that it will be useful,\n// but WITHOUT ANY WARRANTY and without an implied warranty of\n// MERCHANTABILITY or FITNESS FOR A PARTICULAR PURPOSE.  See the\n// GNU General Public License for more details, at <http://www.gnu.org/licenses/>.\n//\n// @authors: slock.it GmbH, Martin Kuechler, martin.kuchler@slock.it\n\npragma solidity ^0.4.18;\n\nimport \"./UserDB.sol\";\nimport \"./RoleManagement.sol\";\nimport \"./CoO.sol\";\nimport \"./Updatable.sol\";\nimport \"./RolesInterface.sol\";\n\n/// @title The logic-contract for the user-data\n/// @notice this contract will not directly store any data, instead it will store them into the userDB-contract\ncontract UserLogic is RoleManagement, Updatable, RolesInterface {\n    /// @notice db user-db for storing the contract\n    UserDB public db;\n\n    modifier isInitialized {\n        require(address(db) != 0x0);\n        _;\n    }\n\n    /// @notice constructor \n    /// @param _coo address of the Certificate Registry contract (CoO.sol)\n    /// @dev it will also call the RoleManagement-constructor \n    function UserLogic(CoO _coo) RoleManagement(_coo) public {\n    }\n\n    /// @notice grant a user a an admin-right\n    /// @param _user user that should get rights\n    /// @param role admin-right to be granted\n    function addAdminRole(address _user, RoleManagement.Role role)\n        external \n        userExists(_user)\n        onlyRole(RoleManagement.Role.TopAdmin) \n    {\n        if ((role == RoleManagement.Role.TopAdmin || role == RoleManagement.Role.UserAdmin \n        || role == RoleManagement.Role.AssetAdmin || role == RoleManagement.Role.Trader)\n     //   && role != RoleManagement.Role.Trader && role != RoleManagement.Role.AssetManager\n        ) {\n           \n            if (!isRole(role,_user)) {\n                uint roles = db.getRolesRights(_user);\n                db.setRoles(_user, roles + uint(2) ** uint(role));\n            }\n        }\n    }\n\n    /// @notice grants a user the role AssetManager\n    /// @param _user user \n    function addAssetManagerRole(address _user)\n        external\n        userExists(_user)\n        onlyRole(RoleManagement.Role.AssetAdmin) \n    {\n        if (!isRole(RoleManagement.Role.AssetManager,_user)) {\n            uint roles = db.getRolesRights(_user);\n            db.setRoles(_user, roles + uint(2) ** uint(RoleManagement.Role.AssetManager));\n        }\n    }\n\n    /// @notice grants an ethereum-account the matcher-rights\n    /// @param _user ethereum-account\n    function addMatcherRole(address _user)\n        external\n        onlyRole(RoleManagement.Role.TopAdmin)\n    {\n            if (!isRole(RoleManagement.Role.Matcher,_user)) {\n            uint roles = db.getRolesRights(_user);\n            db.setRoles(_user, roles + uint(2) ** uint(RoleManagement.Role.Matcher));\n        }\n    }\n\n    /// @notice grants a user the trader-Role\n    /// @param _user user\n    function addTraderRole(address _user)\n        external\n        userExists(_user)\n        onlyRole(RoleManagement.Role.AgreementAdmin) \n    {\n        if (!isRole(RoleManagement.Role.Trader,_user)) {\n            uint roles = db.getRolesRights(_user);\n            db.setRoles(_user, roles + uint(2) ** uint(RoleManagement.Role.Trader));\n        }\n    }\n    /// @notice Initialises the contract by binding it to a logic contract\n    /// @param _database Sets the logic contract\n    function init(address _database) external {\n        require(db == UserDB(0x0) && cooContract.owner() == msg.sender);\n        db = UserDB(_database);\n    }\n\n    /// @notice function to deactive an use, only executable for user-admins\n    /// @param _user the user that should be deactivated\n    function deactivateUser(address _user)\n        external\n        onlyRole(RoleManagement.Role.UserAdmin)\n        isInitialized\n    {\n        require(!isRole(RoleManagement.Role.TopAdmin,_user) \n            && !isRole(RoleManagement.Role.UserAdmin,_user) \n            && !isRole(RoleManagement.Role.AssetAdmin,_user)\n            && !isRole(RoleManagement.Role.AgreementAdmin,_user)\n        );\n\n        db.setUserActive(_user, false);\n    }\n\n    /// @notice function to remove an admin-right from a user\n    /// @param _user user\n    /// @param role role to be removed\n    function removeAdminRole(address _user, RoleManagement.Role role)\n        external \n        userExists(_user)\n        onlyRole(RoleManagement.Role.TopAdmin) \n    {\n        if ((role == RoleManagement.Role.TopAdmin || role == RoleManagement.Role.UserAdmin \n        || role == RoleManagement.Role.AssetAdmin || role == RoleManagement.Role.AgreementAdmin)\n      ) {\n            if (isRole(role,_user)) {\n                uint roles = db.getRolesRights(_user);\n                db.setRoles(_user, roles - uint(2) ** uint(role));\n            }\n        }\n    }\n\n    /// @notice removes the assetManagerRole from a user\n    /// @param _user user\n    function removeAssetManagerRole(address _user)\n        external\n        userExists(_user)\n        onlyRole(RoleManagement.Role.AssetAdmin) \n    {\n        if (isRole(RoleManagement.Role.AssetManager,_user)) {\n            uint roles = db.getRolesRights(_user);\n            db.setRoles(_user, roles - uint(2) ** uint(RoleManagement.Role.AssetManager));\n        }\n    }\n\n    /// @notice removes the traderRole from a user\n    /// @param _user user\n    function removeTraderRole(address _user)\n        external\n        userExists(_user)\n        onlyRole(RoleManagement.Role.AgreementAdmin) \n    {\n        if (isRole(RoleManagement.Role.Trader,_user)) {\n            uint roles = db.getRolesRights(_user);\n            db.setRoles(_user, roles - uint(2) ** uint(RoleManagement.Role.Trader));\n        }\n    }\n\n    /// @notice function set change the name of an organization\n    /// @param _user ethereum-address of an user / organization\n    function setOrganization(address _user, bytes32 _organization) \n        external \n        onlyRole(RoleManagement.Role.UserAdmin) \n\n    {\n        require(_organization != 0x0);\n        db.setOrganization(_user,_organization);\n    }\n\n    /// @notice function to set a new address for an existing organization \n    /// @param _user ethereum-address of the organization\n    /// @param _street new streetname\n    /// @param _number new number\n    /// @param _zip new zip-code\n    /// @param _city new city\n    /// @param _country new country\n    /// @param _state new state\n    function setOrganizationAddress(address _user, bytes32 _street, bytes32 _number, bytes32 _zip, bytes32 _city, bytes32 _country, bytes32 _state)\n        external\n        onlyRole(RoleManagement.Role.UserAdmin) \n    {\n        require(_city != 0x0 && _street != 0x0 && _number > 0 && _zip != 0x0 && _country != 0x0);\n        db.setAddress(_user, _street, _number, _zip, _city, _country, _state);\n    }\n\n    /// @notice funciton that can be called to create a new user in the storage-contract, only executable for user-admins!\n    /// @notice if the user does not exists yet it will be creates, otherwise the older userdata will be overwritten\n    /// @param _user address of the user\n    /// @param _firstName first name of the user\n    /// @param _surname surname of the user\n    /// @param _organization organization the user is representing\n    /// @param _street streetname \n    /// @param _number housenumber\n    /// @param _zip zip-code\n    /// @param _city city-name\n    /// @param _country country-name\n    /// @param _state state\n    function setUser(        \n        address _user, \n        bytes32 _firstName, \n        bytes32 _surname, \n        bytes32 _organization,\n        bytes32 _street,\n        bytes32 _number,\n        bytes32 _zip,\n        bytes32 _city,\n        bytes32 _country,\n        bytes32 _state\n    ) \n        external \n        onlyRole(RoleManagement.Role.UserAdmin) \n        isInitialized\n    {  \n        require(_user != address(0x0)\n            && _firstName != 0x0 && _surname != 0x0 \n            && _organization != 0x0 \n            && _city != 0x0 && _street != 0x0 && _number > 0 && _zip != 0x0 && _country != 0x0\n        );    \n        db.setUser( _user, _firstName, _surname, _organization, _street, _number, _zip, _city, _country, _state);   \n\n    }\n\n    /// @notice function to change the name of an user\n    /// @param _user ethereum-account of that user\n    /// @param _firstName new first name\n    /// @param _surname new surname\n    function setUserName(address _user, bytes32 _firstName, bytes32 _surname) \n        external\n        onlyRole(RoleManagement.Role.UserAdmin) \n    {   \n        require(_firstName != 0x0 && _surname != 0x0);\n        db.setUserName(_user, _firstName, _surname);\n    }\n    \n    /// @notice function to set / edit the rights of an user / account, only executable for Top-Admins!\n    /// @param _user user that rights will change\n    /// beware: if the only TopAdmin revokes its own rights noone will be able to get TopAdmin-rights back, making it impossible to set any new admin-rights\n    /// @param _rights rights encoded as bitmask\n    function setRoles(address _user, uint _rights) \n        external \n        onlyRole(RoleManagement.Role.UserAdmin)\n        isInitialized\n       userExists(_user)\n    {\n        db.setRoles(_user, _rights);\n    }\n\n\n    /// @notice function to update the logic of a smart contract\n    /// @param _newLogic contract-address of the new smart contract, replacing the currently active one\n    function update(address _newLogic) \n        external\n        onlyAccount(address(cooContract))\n        isInitialized\n    {\n        db.changeOwner(_newLogic);\n    }\n\n    /// @notice function that checks if there is an user for the provided ethereum-address\n    /// @param _user ethereum-address of that user\n    /// @return bool if the user exists\n    function doesUserExist(address _user) \n        external \n        view \n        returns (bool) \n    {\n        return db.doesUserExist(_user);\n    }\n\n    /// @notice function to return all the data of an user\n    /// @param _user user \n    /// @return returns firstName, surname, organization, street, number, zip, city, country, state, roles and the active-flag\n    function getFullUser(address _user)\n        external\n        view \n        returns (\n            bytes32 firstName,\n            bytes32 surname,\n            bytes32 organization,\n            bytes32 street,\n            bytes32 number,\n            bytes32 zip,\n            bytes32 city,\n            bytes32 country,\n            bytes32 state,\n            uint roles,\n            bool active\n        )\n    {\n        return db.getFullUser(_user);\n    }\n\n    /// @notice function to retrieve the rights of an user\n    /// @dev if the user does not exist in the mapping it will return 0x0 thus preventing them from accidently getting any rights\n    /// @param _user user someone wants to know its rights\n    /// @return bitmask with the rights of the user\n    function getRolesRights(address _user) \n        external \n        view \n        returns (uint) \n    {\n        return db.getRolesRights(_user);\n    }\n\n\n   \n    \n\n}",
  "sourcePath": "/Users/mkuechler/ewf/CoO/contracts/UserLogic.sol",
  "compiler": {
    "name": "solc",
    "version": "0.4.19+commit.c4cbbb05.Emscripten.clang"
  },
  "schemaVersion": "2.0.0",
  "updatedAt": "2018-04-09T15:13:13.268Z"
}