{
  "contractName": "UserDB",
  "abi": [
    {
      "constant": true,
      "inputs": [],
      "name": "owner",
      "outputs": [
        {
          "name": "",
          "type": "address"
        }
      ],
      "payable": false,
      "stateMutability": "view",
      "type": "function"
    },
    {
      "constant": false,
      "inputs": [
        {
          "name": "_newOwner",
          "type": "address"
        }
      ],
      "name": "changeOwner",
      "outputs": [],
      "payable": false,
      "stateMutability": "nonpayable",
      "type": "function"
    },
    {
      "inputs": [
        {
          "name": "_logic",
          "type": "address"
        }
      ],
      "payable": false,
      "stateMutability": "nonpayable",
      "type": "constructor"
    },
    {
      "anonymous": false,
      "inputs": [
        {
          "indexed": false,
          "name": "_newOwner",
          "type": "address"
        }
      ],
      "name": "LogChangeOwner",
      "type": "event"
    },
    {
      "constant": false,
      "inputs": [
        {
          "name": "_user",
          "type": "address"
        },
        {
          "name": "_street",
          "type": "bytes32"
        },
        {
          "name": "_number",
          "type": "bytes32"
        },
        {
          "name": "_zip",
          "type": "bytes32"
        },
        {
          "name": "_city",
          "type": "bytes32"
        },
        {
          "name": "_country",
          "type": "bytes32"
        },
        {
          "name": "_state",
          "type": "bytes32"
        }
      ],
      "name": "setAddress",
      "outputs": [],
      "payable": false,
      "stateMutability": "nonpayable",
      "type": "function"
    },
    {
      "constant": false,
      "inputs": [
        {
          "name": "_user",
          "type": "address"
        },
        {
          "name": "_organization",
          "type": "bytes32"
        }
      ],
      "name": "setOrganization",
      "outputs": [],
      "payable": false,
      "stateMutability": "nonpayable",
      "type": "function"
    },
    {
      "constant": false,
      "inputs": [
        {
          "name": "_user",
          "type": "address"
        },
        {
          "name": "_firstName",
          "type": "bytes32"
        },
        {
          "name": "_surname",
          "type": "bytes32"
        },
        {
          "name": "_organization",
          "type": "bytes32"
        },
        {
          "name": "_street",
          "type": "bytes32"
        },
        {
          "name": "_number",
          "type": "bytes32"
        },
        {
          "name": "_zip",
          "type": "bytes32"
        },
        {
          "name": "_city",
          "type": "bytes32"
        },
        {
          "name": "_country",
          "type": "bytes32"
        },
        {
          "name": "_state",
          "type": "bytes32"
        }
      ],
      "name": "setUser",
      "outputs": [],
      "payable": false,
      "stateMutability": "nonpayable",
      "type": "function"
    },
    {
      "constant": false,
      "inputs": [
        {
          "name": "_user",
          "type": "address"
        },
        {
          "name": "_active",
          "type": "bool"
        }
      ],
      "name": "setUserActive",
      "outputs": [],
      "payable": false,
      "stateMutability": "nonpayable",
      "type": "function"
    },
    {
      "constant": false,
      "inputs": [
        {
          "name": "_user",
          "type": "address"
        },
        {
          "name": "_firstName",
          "type": "bytes32"
        },
        {
          "name": "_surname",
          "type": "bytes32"
        }
      ],
      "name": "setUserName",
      "outputs": [],
      "payable": false,
      "stateMutability": "nonpayable",
      "type": "function"
    },
    {
      "constant": false,
      "inputs": [
        {
          "name": "_user",
          "type": "address"
        },
        {
          "name": "_roles",
          "type": "uint256"
        }
      ],
      "name": "setRoles",
      "outputs": [],
      "payable": false,
      "stateMutability": "nonpayable",
      "type": "function"
    },
    {
      "constant": true,
      "inputs": [
        {
          "name": "_user",
          "type": "address"
        }
      ],
      "name": "doesUserExist",
      "outputs": [
        {
          "name": "",
          "type": "bool"
        }
      ],
      "payable": false,
      "stateMutability": "view",
      "type": "function"
    },
    {
      "constant": true,
      "inputs": [
        {
          "name": "_user",
          "type": "address"
        }
      ],
      "name": "getFullUser",
      "outputs": [
        {
          "name": "firstName",
          "type": "bytes32"
        },
        {
          "name": "surname",
          "type": "bytes32"
        },
        {
          "name": "organization",
          "type": "bytes32"
        },
        {
          "name": "street",
          "type": "bytes32"
        },
        {
          "name": "number",
          "type": "bytes32"
        },
        {
          "name": "zip",
          "type": "bytes32"
        },
        {
          "name": "city",
          "type": "bytes32"
        },
        {
          "name": "country",
          "type": "bytes32"
        },
        {
          "name": "state",
          "type": "bytes32"
        },
        {
          "name": "roles",
          "type": "uint256"
        },
        {
          "name": "active",
          "type": "bool"
        }
      ],
      "payable": false,
      "stateMutability": "view",
      "type": "function"
    },
    {
      "constant": true,
      "inputs": [
        {
          "name": "_user",
          "type": "address"
        }
      ],
      "name": "getRolesRights",
      "outputs": [
        {
          "name": "",
          "type": "uint256"
        }
      ],
      "payable": false,
      "stateMutability": "view",
      "type": "function"
    }
  ],
  "bytecode": "0x6060604052341561000f57600080fd5b6040516020806108a48339810160405280805160008054600160a060020a03909216600160a060020a03199092169190911790555050610850806100546000396000f3006060604052600436106100ae5763ffffffff7c0100000000000000000000000000000000000000000000000000000000600035041663265209f281146100b357806333a3ad8f146100e45780635c4e0d02146101085780636c82d8fa1461012d57806388e084ca1461015e5780638da5cb5b14610182578063a6f9dae1146101b1578063c0e7967e146101d0578063c7247af21461020c578063c7af3efc1461022e578063ecb41054146102a9575b600080fd5b34156100be57600080fd5b6100d2600160a060020a03600435166102dc565b60405190815260200160405180910390f35b34156100ef57600080fd5b610106600160a060020a0360043516602435610317565b005b341561011357600080fd5b610106600160a060020a0360043516602435604435610353565b341561013857600080fd5b610106600160a060020a036004351660243560443560643560843560a43560c4356103f6565b341561016957600080fd5b610106600160a060020a036004351660243515156104b9565b341561018d57600080fd5b610195610504565b604051600160a060020a03909116815260200160405180910390f35b34156101bc57600080fd5b610106600160a060020a0360043516610513565b34156101db57600080fd5b610106600160a060020a036004351660243560443560643560843560a43560c43560e43561010435610124356105ab565b341561021757600080fd5b610106600160a060020a036004351660243561065a565b341561023957600080fd5b61024d600160a060020a03600435166106fd565b6040519a8b5260208b01999099526040808b019890985260608a0196909652608089019490945260a088019290925260c087015260e0860152610100850152610120840152901515610140830152610160909101905180910390f35b34156102b457600080fd5b6102c8600160a060020a03600435166107e6565b604051901515815260200160405180910390f35b6000805433600160a060020a039081169116146102f857600080fd5b50600160a060020a03166000908152600160205260409020600c015490565b6000805433600160a060020a0390811691161461033357600080fd5b50600160a060020a039091166000908152600160205260409020600c0155565b6000805433600160a060020a0390811691161461036f57600080fd5b600160a060020a0384166000908152600160205260409020548490158015906103b35750600160a060020a0381166000908152600160208190526040909120015415155b15156103be57600080fd5b5050600160a060020a03909216600090815260016020819052604090912091825581810192909255600d01805460ff19169091179055565b6000805433600160a060020a0390811691161461041257600080fd5b600160a060020a0388166000908152600160205260409020548890158015906104565750600160a060020a0381166000908152600160208190526040909120015415155b151561046157600080fd5b5050600160a060020a039096166000908152600160208190526040909120600681019690965560088601949094556007850192909255600584015560038301556004820192909255600d01805460ff19169091179055565b6000805433600160a060020a039081169116146104d557600080fd5b50600160a060020a03919091166000908152600160205260409020600d01805460ff1916911515919091179055565b600054600160a060020a031681565b60005433600160a060020a0390811691161461052e57600080fd5b600160a060020a038116151561054357600080fd5b6000805473ffffffffffffffffffffffffffffffffffffffff1916600160a060020a0383161790557f95fd54179c11867fb083dd94347ea50f144dd4cfd7612b7bca169f162824af1681604051600160a060020a03909116815260200160405180910390a150565b60008054819033600160a060020a039081169116146105c957600080fd5b5050600160a060020a0390991660009081526001602081905260408220998a55898101989098556002890196909655600b8801805460038a01929092556004890199909955600588019190915560068701939093556007860155600885015560098401829055600a84019190915560ff8116151560ff199182161781168217909355600d9091018054909216179055565b6000805433600160a060020a0390811691161461067657600080fd5b600160a060020a0383166000908152600160205260409020548390158015906106ba5750600160a060020a0381166000908152600160208190526040909120015415155b15156106c557600080fd5b5050600160a060020a0390911660009081526001602081905260409091206002810192909255600d909101805460ff19169091179055565b6000806000806000806000806000806000806000809054906101000a9004600160a060020a0316600160a060020a031633600160a060020a031614151561074357600080fd5b600160008e600160a060020a0316600160a060020a03168152602001908152602001600020905080600001548160010154826002015483600301600301548460030160050154856003016004015486600301600201548760030160000154886003016001015489600c01548a600d0160009054906101000a900460ff169b509b509b509b509b509b509b509b509b509b509b505091939597999b90929496989a50565b6000805433600160a060020a0390811691161461080257600080fd5b50600160a060020a03166000908152600160205260409020600d015460ff16905600a165627a7a723058201e22fa0d219995866e2fc4e9bb3d1a68a83c59febde0ea3e8fe4e4db591731b90029",
  "source": "// Copyright 2018 Energy Web Foundation\n// This file is part of the Origin Application brought to you by the Energy Web Foundation,\n// a global non-profit organization focused on accelerating blockchain technology across the energy sector, \n// incorporated in Zug, Switzerland.\n//\n// The Origin Application is free software: you can redistribute it and/or modify\n// it under the terms of the GNU General Public License as published by\n// the Free Software Foundation, either version 3 of the License, or\n// (at your option) any later version.\n// This is distributed in the hope that it will be useful,\n// but WITHOUT ANY WARRANTY and without an implied warranty of\n// MERCHANTABILITY or FITNESS FOR A PARTICULAR PURPOSE.  See the\n// GNU General Public License for more details, at <http://www.gnu.org/licenses/>.\n//\n// @authors: slock.it GmbH, Martin Kuechler, martin.kuchler@slock.it\npragma solidity ^0.4.18;\n\nimport \"./Owned.sol\";\nimport \"./LocationDefinition.sol\";\n\n/// @title The database contract for the users, traders and admins of the certificate of origin\n/// @notice This contract only provides getter and setter methods that are only callable by the corresponging owner-contract\ncontract UserDB is Owned {\n    \n    /// @notice The structure of an user / admin / trader\n    /// @dev as it's for now impossible to return a struct, there is a special get-function for this struct. \n    /// @dev keep in mind to update that function aswell when changing the user-struct\n    struct User {\n        bytes32 firstName;\n        bytes32 surname;\n        bytes32 organization;\n        LocationDefinition.Location location;\n        uint roles;\n        bool active;\n       \n    }\n\n    /// @notice mapping for addresses to users\n    mapping(address => User) private userList;  \n\n    modifier userExists(address _user) {\n        require(userList[_user].firstName != 0x0 && userList[_user].surname != 0x0);\n        _;\n    }\n\n    /// @notice The constructor of the UserDB\n    /// @dev the deployer of this contract will get full adminrights!\n    function UserDB(address _logic) Owned(_logic) public {\n    }\n\n    /// @notice function to set a new address for an existing organization \n    /// @dev the onlyOwner-modifier is used, so that only the logic-contract is allowed to write into the storage\n    /// @param _user ethereum-address of the organization\n    /// @param _street new streetname\n    /// @param _number new number\n    /// @param _zip new zip-code\n    /// @param _city new city\n    /// @param _country new country\n    /// @param _state new state\n    function setAddress(address _user, bytes32 _street, bytes32 _number, bytes32 _zip, bytes32 _city, bytes32 _country, bytes32 _state)\n        external\n        onlyOwner\n        userExists(_user)\n    {\n        User storage u = userList[_user];\n        u.location.street = _street;\n        u.location.houseNumber = _number;\n        u.location.zip = _zip;\n        u.location.city = _city;\n        u.location.country = _country;\n        u.location.region = _state;\n        u.active = true;\n    }\n    /// @notice function to change the name of an existing organization, can only be used when the user already exists\n    /// @dev the onlyOwner-modifier is used, so that only the logic-contract is allowed to write into the storage\n    /// @param _user ethereum-address of an user\n    /// @param _organization new name of the organization\n    function setOrganization(address _user, bytes32 _organization) external onlyOwner userExists(_user){\n        User storage u = userList[_user];\n        u.organization = _organization;\n        u.active = true;\n    }\n\n    /// @notice function for creating, editing an user, it cannot be used to set a Role of an user\n    /// @notice if the user does not exists yet it will be creates, otherwise the older userdata will be overwritten\n    /// @dev the onlyOwner-modifier is used, so that only the logic-contract is allowed to write into the storage\n    /// @param _user address of the user\n    /// @param _firstName first name of the user\n    /// @param _surname surname of the user\n    /// @param _organization organization the user is representing\n    /// @param _street streetname \n    /// @param _number housenumber\n    /// @param _zip zip-code\n    /// @param _city city-name\n    /// @param _country country-name\n    /// @param _state state\n    function setUser(\n        address _user, \n        bytes32 _firstName, \n        bytes32 _surname, \n        bytes32 _organization,\n        bytes32 _street,\n        bytes32 _number,\n        bytes32 _zip,\n        bytes32 _city,\n        bytes32 _country,\n        bytes32 _state\n    ) \n        external \n        onlyOwner \n    {\n        User storage u = userList[_user];\n\n        LocationDefinition.Location storage loc = u.location;\n\n        u.firstName = _firstName;\n        u.surname = _surname;\n        u.organization = _organization;\n        u.location = loc;\n\n        loc = u.location;\n        loc.country = _country;\n        loc.region = _state;\n        loc.city = _city;\n        loc.street = _street;\n        loc.zip = _zip;\n        loc.houseNumber = _number;\n        loc.gpsLatitude = 0x0;\n        loc.gpsLongitude = 0x0;\n        loc.exists = true;\n        u.active = true;\n    }\n \n    /// @notice function to (de-)active a user, dan only be used when the user already exists\n    /// @dev the onlyOwner-modifier is used, so that only the logic-contract is allowed to write into the storage\n    /// @param _user ethereum-address of an user\n    /// @param _active flag if the account should be active\n    function setUserActive(address _user, bool _active) external onlyOwner {\n        User storage u = userList[_user];\n        u.active = _active;\n    }\n\n    /// @notice function to change the username, can only be used when the user already exists\n    /// @dev the onlyOwner-modifier is used, so that only the logic-contract is allowed to write into the storage\n    /// @param _user ethereum-address of an user\n    /// @param _firstName new first name\n    /// @param _surname new surname\n    function setUserName(address _user, bytes32 _firstName, bytes32 _surname) \n        external \n        onlyOwner \n        userExists(_user) \n    {   \n        User storage u = userList[_user];\n        u.firstName = _firstName;\n        u.surname = _surname;\n        u.active = true;\n    }\n\n    /// @notice function for editing the rights of an user\n    /// @dev the onlyOwner-modifier is used, so that only the logic-contract is allowed to write into the storage\n    /// @param _user address of the user\n    /// @param _roles first name of the user\n    function setRoles(address _user, uint _roles) external onlyOwner {\n        User storage u = userList[_user];\n        u.roles = _roles;\n    }\n    \n    /// @notice function that checks if there is an user for the provided ethereum-address\n    /// @dev the onlyOwner-modifier is used, so that only the logic-contract is allowed to read directly from the contract\n    /// @param _user ethereum-address of that user\n    /// @return bool if the user exists\n    function doesUserExist(address _user) \n        onlyOwner\n        external \n        view \n    returns (bool) {\n        return userList[_user].active;\n    }\n\n    /// @notice function to return all the data of an user\n    /// @dev the onlyOwner-modifier is used, so that only the logic-contract is allowed to read directly from the contract\n    /// @param _user user \n    /// @return returns firstName, surname, organization, street, number, zip, city, country, state, roles and the active-flag\n    function getFullUser(address _user)\n        onlyOwner\n        external\n        view \n        returns (\n            bytes32 firstName,\n            bytes32 surname,\n            bytes32 organization,\n            bytes32 street,\n            bytes32 number,\n            bytes32 zip,\n            bytes32 city,\n            bytes32 country,\n            bytes32 state,\n            uint roles,\n            bool active\n        )\n    {\n        User storage u = userList[_user];\n        return (u.firstName, u.surname, u.organization, u.location.street, u.location.houseNumber, u.location.zip, u.location.city, u.location.country, u.location.region, u.roles, u.active);\n    }  \n\n    /// @notice function to retrieve the rights of an user\n    /// @dev the onlyOwner-modifier is used, so that only the logic-contract is allowed to read directly from the contract\n    /// @dev if the user does not exist in the mapping it will return 0x0 thus preventing them from accidently getting any rights\n    /// @param _user user someone wants to know its rights\n    /// @return bitmask with the rights of the user\n    function getRolesRights(address _user) \n        onlyOwner\n        external \n        view \n        returns (uint) \n    {\n        return userList[_user].roles;\n    }\n\n}",
  "sourcePath": "/Users/mkuechler/ewf/CoO/contracts/UserDB.sol",
  "compiler": {
    "name": "solc",
    "version": "0.4.19+commit.c4cbbb05.Emscripten.clang"
  },
  "schemaVersion": "2.0.0",
  "updatedAt": "2018-04-09T15:13:13.266Z"
}